:020000040800F2
:10000000480700208901000879100008ED03000866
:100010007510000839020008FB12000800000000FB
:100020000000000000000000000000009D1000081B
:100030003D020008000000007B100008B11100081C
:10004000A3010008A3010008A3010008A301000800
:10005000A3010008A3010008A3010008A3010008F0
:10006000A3010008A3010008A3010008A3010008E0
:10007000A3010008A3010008A3010008A3010008D0
:10008000A3010008A3010008A3010008A3010008C0
:10009000A3010008A3010008A3010008A3010008B0
:1000A000A3010008A3010008A3010008A3010008A0
:1000B000A3010008A3010008A3010008A301000890
:1000C000A3010008A3010008A3010008A301000880
:1000D000A301000815120008A3010008A3010008ED
:1000E000A3010008A3010008A301000800F002F822
:1000F00000F03AF80AA090E8000C82448344AAF188
:100100000107DA4501D100F02FF8AFF2090EBAE885
:100110000F0013F0010F18BFFB1A43F0010318473B
:100120002860000048600000103A24BF78C878C1F9
:10013000FAD8520724BF30C830C144BF04680C60ED
:10014000704700000023002400250026103A28BF35
:1001500078C1FBD8520728BF30C148BF0B60704739
:100160001FB51FBD10B510BD00F033F81146FFF7E5
:10017000F7FF01F00FF900F051F803B4FFF7F2FFB9
:1001800003BC01F0BCF8000009488047094800475B
:10019000FEE7FEE7FEE7FEE7FEE7FEE7FEE7FEE737
:1001A000FEE7FEE704480549054A064B7047000094
:1001B000B5110008ED0000084801002048070020A4
:1001C000480300204803002070477047704770477D
:1001D0007047754600F02CF8AE4605006946534658
:1001E00020F00700854618B020B5FFF7DBFFBDE81B
:1001F00020404FF000064FF000074FF000084FF08E
:10020000000B21F00701AC46ACE8C009ACE8C0091E
:10021000ACE8C009ACE8C0098D46704710B504468B
:10022000AFF300802046BDE81040FFF7A6BF0000F6
:1002300000487047E800002000BFFEE770472DE946
:10024000F04102460025002600200023002400275C
:1002500091F803C00CF00F0591F803C00CF0100CDE
:10026000BCF1000F03D091F802C04CEA050591F8EB
:1002700000C0BCF1000F31D0146800202BE04FF01B
:10028000010C0CFA00F3B1F800C00CEA03069E4220
:1002900020D183004FF00F0C0CFA03F7BC4305FA92
:1002A00003FC4CEA040491F803C0BCF1280F06D10A
:1002B0004FF0010C0CFA00FCC2F814C00AE091F8EF
:1002C00003C0BCF1480F05D14FF0010C0CFA00FC43
:1002D000C2F810C0401C0828D1D31460B1F800C087
:1002E000BCF1FF0F34DD546800202EE000F1080C53
:1002F0004FF0010808FA0CF3B1F800C00CEA03064D
:100300009E4221D183004FF00F0C0CFA03F7BC433F
:1003100005FA03FC4CEA040491F803C0BCF1280F71
:1003200005D100F1080C08FA0CF8C2F8148091F815
:1003300003C0BCF1480F07D100F1080C4FF00108D1
:1003400008FA0CF8C2F81080401C0828CED354607C
:10035000BDE8F081F0B50A46002300240021002505
:1003600000F00046B6F1004F02D11D4EF16901E0E8
:100370001B4E7168C0F3034583B200F44016B6F516
:10038000401F08D121F07061154E766826F0706626
:10039000134F7E6012E000F48016B6F5801F06D180
:1003A000032606FA05F4A14341F0706106E0460D0C
:1003B000360103FA06F6B14341F0706122B1460DF1
:1003C000360103FA06F6314300F00046B6F1004F5D
:1003D00002D1034EF16101E0014E7160F0BD0000F9
:1003E00000000140416170470161704700BFFEE7B6
:1003F0002DE9F04107460C4615461E462A2000F01E
:10040000E5FD384600F0D3FD284600F0D0FD2B2056
:1004100000F0DCFD204600F0CAFD304600F0C7FDCC
:100420002C2000F0D3FDBDE8F08170B504460D46E8
:1004300016462B46224629462046FFF7D9FF30466E
:1004400000F0B5FD70BD2DE9F04706460F46144695
:100450001D46DDF820A0681E83B2601E82B23946B8
:100460003046FFF7C5FFB8460EE0B14606E05046FD
:1004700000F09DFD09F101001FFA80F9A145F6DBAE
:1004800008F101001FFA80F8A845EEDBBDE8F0870F
:1004900008B50121042000F0F1FD1F20ADF8000097
:1004A00010208DF8030003208DF8020069460448EF
:1004B000FFF7C5FE1F210248FFF796FF08BD0000A9
:1004C0000008014010B5FFF7E3FF04218548FFF75E
:1004D00089FF642000F038FF04218248FFF784FF81
:1004E000642000F031FF10217E48FFF77DFF64207B
:1004F00000F02AFF112000F069FD782000F024FFB1
:10050000CF2000F063FD002000F05AFDD92000F05C
:1005100057FD302000F054FDED2000F057FD642021
:1005200000F04EFD032000F04BFD122000F048FDCE
:10053000812000F045FDE82000F048FD852000F016
:100540003FFD102000F03CFD782000F039FDCB206D
:1005500000F03CFD392000F033FD2C2000F030FD90
:10056000002000F02DFD342000F02AFD022000F0D4
:1005700027FDF72000F02AFD202000F021FDEA20D1
:1005800000F024FD002000F01BFD002000F018FD0D
:10059000C02000F01BFD212000F012FDC12000F062
:1005A00015FD122000F00CFDC52000F00FFD3220DB
:1005B00000F006FD3C2000F003FDC72000F006FD22
:1005C000C12000F0FDFC362000F000FD082000F006
:1005D000F7FC3A2000F0FAFC552000F0F1FCB120C5
:1005E00000F0F4FC002000F0EBFC182000F0E8FC28
:1005F000B62000F0EBFC0A2000F0E2FCA22000F0A4
:10060000DFFCF22000F0E2FC002000F0D9FC262004
:1006100000F0DCFC012000F0D3FCE02000F0D6FC70
:100620000F2000F0CDFC202000F0CAFC1E2000F0BE
:10063000C7FC092000F0C4FC122000F0C1FC0B2014
:1006400000F0BEFC502000F0BBFCBA2000F0B8FC6B
:10065000442000F0B5FC092000F0B2FC142000F0AA
:10066000AFFC052000F0ACFC232000F0A9FC212009
:1006700000F0A6FC002000F0A3FCE12000F0A6FCA6
:10068000002000F09DFC192000F09AFC192000F0D9
:1006900097FC002000F094FC122000F091FC072051
:1006A00000F08EFC2D2000F08BFC282000F088FC50
:1006B0003F2000F085FC022000F082FC0A2000F0C0
:1006C0007FFC082000F07CFC252000F079FC2D2028
:1006D00000F076FC0F2000F073FC292000F076FC7F
:1006E00010BD0000000801402DE9FF5F80468A46EA
:1006F00017469B460F9D00200290CDF800802846AB
:1007000005EBD071C1F347042046E21704EB5272A7
:10071000D2102146E31704EB5373DB10A4EBC303A1
:100720000BB1012300E000231A446A4392B2019204
:10073000A7F12000C7B20AEB0500401E83B208EB08
:100740000400401E82B251464046FFF751FE00268B
:1007500069E00C2D07D107EB4700354901EB80001C
:10076000805D03901BE0102D05D1324800EB07108F
:10077000805D039013E0182D07D107EB47002E4949
:1007800001EB0010805D039009E0202D05D12B487E
:1007900000EB8710805D039001E0BDE8FF9F4FF004
:1007A00000093AE01098C8B9012000FA09F003994D
:1007B000084018B1584600F0FAFB02E00E9800F02D
:1007C000F6FB0298401CC0B20290029890FBF4F134
:1007D00004FB1100E8B90020029021E0012000FA9A
:1007E00009F00399084020B15A4651464046FFF7A8
:1007F0001CFE08F101001FFA80F80098A8EB000029
:10080000A04206D1DDF800800AF101001FFA80FA4B
:1008100006E009F1010000F0FF09B9F1080FC1DBA2
:1008200000BF701C86B20198864292DB00BFB4E71D
:100830002C280008A02C0008903200086044000812
:100840002DE9FE4F8046894617469A46DDE90D465A
:100850000C9D36E00C2C09D153463A464946404699
:10086000CDE90146009500F031F825E0102C09D1C2
:1008700053463A4649464046CDE90146009500F0C8
:10088000C9F819E0182C09D153463A464946404662
:10089000CDE90146009500F059F90DE0202C09D171
:1008A00053463A4649464046CDE90146009500F098
:1008B000F1F901E0BDE8FE8FBF1C08EB04001FFA50
:1008C00080F838780028C5D100BFF3E72DE9FF5F35
:1008D0000646894692469B460F9C00200390009650
:1008E0002046E21704EB5272D2102146E31704EBC4
:1008F0005373DB10A4EBC3030BB1012300E000230F
:100900001A44624392B2019205200290002579E0D8
:1009100005EB850000EBC5003D4911F810009AF881
:10092000001088426BD105EB850000EBC50038490B
:1009300001EB400040789AF8011088425FD109EB42
:100940000400401E83B23019401E82B24946304630
:10095000FFF74EFD00274FE04FF0000846E01098EB
:1009600008BB05EB850000EBC500294901EB400001
:10097000801CC05D012101FA08F1084018B15846F9
:1009800000F015FB02E00E9800F011FB0398401CEC
:10099000C0B20390039890FBF4F104FB110008BB74
:1009A0000020039025E005EB850000EBC500184909
:1009B00001EB4000801CC05D012101FA08F10840F4
:1009C00020B15A4649463046FFF72FFD701C86B2CB
:1009D0000098301AA04205D1009E09F101001FFACB
:1009E00080F906E008F1010000F0FF08B8F1080FF7
:1009F000B5DB00BF781CC7B201988742ACDB00BFF3
:100A0000681C85B20298854282DBBDE8FF9F00002A
:100A1000205C00082DE9FF5F0646894692469B460A
:100A20000F9C0020039000962046E21704EB5272C0
:100A3000D2102146E31704EB5373DB10A4EBC3037E
:100A40000BB1012300E000231A44624392B20192E9
:100A500005200290002571E005EB05103A4911F8D8
:100A600010009AF80010884265D105EB0510364950
:100A700001EB400040789AF8011088425BD109EB05
:100A80000400401E83B23019401E82B249463046EF
:100A9000FFF7AEFC00274BE04FF0000842E0109853
:100AA000F8B905EB0510284901EB4000801CC05D3A
:100AB000012101FA08F1084018B1584600F077FA10
:100AC00002E00E9800F073FA0398401CC0B2039045
:100AD000039890FBF4F104FB1100F8B90020039097
:100AE00023E005EB0510184901EB4000801CC05DB8
:100AF000012101FA08F1084020B15A464946304622
:100B0000FFF793FC701C86B20098301AA04205D102
:100B1000009E09F101001FFA80F906E008F10100CA
:100B200000F0FF08B8F1080FB9DB00BF781CC7B2AE
:100B300001988742B0DB00BF681C85B202988542ED
:100B40008ADBBDE8FF9F0000A25C00082DE9FF5F83
:100B50000646894692469B460F9C002003900096CD
:100B60002046E21704EB5272D2102146E31704EB41
:100B70005373DB10A4EBC3030BB1012300E000238C
:100B80001A44624392B2019205200290002579E056
:100B900005EB850000EB45103D4911F810009AF86F
:100BA000001088426BD105EB850000EB45103849F9
:100BB00001EB400040789AF8011088425FD109EBC0
:100BC0000400401E83B23019401E82B249463046AE
:100BD000FFF70EFC00274FE04FF0000846E01098AA
:100BE00008BB05EB850000EB4510294901EB4000EF
:100BF000801CC05D012101FA08F1084018B1584677
:100C000000F0D5F902E00E9800F0D1F90398401CED
:100C1000C0B20390039890FBF4F104FB110008BBF1
:100C20000020039025E005EB850000EB45101849F6
:100C300001EB4000801CC05D012101FA08F1084071
:100C400020B15A4649463046FFF7EFFB701C86B28A
:100C50000098301AA04205D1009E09F101001FFA48
:100C600080F906E008F1010000F0FF08B8F1080F74
:100C7000B5DB00BF781CC7B201988742ACDB00BF70
:100C8000681C85B20298854282DBBDE8FF9F0000A8
:100C90004C5D00082DE9FF5F0646894692469B465B
:100CA0000F9C0020039000962046E21704EB52723E
:100CB000D2102146E31704EB5373DB10A4EBC303FC
:100CC0000BB1012300E000231A44624392B2019267
:100CD00005200290002571E005EB85103A4911F8D6
:100CE00010009AF80010884265D105EB851036494E
:100CF00001EB400040789AF8011088425BD109EB83
:100D00000400401E83B23019401E82B2494630466C
:100D1000FFF76EFB00274BE04FF0000842E0109811
:100D2000F8B905EB8510284901EB4000801CC05D37
:100D3000012101FA08F1084018B1584600F037F9CE
:100D400002E00E9800F033F90398401CC0B2039003
:100D5000039890FBF4F104FB1100F8B90020039014
:100D600023E005EB8510184901EB4000801CC05DB5
:100D7000012101FA08F1084020B15A46494630469F
:100D8000FFF753FB701C86B20098301AA04205D1C1
:100D9000009E09F101001FFA80F906E008F1010048
:100DA00000F0FF08B8F1080FB9DB00BF781CC7B22C
:100DB00001988742B0DB00BF681C85B2029885426B
:100DC0008ADBBDE8FF9F0000BE5E00082DE9FF4FF3
:100DD00085B0074690461C46DDE91396304606EB83
:100DE000D071C1F3470B2149404600F013FE039038
:100DF00000F0F0FD80B20490002531E0601B401E41
:100E0000C1B20A2000F096FB0499B1FBF0F00A2170
:100E1000B0FBF1F201FB120AA01EA84210D1002083
:100E2000A11E01FB0B71CDE90096029088B22E2223
:100E3000129B0699FFF758FC681CC5B2601CC4B22F
:100E400000200AF13001CAB205FB0B71CDE9009612
:100E5000029088B2129B0699FFF746FC681CC5B247
:100E6000A542CBDB09B0BDE8F08F00000000C8420E
:100E70002DE9FF4F85B0074691461D46DDE913A6D3
:100E800000200490304606EBD071C1F3470B0024DC
:100E900034E0281B401EC1B20A2000F04BFBB9FB16
:100EA000F0F00A21B0FBF1F201FB12080498A0B99E
:100EB000681EA04211DDB8F1000F0CD1002004FB28
:100EC0000B71CDE900A6029088B22022129B0699F0
:100ED000FFF70AFC10E001200490002008F1300127
:100EE000CAB204FB0B71CDE900A6029088B2129B36
:100EF0000699FFF7F9FB00BF601CC4B2AC42C8DB27
:100F000009B0BDE8F08F2DE9F05F07468846154629
:100F10001E46DDF82890002408EB0600401E83B230
:100F20007819401E82B241463846FFF761FAA24660
:100F300018E04FF0000B0FE019F8140000F040F833
:100F4000012101EB440119F8010000F039F8641C9B
:100F50000BF101001FFA80FBB345EDDB0AF1010044
:100F60001FFA80FAAA45E4DBBDE8F09F2DE9FE4FA9
:100F700006460F4614469846DDE90D5ADDF83090D6
:100F800010E0CDE9015ACDF8009022784346394669
:100F90003046FFF7A9FB284605EBD07106EB61014F
:100FA0008EB2641C20780028EBD1BDE8FE8F10B50E
:100FB0000446201200F01AF8E0B200F017F810BD55
:100FC00010B50446204600F011F810BD10B50446D7
:100FD00008210548FFF706FA204600F007F8082127
:100FE0000148FFF701FA10BD0008014070B5044642
:100FF000002517E001210D48FFF7F4F904F0800007
:1010000020B102210948FFF7EFF903E00221074868
:10101000FFF7E8F901210548FFF7E6F96006040E3D
:10102000681CC5B2082DE5DB70BD0000000801405A
:1010300008B50121052000F021F801210B48FFF738
:1010400089F94FF40040ADF8000010208DF803003E
:1010500003208DF8020069460548FFF7F0F84FF4C9
:1010600000410348FFF7C0F908BD0000000230004E
:101070000008014000BFFEE77047704729B1064AEB
:1010800092690243044B9A6104E0034A92698243E5
:10109000014B9A617047000000100240704710B584
:1010A00000F002F810BD00000CB500200190009087
:1010B0003348006840F480303149086000BF304850
:1010C000006800F4003000900198401C01900098E6
:1010D00018B90198B0F5A06FF1D12948006800F463
:1010E000003010B10120009001E000200090009835
:1010F000012843D12348006840F0100021490860CE
:101100000846006820F0030008600846006840F0C8
:10111000020008601A48406819494860084640685B
:1011200048600846406840F480604860084640686F
:1011300020F47C1048600846406840F4E81048609D
:101140000846006840F08070086000BF0C480068E6
:1011500000F000700028F9D00948406820F0030032
:10116000074948600846406840F00200486000BFF8
:101170000348406800F00C000828F9D10CBD0000BD
:101180000010024000200240042808D14FF0E02166
:10119000096941F004014FF0E022116107E04FF0CE
:1011A000E021096921F004014FF0E022116170474C
:1011B0007047000010B51348006840F00100114965
:1011C000086008464068104908400E4948600846D3
:1011D00000680E4908400B4908600846006820F482
:1011E000802008600846406820F4FE0048604FF404
:1011F0001F008860FFF753FF4FF00060044908604C
:1012000010BD0000001002400000FFF8FFFFF6FED6
:1012100008ED00E010B540F225511D4800F03EF801
:1012200010B31B4800F064F8C4B21A48008800F4F8
:101230000040C8B91748008800F4804060B10A2C0B
:1012400003D000201349088020E01248008840F4B1
:1012500000401049088019E00D2C06D10D48008887
:1012600040F480400B49088010E00A480088C0F331
:101270000D0009490C5407480088401C05490880A6
:1012800008460088C72801DD0020088010BD000046
:10129000003801401C0000202000002070B50246EC
:1012A000002400230025002040F66A16B14200D138
:1012B00000BFC1F3421501F01F03012606FA03F334
:1012C000012D02D19689334006E0022D02D1168A03
:1012D000334001E0968A33400C12012606FA04F4EA
:1012E0001688344013B10CB1012000E0002070BD1D
:1012F00001468888C0F30800704700BFFEE700BFC2
:101300007047000010B56FF00400FFF73DFF0A487A
:1013100000680A49B0FBF1F00949087008460078F6
:1013200000EB4001C1EBC0104FF6FF7101EAC000B5
:101330000449088010BD00000000002000127A005F
:1013400014000020160000200146114A12884A436A
:101350004FF0E0235A6100229A611A46126942F066
:1013600001021A6100BF4FF0E022106900F0010293
:101370001AB100F48032002AF5D04FF0E022126951
:1013800022F001024FF0E0231A6100229A617047B7
:10139000160000200EB54FF0000AFFF7B3FFFFF76D
:1013A00047FEFFF78FF84FF6FF704FF4A073F0225F
:1013B000002100900846FFF746F800204D490860DC
:1013C00097E0002020214FF6FF724FF47843CDE9DB
:1013D0000021029048A20146FFF732FA00201021B6
:1013E0004FF6FF724FF47843CDE90021029045A2F9
:1013F0002821FFF7BBFD10204FF6FF714FF4784214
:101400000323CDE900210290F02228213020FFF7AC
:101410002FFD002010214FF6FF724FF47843CDE9E5
:101420000021029039A228215020FFF79FFD1020B3
:101430004FF6FF714FF478420323CDE9002102906B
:101440004FF4A07228218020FFF712FD0020102108
:101450004FF6FF724FF47843CDE9002102902BA2A2
:1014600028215020FFF782FD002010214FF6FF7247
:101470004FF47843CDE90021029026A24621FFF7E0
:1014800075FD10204FF6FF714FF478420423CDE92B
:1014900000210290524646218020FFF797FC5046DB
:1014A00000F06CFA0746204A204B00F081F8054610
:1014B00000F04CF882464FF0000917E000240FE0DE
:1014C0001B4809EB8902782303EBC20104EB840279
:1014D0000090D00028231A46FFF715FD601CC4B207
:1014E000062CEDDB09F1010000F0FF09B9F1050F51
:1014F000E4DB66E7BC012142D6D0BEB0D4B0B5E78C
:10150000D7D300004C43445F573A00004C43445F3C
:10151000483A0000496E637265617365696E6720C1
:101520004E756E3A00000000295C8FC2F528BC3F62
:10153000AC1B000810B50246012000E050430B1E12
:10154000A1F10104E1B2F9D110BD000021F0004287
:10155000A2F16052B2F5801F01F0004328BFD2F122
:101560007F6C0BD95FEA001C43EAC20242EB507069
:1015700018BF704728BF20F001007047B2F5801FE8
:10158000BCBF184670474FEA410C1CF5001F02D241
:10159000084600F006BB70B500F0B2F80000008904
:1015A000FFF7F6BF4FF00040A0F580007047000045
:1015B00010B591EA030F48BF83F0004300F1FC80AF
:1015C000841A71EB030C05D2121943EB0C03001BB8
:1015D00061EB0C01DFF824E14FEA1154A4EB135C3A
:1015E0001EEA430F18BF9EEA445F73D023EA0E033E
:1015F000DCF1200E21EA045143F4801332D322FAA5
:101600000CFE10EB0E0023FA0CFE41EB0E01CCF1A8
:10161000200E03FA0EFE10EB0E0051F10001B1F5A1
:10162000801FCCF1200E32D201EB045112FA0EF2DF
:10163000BDE8104058BF7047401C38BF5FEA420207
:1016400018BF7047002814BF20F0010041F10001CD
:101650004FEA410313F5001F38BF7047A1F1C041A5
:1016600000F09CB8012A43EB0302ACF1200CDCF142
:101670001F0E32BF4FF0000E23FA0CF310EB0300E5
:1016800041EB0451B4EB115FD0D0A1EB045101F553
:10169000801149085FEA300001EB04510ED350F18C
:1016A000000038BF12FA0EFE08D1BDE81040C9E7AD
:1016B000401C38BF5FEA4202CAD1C3E7BDE8104010
:1016C0004FEA410313F5001F38BF7047A1F1C04135
:1016D00000F064B89EEA445F08D011EA5E0FBDE8EE
:1016E000104004BF01F0004100207047BDE81040E9
:1016F00070B500F005F800BF64FBBE3E0000E0FFDF
:101700000EF1020E2EF0030E5EF8046B364205D485
:10171000012A43EB030515F5001F12D8012841EB00
:10172000010C1CF5001F0CD80ED14FEAD17C15F529
:10173000001F0CEB4C0C0CF1020C08BF4CEBD37CE3
:1017400004E04FF0080C01E04FEAD37C0CEB4C05B1
:1017500026FA05F606F00706B6F1040C06D20EEBE3
:10176000860CBDE870404CF0010C6047DFE80CF0DF
:10177000090B02024FF000414FF00000A1F50021DB
:1017800070BD19461046012851EB010418BFD4F56D
:10179000001484BF002001F0004170BD0808A0F5CE
:1017A00000114FEA3101704710B591EA030F48BFAD
:1017B00083F000433FF504AF841A71EB030C07D2AA
:1017C00012198CF0004C43EB0C03001B61EB0C0175
:1017D000DFF8A4E14FEA1154A4EB135C1EEA430FB7
:1017E00018BF9EEA445F00F0B08023EA6E035242C5
:1017F00021EA0451C3EB6E0338BF5B1EDCF1200EFF
:1018000025D322FA0CFE10EB0E0043FA0CFE41EB3E
:101810000E01CCF1200E03FA0EFE10EB0E0051F17A
:101820000001CCF1200E29D412FA0EF201EB045182
:10183000BDE8104058BF7047401C1CBFB2F1004FBC
:10184000704700280CBF491C20F00100704712EBC4
:10185000020E43EB030218BF4FF0010E4EEA4202A4
:10186000ACF1200CDCF11E0E54D943FA0CFE10EB47
:101870000E0051F1FF31CCF11E0ED5D50EF1010E47
:1018800012FA0EFE404141EB010101EB445C5FEABC
:101890005C5C10D910EBDE7001EB045138BFBEF177
:1018A000004FBDE8104018BF704700280CBF491C0E
:1018B00020F00100704730D24FEAD42C11F500110E
:1018C00024F400641BD0B1FA81F20B3AA41AA41ECE
:1018D000D2F12003914030FA03F31943904001EB19
:1018E000CC71002C01EB0451BDE81040A8BF70473B
:1018F00001F1C0414FF0000001F000417047B0FA23
:1019000080F310FA03F100D110BDE41A173C48052A
:10191000C90AE4E701EB045110BD491001EB045181
:10192000BDE810404FEA300002E04FF00001704780
:101930004A0008BF0042F8D0B2F5001F28BF704728
:1019400001F000414FF0000070479EEA445F07D06D
:1019500011EA5E0FBDE8104004BF0021002070476F
:10196000BDE8104070B5FFF7CBFE00BF40DFF63E8C
:1019700083F00041104670470000E0FF43004FEA4B
:10198000D30C4FEA3C0C43401FBF40070CF16051A1
:1019900013F0FE4F70471CF0006F03D100200CF0D5
:1019A000004170470CF0004343EA507010B540EA24
:1019B000CC0000F0B0F800BF000000924FEA000138
:1019C000FFF7ECBE4FF000414FF00000A1F5002101
:1019D00070470000C10DD1F19E0206DB4FEA0023E3
:1019E00043F0004323FA02F07047004207D54FEA64
:1019F0004001B1F1FE4F02D24FF00000704710B528
:101A000000F089F849922480002070476FEA200096
:101A1000704700004FF47F0C1CEAD0121EBF1CEA76
:101A2000D11392EA0C0F93EA0C0F00F0478090EA72
:101A3000010F48BF42F480724FF0004C4CEA002086
:101A40004CEA012102EB0302A0FB0113A2F5000204
:101A5000002918BF43F001035B0028BF4FEA33039E
:101A600042EB22425FEA132C4CEBC2502EBFBCEB80
:101A7000436FB2F57C0F70474FEA036CBCF1004F27
:101A800008BF20F00100B2F57C0F38BF70470BD5BE
:101A900082F0FF0212F5803FC8BF704700F1C040DE
:101AA000D8BF00F00040704700F5000C5FEA4C0C16
:101AB00048BF7047B0F1C04000F073B890EA010F22
:101AC0000CEAD11348BF42F48072624538BF6345C7
:101AD00004D280EA010000F00040704710B500F029
:101AE0001AF800BF8900013E00F007B800F009B8FD
:101AF0005FEA410C5FEA1C6C08D080EA010000F04C
:101B000050B85FEA400C5FEA1C6CF6D14FF0004021
:101B1000A0F5800070470EF1020E2EF0030E5EF865
:101B2000044B244204D44FEA4102B2F17F4F11D852
:101B30004FEA4003B3F17F4F0CD80ED14FEAD07C6F
:101B4000B2F17F4F0CEB4C0C0CF1020C08BF4CEBCC
:101B5000D17C04E04FF0080C01E04FEAD17C0CEBA3
:101B60004C0324FA03F404F00704B4F1040C06D285
:101B70000EEB840CBDE810404CF0010C6047DFE830
:101B80000CF0070802024FF00040A0F5800010BDE5
:101B90000846420018BFD2F1807288BF00F00040B2
:101BA00010BDFF2141EAD050C0057047FFFFFFFF85
:101BB000FFFFFFFFFFFFFFFFFFFFFFFFFFFFFFFF35
:101BC000FFFFFFFFFFFFFFFFFFFFF7BEFFFFFFDE8F
:101BD000C6388C926B8E6B6E7C10AD96E73CFFFF27
:101BE000FFFFFFFFFFFFFFFFFFFFFFFFFFFFFFFF05
:101BF000FFFFFFFFFFFFFFFFFFFFFFFFFFFFFFFFF5
:101C0000FFFFFFFFFFFFFFFFFFFFFFFFFFFFFFFFE4
:101C1000FFFFFFFFFFFFFFFFFFFFEF5D9D15634F1E
:101C2000426C320A298819461925214531E86B8E04
:101C3000C638FFFFFFFFFFFFFFFFFFFFFFFFFFFFB4
:101C4000FFFFFFFFFFFFFFFFFFFFFFFFFFFFFFFFA4
:101C5000FFFFFFFFFFFFFFFFFFFFFFFFFFFFFFFF94
:101C6000FFFFFFFFFFFFFFFFA53653104B1053513F
:101C70004B0F3A6C31E92167192510E408A3006283
:101C8000088352CBD69AFFFFFFFFFFFFFFFFFFFF46
:101C9000FFFFFFFFFFFFFFFFFFFFFFFFFFFFFFFF54
:101CA000FFFFFFFFFFFFFFFFFFFFFFFFFFFFFFFF44
:101CB000FFFFFFFFE73C637063B37CB863F543113C
:101CC000324D29EA21881926190519051104110434
:101CD00010E4008308A38C72FFFFFFFFFFFFFFFFEC
:101CE000FFFFFFFFFFFFFFFFFFFFFFFFFFFFFFFF04
:101CF000FFFFFFFFFFFFFFFFFFFFFFFFFFFFFFFFF4
:101D0000FFFFDEDB3A4B42F06C354B5432B12A2EEA
:101D100021EB21A9196719051104110411041104FB
:101D20001104190510E4004273AFFFFFFFFFFFFF2E
:101D3000FFFFFFFFFFFFFFFFFFFFFFFFFFFFFFFFB3
:101D4000FFFFFFFFFFFFFFFFFFFFFFFFFFFFFFFFA3
:101D5000EF5D3209324C4B10328F2A4F2A2E19CCAC
:101D600019892189194719051104110410C410C4D7
:101D700011041104110410E400428431FFFFFFFF3D
:101D8000FFFFFFFFFFFFFFFFFFFFFFFFFFFFFFFF63
:101D9000FFFFFFFFFFFFFFFFFFFFFFFFFFFFFFFF53
:101DA00052EC1947324C2A0B21EC21EC220C5B91AE
:101DB0004AEE11061926190410E410E429A7216639
:101DC00008A319051104110410E40082BDF7FFFFF8
:101DD000FFFFFFFFFFFFFFFFFFFFFFFFFFFFFFFF13
:101DE000FFFFFFFFFFFFFFFFFFFFFFFFFFFFA53527
:101DF000088321882188218921AA218A426B8C713C
:101E0000FFFF8C720883110408C44229DEFBEF5DDA
:101E10005AEC0883110411041104088331E8FFDF30
:101E2000FFFFFFFFFFFFFFFFFFFFFFFFFFFFFFFFC2
:101E3000FFFFFFFFFFFFFFFFFFFFFFFFF7BE31C701
:101E400010C4192519261947194729A8528A4A2862
:101E5000AD55FFFF31E808A319056B4D6B4DFFFF32
:101E6000EF7D214510C41104110411040062AD7608
:101E7000FFFFFFFFFFFFFFFFFFFFFFFFFFFFFFFF72
:101E8000FFFFFFFFFFFFFFFFFFFFFFFFB5960062B1
:101E9000110419041105190508C44A8BB5B6EF5D84
:101EA000BDF7FFFF6B8E006242295AAA4208FFFF6E
:101EB000FFFF52CC088311041104110408A352AD92
:101EC000FFFFFFFFFFFFFFFFFFFFFFFFFFFFFFFF22
:101ED000FFFFE71CFFFFFFFFFFFFFFFF634E0062F6
:101EE00011041104110410E40062638EFFFFFFFF70
:101EF000FFFFFFFF73CF00019CF3632CB596FFFF3C
:101F0000FFFF5B2D008311041104110410E421670D
:101F1000EF3DFFFFFFFFFFFFFFFFFFFFBDF8B5B77E
:101F2000EF9E52CB94B3FFFFFFFFFFDF31E808A322
:101F3000110411041104110408A34249F7FFF7FF2B
:101F4000FFFFFFFF4A6A00018472FFFFFFFFF7FFF8
:101F5000EFDF3A0908A3110411041104110411055B
:101F6000BE18FFFFFFFFFFFFFFFFFFFF7BF00062D8
:101F700031E831C70041A535FFFFEF5D214610C4B0
:101F8000110411041104110410E408A39D76F7FF55
:101F9000FFFFADB708A308A331C7E79EF7FFF7FF20
:101FA000A57608A310E4110411041104110511050C
:101FB000A535FFFFFFFFFFFFFFFFFFFFDEDB29A7C8
:101FC000008310C410C410C4E71CEF9E110510E478
:101FD0001104110411041104190408C410E56BD193
:101FE0006BD108C5006408A50043322B9D7784B3EC
:101FF000192510C41104110411041104192509260E
:102000009D35FFFFFFFFFFFFFFFFFFFFFFFF73AFE8
:1020100000621904190500825B0D9B8E1062110588
:1020200011041104190410E40085110539C45A8102
:102030007B409C22AC43A4039B837282498218C2DA
:1020400000A400C510E4190411041905194711670B
:102050005AECFFBEFFFFFFFFFFFFFFFFFFDFDEDBEE
:1020600010C410E41104110518A4C001888300E411
:102070001905190408C521448343D523FE42FEE413
:10208000FF27FF07FEA4FE64FE03FDA3FCE2EC4273
:10209000B383622410E508C41904192619A82187FE
:1020A0009000BCD3FFFFFFFFFFFFFFFFFFDFFFFF3D
:1020B0007C100042190511052883D001F84448A37B
:1020C00000E408C55A44ED02FDE2FE02FE66FF741C
:1020D000FFB8FF73F6E7F6A6F645F5A4FCC3FC626D
:1020E000FCC2FCC2CBE349C411061988018790A445
:1020F000F8019AECFFFFFFFFFFFFFFFFFFFFFFFF6D
:10210000F7BE31E8008309054082C001F823F0855D
:1021100048A300A45A44FD02CC23DCC2FE04FE28DE
:10212000F648F646F624F5E4FD64FCE3FC62FCC2E6
:10213000E402DC02FCE27AA40148016778C4F824D6
:10214000F802B084E77DFFFFFFFFFFFFFFFFFFFF07
:10215000FFFFDEDB192500A338C4E002D822F844D3
:10216000F8A678A400632143728339839B82F5210A
:10217000FD61FD22FCE2FCA2FC42FC42FC42AB22DF
:10218000418392C352040126192598A4F844F823E8
:10219000F802D0A4EF9EFFFFFFFFFFFFFFFFFFFF4E
:1021A000FFFFFFFFD69A298700A5B843F822E02356
:1021B000F865F8E8C9074883004200A30084296352
:1021C0007AA2B362CBA2D362BB028A82398300A413
:1021D00000E500E508E560C4D864F844F824F82375
:1021E000F8028883C6DBFFFFFFFFFFFFFFFFFFFF53
:1021F000FFFFFFFFFFFFE73D5B503108E823F84397
:10220000F044F865F909F9ABD189890648A3184269
:10221000000200420061008200620062008320A38D
:1022200050C488A5D885F865F844F844F823F82305
:10223000D003108229C7EF5DFFFFFFFFFFFFFFFF05
:10224000FFFFFFFFFFFFFFFFFFFF326C38A5D80243
:10225000F823F865F866F8A7F94AFA0CFA4DEA4C43
:10226000D20BB9A9B168A947B127B907D107E8E7E7
:10227000F8C7F8A7F865F865F844F823F803D00222
:1022800028A3090508C45AECFFFFFFFFFFFFFFFF6B
:10229000FFFFFFFFFFFFFFFFDEFB190500C441A7A3
:1022A000C0E6F803F886F8A7F887F886F8C7F92992
:1022B000F98AF9ABF9ABF98BF96AF929F908F8C78A
:1022C000F8A6F886F865F864F823F002B106292527
:1022D00000E410E4192519259D14FFFFFFFFFFFFFF
:1022E000FFFFFFFFFFFFFFFFAD96006208829535FD
:1022F000CEBAA28BD044F825F887F8A7F8C7F8A77C
:10230000F887F886F886F886F887F8A7F8A7F8A679
:10231000F885F865F864F024B864930DB6BB63CF14
:102320000883110410E421663A49EF5DFFFFFFFFC7
:10233000FFFFFFFFFFFFFFFF94D3004210E4CEBB7F
:10234000FFFFE7BEB576AACCC107E045F845F846E1
:10235000F866F886F886F886F886F865F845F86530
:10236000E865D044A84388019082D73CEFFF95559B
:102370000883110411041905194694B3FFFFFFFFE8
:10238000FFFFFFFFFFFFFFFF94B300412186DF5DEA
:10239000FFFFFFFFFFFFE7DFC67AB4D3B34EC22AC9
:1023A000D168E0E6E8A6E8A5E8A5D8E6C988A906C8
:1023B000A822A802A000C800D800E5F7E7FFADF802
:1023C00010C410E4110410E411054A8BFFFFFFFF55
:1023D000FFFFFFFFFFFFFFFFA555004129A7DF5DBE
:1023E000F7FFFFFFFFFFFFFFFFFFFFFFEFFFDF7DB7
:1023F000CEDBCE59CDF8CDD7C5F7CE79BEFBA2AB9B
:10240000F003F845D042E843F000D472DFFFAE3964
:1024100010E410E4110410E411052987FFFFFFFF09
:10242000FFFFFFFFFFFFFFFFCE5908832146D71CA8
:10243000F7FFFFFFFFFFFFFFFFFFFFFFFFFFFFFFB4
:10244000FFFFFFFFFFFFFFFFFFFFFFFFEFFFBA8B65
:10245000F804F845E062F044F800DB8EDFFFA5F8F1
:1024600010C410E410E4110410E41925FFFFFFFF6D
:10247000FFFFFFFFFFFFFFFFF7BE29870883B63985
:10248000F7FFF7DFFFFFFFFFFFFFFFFFFFFFFFFF8C
:10249000FFFFFFFFFFFFFFFFFFFFFFFFE7BEBA4A9F
:1024A000F803F845F864F844F800E36ED7FF8CF4BD
:1024B0000883110410E410E410E41905FFFFFFFF86
:1024C000FFFFFFFFFFFFFFFFFFFF73EF00008472BE
:1024D000EFFFEFBEFFDFFFFFFFFFFFFFFFFFFFFF8D
:1024E000FFFFFFFFFFFFFFFFFFFFFFFFE7DFBA8BED
:1024F000F803F845F845F823F800D4D3D7FF5B4E2E
:1025000000213A29A555088310C41925FFFFFFFFB4
:10251000FFFFFFFFFFFFFFFFFFFFDEFB08A331E828
:10252000DF9EE79EEFBFFFFFFFFFFFFFFFFFFFFF05
:10253000FFFFFFFFFFFFFFFFFFFFFFFFF7FFBC51A4
:10254000E002F803F003E043C2ECCF7EBEFC21467C
:10255000002194D3FFFF845100002987FFFFFFFF74
:10256000FFFFFFFFFFFFFFFFFFFFFFFF84510000A2
:102570008CF4EFFFE79EEFBFFFDFFFFFFFFFFFFFE2
:10258000FFFFFFFFFFFFFFFFFFFFFFFFFFFFDF3D3D
:10259000BD55BC52BC72B5B7C75DDFFF6BF0000024
:1025A0003A09F7BFFFFFFFFF9D14A555FFFFFFFF8F
:1025B000FFFFFFFFFFFFFFFFFFFFFFFFFFFF4AAC33
:1025C00008A4BEBBE7DFE77EEFBEF7DFFFDFFFFF5C
:1025D000FFFFFFFFFFFFFFFFFFFFFFFFFFDFF7DF53
:1025E000EFFFDFDFD7BFD79EDFDFA5D80883112637
:1025F000D6DBFFFFFFFFFFFFFFFFFFFFFFFFFFFF38
:10260000FFFFFFFFFFFFFFFFFFFFFFFFEE79DC8B08
:10261000312121A9CF3DDFBFDF7EE79EEFBEEFBFB7
:10262000F7DFF7DFF7DFF7DFF7DFEFBFEFBEE79E9C
:10263000DF7ED75ED75EDFDFB69A19260842A3EDAC
:10264000FFBFFFFFFFFFFFFFFFFFFFFFFFFFFFFFDA
:10265000FFFFFFFFFFFFFFFFFFFFDD74DBC0FE009A
:10266000EE4242022189B67BDFDFD77EDF7EDF7E4E
:10267000E79EE79EE79EE79EE79EDF7EDF7ED75DD3
:10268000D75DDF9EE7FFA5F8110718E3C502FD60DF
:10269000D3E6EEDBFFFFFFFFFFFFFFFFFFFFFFFFC4
:1026A000FFFFFFFFFFFFFFFFF79EBA84FCC1FE4262
:1026B000FE82FEA2838121457474C75EDFDFD77E70
:1026C000D75ED75DD75ED75ED75DD75DD75EDF9E1D
:1026D000E7FFC73D63F108845242E626FF29FE86E4
:1026E000F3E0C36AFFFFFFFFFFFFFFFFFFFFFFFFF6
:1026F000FFFFFFFFFFFFFFFFDE18D2C1FDA2FE229A
:10270000FE42FE42FE62D4E26A4142497453A63B55
:10271000C73ED7BFD7BFD7BFDFBFD7BFC73EA61AF9
:1027200063F229A74182B422FE62FE83FEAAFF0F54
:10273000FD67BA63EF3CFFFFFFFFFFFFFFFFFFFFF7
:10274000FFFFFFFFFFFFFFFFE69AD280FD21FDC2E2
:10275000F5E2F5C2F582FD82FD62DC619B216A84AF
:102760006AE9632C63AF7411636E632C5A89520457
:102770007A81CBC2FCE2FD62FD82FDC2FDC2FDE4B6
:10278000FD24CA62E71CFFFFFFFFFFFFFFFFFFFF03
:10279000FFFFFFFFFFFFFFFFFFFFCCB1D281F3C0C0
:1027A000FCC1FD02FD02FCE2FCC2FCC2FC81FB801C
:1027B000C9C081A4AD35CE599C718121DA00FBA13D
:1027C000FC82FCA2FC82FCA2FD02FD22FCE2FC00D9
:1027D000DA60CC90FFFFFFFFFFFFFFFFFFFFFFFF6F
:1027E000FFFFFFFFFFFFFFFFFFFFFFFFDE59C40DED
:1027F000CB06D2E4DB03DB03DAE3D2C3C2A4B30922
:10280000BCD2F79EFFFFFFFFFFFFE6FBB40EBAA6A8
:10281000D283E2E3EB02EB22E322DB03D2E4C36ADE
:10282000D5B6FFFFFFFFFFFFFFFFFFFF0000000027
:102830000000000000000000000004040404040084
:102840000004000014140A00000000000000000052
:1028500000000A0A1F0A0A1F0A0A000000040E15D7
:1028600005060C14150E0400000012150D152E2C73
:102870002A1200000000040A0A3615152916000065
:10288000020201000000000000000000100808041F
:1028900004040404080810000204040808080808D6
:1028A0000404020000000004150E0E1504000000D0
:1028B00000000008083E08080000000000000000BA
:1028C000000000000202010000000000003F0000C4
:1028D00000000000000000000000000000020000F6
:1028E00000201010080804040202010000000E116C
:1028F00011111111110E000000000406040404045B
:10290000040E000000000E1111080402011F000057
:1029100000000E11100C1010110E00000000080C29
:102920000C0A091F081C000000001F01010F1110F4
:10293000110E000000000C12010D1311110E000009
:1029400000001E10080804040404000000000E111A
:10295000110E1111110E000000000E1111191610A8
:102960000906000000000000040000000004000050
:102970000000000000040000000404000000100833
:102980000402020408100000000000003F003F00A5
:1029900000000000000002040810100804020000FB
:1029A00000000E11110804040004000000001C22A5
:1029B000292D2D1D221C0000000004040C0A0A1EF3
:1029C0001233000000000F12120E1212120F00003C
:1029D00000001E1101010101110E000000000F1284
:1029E00012121212120F000000001F120A0E0A0229
:1029F000121F000000001F120A0E0A020207000048
:102A000000001C1201013911120C000000003312E9
:102A1000121E12121233000000001F0404040404EA
:102A2000041F000000003E080808080808080907FD
:102A3000000037120A060A121237000000000702CF
:102A400002020202223F000000003B1B1B1B151567
:102A50001535000000003B1216161A1A1217000056
:102A600000000E1111111111110E000000000F12C3
:102A7000120E02020207000000000E1111111117C0
:102A8000190E180000000F12120E0A121237000061
:102A900000001E1101060810110F000000001F1594
:102AA00004040404040E0000000033121212121277
:102AB000120C000000003312120A0A0C0404000079
:102AC0000000151515150E0A0A0A000000001B0A61
:102AD0000A04040A0A1B000000001B0A0A0A040474
:102AE000040E000000001F0908040402121F000069
:102AF0001C0404040404040404041C000002020472
:102B000004040808081010000E080808080808083F
:102B100008080E00040A0000000000000000000089
:102B200000000000000000000000003F0204000060
:102B3000000000000000000000000000000C121C5B
:102B4000123C000000030202020E1212120E0000DC
:102B500000000000001C1202120C000000181010EF
:102B6000101C1212123C000000000000000C121E8B
:102B7000021C000000182404041E0404041E0000AB
:102B800000000000003C120C021C221C0003020288
:102B9000020E1212123700000004040000060404A2
:102BA000040E000000080800000C080808080807C8
:102BB00000030202021A0A060A13000000070404B6
:102BC00004040404041F000000000000000F151599
:102BD0001515000000000000000F1212123700004F
:102BE00000000000000C1212120C00000000000097
:102BF000000F1212120E020700000000001C121239
:102C0000121C103800000000001B06020207000022
:102C100000000000001E020C101E00000000000456
:102C2000041E0404041C000000000000001B12121B
:102C3000123C000000000000001B0A0A040400000F
:102C4000000000000015150E0A0A00000000000038
:102C5000001B0A040A1B00000000000000331212CF
:102C60000C08040300000000001E0804041E0000FD
:102C700018080808080C08080808180008080808B8
:102C800008080808080808080604040404080404DE
:102C90000404060016090000000000000000000007
:102CA0000000000000000000000000000000000024
:102CB00000000008080808080808000018180000AC
:102CC00000486C241200000000000000000000001A
:102CD0000000002424247F1212127F12121200001E
:102CE0000000081C2A2A0A0C1828282A2A1C08086E
:102CF00000000022251515152A58545454220000AE
:102D00000000000C1212120A76252911916E0000A3
:102D100000060604030000000000000000000000A0
:102D20000040201010080808080808101020400073
:102D30000002040808101010101010080804020007
:102D40000000000008086B1C1C6B08080000000055
:102D500000000000080808087F08080808000000B4
:102D60000000000000000000000000000606040350
:102D70000000000000000000FE0000000000000055
:102D80000000000000000000000000000606000037
:102D900000008040402020101008080404020200B7
:102DA00000000018244242424242424224180000DD
:102DB000000000080E08080808080808083E00007F
:102DC0000000003C4242422020100804427E0000E5
:102DD0000000003C4242201820404042221C0000DB
:102DE000000000203028242422227E2020780000A9
:102DF0000000007E0202021A26404042221C00000F
:102E0000000000382402021A264242422418000020
:102E10000000007E222210100808080808080000A0
:102E20000000003C4242422418244242423C00003E
:102E3000000000182442424264584040241C000014
:102E40000000000000001818000000001818000022
:102E50000000000000000008000000000008080456
:102E60000000004020100804020408102040000068
:102E70000000000000007F0000007F000000000054
:102E80000000000204081020402010080402000086
:102E90000000003C4242464020101000181800007C
:102EA0000000001C225A555555552D42221C000089
:102EB0000000000808181414243C224242E70000D5
:102EC0000000001F2222221E22424242221F000036
:102ED0000000007C4242010101010142221C00006D
:102EE0000000001F2242424242424242221F000092
:102EF0000000003F4212121E12120242423F000026
:102F00000000003F4212121E1212020202070000CD
:102F10000000003C2222010101712122221C00003C
:102F2000000000E7424242427E42424242E7000045
:102F30000000003E0808080808080808083E0000CD
:102F40000000007C10101010101010101010110F45
:102F50000000007722120A0E0A12122222770000C5
:102F6000000000070202020202020202427F000089
:102F700000000077363636362A2A2A2A2A6B0000C5
:102F8000000000E346464A4A52525262624700003D
:102F90000000001C2241414141414141221C0000EE
:102FA0000000003F424242423E020202020700008D
:102FB0000000001C2241414141414D53321C600040
:102FC0000000003F4242423E1212222242C700004D
:102FD0000000007C4242020418204042423E0000B1
:102FE0000000007F4908080808080808081C0000BD
:102FF000000000E74242424242424242423C00005C
:10300000000000E74242222424141418080800009B
:103010000000006B494949495555362222220000DB
:10302000000000E7422424181818242442E7000076
:10303000000000772222141408080808081C000069
:103040000000007E2120101008040442423F0000CE
:103050000078080808080808080808080808780020
:10306000000002020404080808101020202040403C
:10307000001E1010101010101010101010101E0054
:1030800000384400000000000000000000000000C4
:10309000000000000000000000000000000000FF31
:1030A0000006080000000000000000000000000012
:1030B000000000000000003C4278444242FC000056
:1030C000000000030202021A26424242261A0000B1
:1030D00000000000000000384402020244380000F2
:1030E00000000060404040784442424264D8000002
:1030F000000000000000003C427E0202423C000052
:10310000000000F08808087E08080808083E000053
:10311000000000000000007C22221C023C42423CD5
:10312000000000030202023A4642424242E7000027
:103130000000000C0C00000E08080808083E000003
:103140000000003030000038202020202020221EE7
:103150000000000302020272120A16122277000017
:103160000000000E0808080808080808083E0000CB
:10317000000000000000007F9292929292B700003F
:10318000000000000000003B4642424242E70000CF
:10319000000000000000003C42424242423C00006D
:1031A000000000000000001B26424242221E0207CF
:1031B000000000000000007844424242447840E0B1
:1031C00000000000000000774C040404041F00000D
:1031D000000000000000007C42023C40423E000033
:1031E000000000000008083E080808080830000039
:1031F00000000000000000634242424262DC000026
:1032000000000000000000E7422424140808000029
:1032100000000000000000EB494955552222000043
:10322000000000000000007624181818246E00002A
:1032300000000000000000E74224241418080807DA
:10324000000000000000007E22100808447E0000FC
:1032500000C0202020202010202020202020C0007E
:10326000101010101010101010101010101010105E
:1032700000060808080808100808080808080600DA
:103280000C32C2000000000000000000000000003E
:10329000000000000000000000000000000000002E
:1032A000000000000000000000000000000000001E
:1032B000000000000000000000000000000000000E
:1032C000000000000000000060006000600060007E
:1032D000600060006000400020002000200000002E
:1032E00000000000600060006000000000000000BE
:1032F000000000006006600630039801880044006A
:1033000000000000000000000000000000000000BD
:1033100000000000000000000000000000000000AD
:103320000000000000000000100210021002100255
:10333000FE07FE0708020801080108010801FE0750
:10334000FE07040104010401040100000000000064
:1033500000000000000040004000F00158034C0352
:10336000CC034C0058007000E000C001C0014003D5
:103370004C035C034C034801F00040004000000097
:1033800000000000000000000E010A019100910001
:103390009100510051003A00AE03A00250045004C5
:1033A000480448044804840284030000000000002C
:1033B000000000000000000038006C006C006C0091
:1033C0006C006C002C0098071C011A0133013301BA
:1033D0006301E300C308C6093C07000000000000C9
:1033E000000000000C001C00100010000800040089
:1033F00000000000000000000000000000000000CD
:1034000000000000000000000000000000000000BC
:103410000000000000040002000180008000400065
:10342000400020002000200020002000200020007C
:103430004000400080008000000100020004000005
:10344000000000000200040008001000100020002E
:10345000200040004000400040004000400040008C
:1034600020002000100010000800040002000000EE
:103470000000000000000000000000004000C0004C
:103480004000460C4E0FD001F0015E0F460C40008C
:1034900040004000000000000000000000000000AC
:1034A00000000000000000000000000000004000DC
:1034B0004000400040004000FE0F4000400040003F
:1034C000400040000000000000000000000000007C
:1034D00000000000000000000000000000000000EC
:1034E00000000000000000000000000000000000DC
:1034F000000000000C001C00100010000800040078
:1035000000000000000000000000000000000000BB
:103510000000000000000000FE07000000000000A6
:10352000000000000000000000000000000000009B
:10353000000000000000000000000000000000008B
:10354000000000000000000000000000000000007B
:10355000000000001C001C001C0000000000000017
:10356000000000000004000600020003000100014A
:10357000800080004000400060002000200010001B
:103580001000080008000C00040006000200000003
:1035900000000000000000000000F00098010C0393
:1035A0000C030606060606060606060606060606B8
:1035B00006060C030C039801F00000000000000058
:1035C0000000000000000000000040007C006000DF
:1035D00060006000600060006000600060006000EB
:1035E0006000600060006000FC030000000000005C
:1035F00000000000000000000000F8008401020349
:1036000006030603000300018001C00060002000E3
:103610001000080204020602FE0300000000000081
:10362000000000000000000000007800C6008601D5
:10363000860180018001C00070008001000100034C
:103640000003060306038601F800000000000000E6
:103650000000000000000000000080018001C001A7
:10366000A001A00190018801880184018201FE0F60
:103670008001800180018001E0070000000000005F
:1036800000000000000000000000FC030400040033
:10369000040004000400F4008C0104030003000390
:1036A0000603060382018401F80000000000000008
:1036B00000000000000000000000E00118030C03FF
:1036C0000C0004000600E60116030E0606060606B8
:1036D000060604060C021803F000000000000000BB
:1036E00000000000000000000000F8070C060402C3
:1036F0000401000100018000800040004000400003
:1037000060006000600060006000000000000000D9
:1037100000000000000000000000F8010C03060695
:10372000060606060C021C03F000C8010C03060680
:103730000606060606060C03F00100000000000065
:1037400000000000000000000000F0000C010C036D
:10375000060206060606060606078C06780600061A
:10376000000300030C018C01780000000000000041
:103770000000000000000000000000000000000049
:1037800000000000E000E000E00000000000000099
:1037900000000000E000E000E00000000000000089
:1037A0000000000000000000000000000000000019
:1037B0000000000060006000000000000000000049
:1037C00000000000000060006000400020002000B9
:1037D0000000000000000000000400020001800062
:1037E0004000200010000800040008001000200025
:1037F0004000800000010002000400000000000002
:1038000000000000000000000000000000000000B8
:1038100000000000FE07000000000000FE0700009E
:103820000000000000000000000000000000000098
:10383000000000000000000004000800100020004C
:10384000400080000001000200040002000180002E
:1038500040002000100008000400000000000000EC
:1038600000000000000000000000E0031806040C47
:10387000040C0C0C0C0C00078001400040004000C0
:1038800000000000E000E000E00000000000000098
:103890000000000000000000E00018030C02CC054E
:1038A00064056605A605B604B604B604B604B602F9
:1038B000E4010C040C021803F000000000000000FA
:1038C00000000000000000000000600060005000E8
:1038D000D00090009000880088010801F8010403DE
:1038E00004030402020202060F0F000000000000A1
:1038F00000000000000000000000FE008C030C032C
:103900000C030C030C038C01FC000C030C020C06D2
:103910000C060C060C060C03FE0100000000000063
:1039200000000000000000000000E00318030C0687
:103930000C0404040600060006000600060006004B
:1039400006040C040C021803F00000000000000044
:10395000000000000000000000007F008C010C034C
:103960000C030C060C060C060C060C060C060C06CA
:103970000C060C030C038C017F000000000000000B
:1039800000000000000000000000FF030603060422
:103990000604060086008600FE008600860086007B
:1039A0000600060406040602FF03000000000000F3
:1039B00000000000000000000000FF0306030604F2
:1039C0000604060086008600FE008600860086004B
:1039D00006000600060006001F00000000000000B0
:1039E00000000000000000000000F00018010C02C0
:1039F0000C0204020600060006000600C60F0603BD
:103A000006030C030C031803F00000000000000084
:103A1000000000000000000000000F0F0606060670
:103A20000606060606060606FE070606060606063D
:103A300006060606060606060F0F00000000000038
:103A400000000000000000000000FC0360006000B7
:103A50006000600060006000600060006000600066
:103A60006000600060006000FC03000000000000D7
:103A700000000000000000000000F807C000C000C7
:103A8000C000C000C000C000C000C000C000C00036
:103A9000C000C000C000C000C000C60066003C00FE
:103AA00000000000000000000000CF038601C600F7
:103AB00046002600160036002E006E004600C600A6
:103AC00086008601060106038F0700000000000043
:103AD000000000000000000000001F0006000600BB
:103AE00006000600060006000600060006000600A6
:103AF0000600060406040602FF03000000000000A2
:103B00000000000000000000000007078603860395
:103B10008E038E034E034E034A035A035A033A039D
:103B20003203320332031203870700000000000053
:103B3000000000000000000000008E0F0C021C02BC
:103B40001C0234023402640264024402C40284028D
:103B500084038403040304031F0200000000000028
:103B600000000000000000000000F00098010C03BD
:103B70000C020606060606060606060606060606E3
:103B800006060C020C039801F00000000000000083
:103B900000000000000000000000FF000603060611
:103BA00006060606060606068603FE000600060052
:103BB00006000600060006001F00000000000000CE
:103BC00000000000000000000000F00098010C035D
:103BD0000C02060606060606060606060606060683
:103BE00076064C02CC039801F00080070003000029
:103BF00000000000000000000000FF0106030606B0
:103C00000606060606060603FE004600C6008600F7
:103C100086010603060306060F0E000000000000E2
:103C200000000000000000000000F8020C03060283
:103C3000060206000E003C00F800E00380030007C7
:103C40000206020606060C03F00100000000000058
:103C500000000000000000000000FE076204610890
:103C6000610860006000600060006000600060004B
:103C70006000600060006000F801000000000000CB
:103C8000000000000000000000001E070C020C02F3
:103C90000C020C020C020C020C020C020C020C02B4
:103CA0000C020C020C021801F000000000000000E1
:103CB000000000000000000000000F0706020401E1
:103CC00004010C010C018800880098009800500045
:103CD00050007000300020002000000000000000B4
:103CE00000000000000000000000F70E6204420423
:103CF0004604460464026402E402E4029C029C015D
:103D000098019801880188008800000000000000E8
:103D1000000000000000000000009E070C010801E8
:103D200018019000B0006000200060006000D0002A
:103D300090008801080104038E07000000000000C5
:103D4000000000000000000000000F0F0604040245
:103D50000C0208011801B800B0007000600060009B
:103D60006000600060006000F801000000000000DA
:103D700000000000000000000000FC070C02060329
:103D8000020180018000400040002000200010005F
:103D9000180008040C040402FE03000000000000E8
:103DA00000000000E0032000200020002000200090
:103DB0002000200020002000200020002000200003
:103DC000200020002000200020002000E003000050
:103DD00000000000000000000400040008000800CB
:103DE0001000100010002000200040004000C00023
:103DF00080008000000100010002000200020004B7
:103E0000000000007C0040004000400040004000F6
:103E100040004000400040004000400040004000A2
:103E20004000400040004000400040007C00000096
:103E30000000600090000801000000000000000089
:103E40000000000000000000000000000000000072
:103E50000000000000000000000000000000000062
:103E60000000000000000000000000000000000052
:103E70000000000000000000000000000000000042
:103E80000000000000000000000000000000FF0F24
:103E900000000000180060000000000000000000AA
:103EA0000000000000000000000000000000000012
:103EB0000000000000000000000000000000000002
:103EC00000000000000000000000000000000000F2
:103ED00000000000F0010C030C030003E0031C03CE
:103EE0000E03060306038E0B7C0E0000000000008C
:103EF000000000000000000008000E000C000C0094
:103F00000C000C00CC013C031C060C060C060C0635
:103F10000C060C060C021C03E4010000000000006B
:103F20000000000000000000000000000000000091
:103F300000000000F0008C018C01860106000600E4
:103F4000060006020C020C01F00000000000000058
:103F500000000000000000000002C0030003000396
:103F60000003000378038C030C0306030603060317
:103F70000603060304038C0778010000000000001C
:103F80000000000000000000000000000000000031
:103F900000000000E001180308020C060C06FC07F4
:103FA0000C000C0018041802E001000000000000E2
:103FB00000000000000000000000C00360063006A2
:103FC00030003000FE0130003000300030003000A2
:103FD0003000300030003000FC0100000000000024
:103FE00000000000000000000000000000000000D1
:103FF00000000000F007D8068C018C018C019801AC
:10400000F8000C00FC00CC03060306038E03F80046
:10401000000000000000000008000E000C000C0072
:104020000C000C00EC011C030C030C030C030C0330
:104030000C030C030C030C039E070000000000009F
:1040400000000000000000000000600060000000B0
:10405000000040007C0060006000600060006000C4
:104060006000600060006000FC03000000000000D1
:1040700000000000000000000000C001C0010000BE
:1040800000000001F00180018001800180018001B9
:10409000800180018001800180018001CC007C00D2
:1040A000000000000000000008000E000C000C00E2
:1040B0000C000C008C038C008C004C006C005C002D
:1040C0008C008C010C010C039E0700000000000016
:1040D000000000000000000040007C006000600064
:1040E00060006000600060006000600060006000D0
:1040F0006000600060006000FC0300000000000041
:1041000000000000000000000000000000000000AF
:10411000000000003707EE066606660666066606BD
:104120006606660666066606FF0F000000000000D1
:10413000000000000000000000000000000000007F
:1041400000000000EE011C030C030C030C030C0325
:104150000C030C030C030C039E070000000000007E
:10416000000000000000000000000000000000004F
:1041700000000000F00098010C0306060606060683
:10418000060606060C030C03F00000000000000009
:10419000000000000000000000000000000000001F
:1041A00000000000EE011C030C060C060C060C06B9
:1041B0000C060C060C031C03EC010C000C003E006A
:1041C00000000000000000000000000000000000EF
:1041D0000000000078028C030C03060306030603AC
:1041E0000603060304038C03780300030003C007DF
:1041F00000000000000000000000000000000000BF
:10420000000000009F035806380618001800180028
:104210001800180018001800FF000000000000003F
:10422000000000000000000000000000000000008E
:1042300000000000F0031C030C020C023800F00028
:10424000C003040304038C03FC0100000000000011
:10425000000000000000000000000000200020001E
:1042600030003000FE0130003000300030003000FF
:104270003000300030023002E00100000000000099
:10428000000000000000000000000000000000002E
:10429000000008028E030C030C030C030C030C0338
:1042A0000C030C030C039C077801000000000000C5
:1042B00000000000000000000000000000000000FE
:1042C000000000001E070C02080108011801900000
:1042D000B000B0006000600020000000000000009E
:1042E00000000000000000000000000000000000CE
:1042F00000000000F70E6204460464026402EC024F
:104300009C0198019801980108000000000000003D
:10431000000000000000000000000000000000009D
:1043200000000000BC0718011001B0006000600030
:10433000E0009000080108039E0700000000000054
:10434000000000000000000000000000000000006D
:10435000000000009E07080108010801900090007D
:10436000B0006000600060002000200024001C00FD
:10437000000000000000000000000000000000003D
:1043800000000000FC018401C40044006000200023
:104390003000180208020C03FC01000000000000BD
:1043A000000000000003800080008000800080008A
:1043B00080008000800040002000400080008000DD
:1043C00080008000800080008000800000030000EA
:1043D00040004000400040004000400040004000DD
:1043E00040004000400040004000400040004000CD
:1043F00040004000400040004000400040004000BD
:10440000000000000C001000100010001000100050
:1044100010001000100020004000200010001000CC
:104420001000100010001000100010000C00000020
:1044300000001C002204C2048003000000000000F1
:10444000000000000000000000000000000000006C
:10445000000000000000000000000000000000005C
:10446000000000000000000000000000000000004C
:10447000000000000000000000000000000000003C
:10448000000000000000000000000000000000002C
:10449000000000000000000000000000000000001C
:1044A00000000000000000000000C001C001C001C9
:1044B000C001C001C001C0018000800080008000F8
:1044C00080008000800000000000000000008001EB
:1044D000C003C003800100000000000000000000D5
:1044E000000000000000E01CE01CF01E700E380709
:1044F0001803080184000000000000000000000014
:1045000000000000000000000000000000000000AB
:10451000000000000000000000000000000000009B
:10452000000000000000000000000000201020102B
:10453000201020102010FE7FFE7F100810081008A9
:104540001008100810081008FE7FFE7F08040804F9
:104550000804080408040000000000000000000037
:10456000000000000000000000010001C007601909
:10457000103118311839183938017001E001C003C1
:104580008007000F001D003900311C311C310C3137
:104590000C11180DE00700010001000100000000EF
:1045A0000000000000000000000000001C10361891
:1045B0006308630C63046304630263026301361DD2
:1045C0009C378022806340634063206320633063B4
:1045D00010221836081C0000000000000000000037
:1045E000000000000000000000000000F000980142
:1045F0008C018C018C018C018C00CC007800183E61
:104600001C083608320863046304C304C3038343ED
:1046100006438E26781C0000000000000000000009
:104620000000000000001C003C003C003000300096
:1046300010000C0006000000000000000000000058
:10464000000000000000000000000000000000006A
:10465000000000000000000000000000000000005A
:104660000000000000000040002000100008000CC6
:1046700000040006000300030003800180018001A4
:10468000800180018001800180010003000300039C
:1046900000060006000C000800100020004000008A
:1046A00000000000000002000400080010003000BC
:1046B00020006000C000C000C000800180018001B7
:1046C00080018001800180018001C000C000C00025
:1046D00060006000300010000800040002000000CC
:1046E00000000000000000000000000000000000CA
:1046F00000018003800300011C713C79783DC007F4
:104700000001C007783D3C791C71000180038003E3
:104710008001000000000000000000000000000018
:104720000000000000000000000000000000000089
:104730000000000100010001000100010001000172
:10474000FC7F0001000100010001000100010001E7
:104750000000000000000000000000000000000059
:104760000000000000000000000000000000000049
:104770000000000000000000000000000000000039
:104780000000000000000000000000000000000029
:104790001C003C003C003000300010000C00060003
:1047A0000000000000000000000000000000000009
:1047B00000000000000000000000000000000000F9
:1047C000FE7F00000000000000000000000000006C
:1047D00000000000000000000000000000000000D9
:1047E00000000000000000000000000000000000C9
:1047F00000000000000000000000000000000000B9
:104800000000000000000000000000000000180090
:104810003C003C0018000000000000000000000008
:104820000000000000000040006000200030001088
:1048300000180008000C000400060002000300013C
:1048400080018000C00040006000200030001000A7
:10485000180008000C000400060002000000000020
:10486000000000000000000000000000C007600C15
:1048700030181830183018200C600C600C600C6078
:104880000C600C600C600C600C6018201830183044
:104890003018600CC007000000000000000000009D
:1048A0000000000000000000000000000001800186
:1048B000F801800180018001800180018001800178
:1048C00080018001800180018001800180018001E0
:1048D0008001C003F81F000000000000000000007D
:1048E000000000000000000000000000E007101CB5
:1048F0000818043004300C300C3000300018000868
:104900000004000200018000400020201020082048
:104910000430FC1FFC1F000000000000000000002D
:10492000000000000000000000000000E003180E7E
:104930000C0C0C180C180C180018000C0006C00306
:10494000000E00180010003000300C300C300C103D
:104950000C18180CE003000000000000000000002C
:10496000000000000000000000000000000C000E2D
:10497000000E000F800E800E400E600E200E100EF6
:10498000100E080E040E040EFE7F000E000E000E28
:10499000000E000E000EC07F0000000000000000AE
:1049A000000000000000000000000000F03FF03FA9
:1049B00010001000100008000800C807280C181884
:1049C000081000300030003000300C300C3004187B
:1049D0000418080CF00300000000000000000000B4
:1049E000000000000000000000000000800FC01068
:1049F000203010301800180008000C008C0F6C18C4
:104A00003C301C600C600C600C600C60186018205E
:104A100030306018C00700000000000000000000F7
:104A2000000000000000000000000000F83FF83F18
:104A30001C100C0804080404000400020002000119
:104A400000010001800080008000C000C000C000A4
:104A5000C000C000C0000000000000000000000016
:104A6000000000000000000000000000E007300C23
:104A700018180C300C300C301C3038187008E00757
:104A8000B007180E0C1C063806300630063006300B
:104A90000C18180CE00300000000000000000000EB
:104AA000000000000000000000000000E003180407
:104AB0000C080C1806100630063006300630063892
:104AC0000C3C1836F03100300018001800180C0C9F
:104AD0000C060C03F00100000000000000000000C4
:104AE00000000000000000000000000000000000C6
:104AF000000000000000000000008001C003C003AF
:104B000080010000000000000000000000008001A3
:104B1000C003C0038001000000000000000000008E
:104B20000000000000000000000000000000000085
:104B300000000000000000000000C000C0000000F5
:104B40000000000000000000000000000000000065
:104B50000000C000C0008000800040004000000055
:104B6000000000000000000000000020001000080D
:104B70000004000600038001C0006000300018003F
:104B80000C00180030006000C00080010003000627
:104B900000040008001000200000000000000000D9
:104BA0000000000000000000000000000000000005
:104BB00000000000000000000000FE7F0000000078
:104BC000000000000000FE7F000000000000000068
:104BD00000000000000000000000000000000000D5
:104BE00000000000000000000000040008001000A9
:104BF00020006000C000800100030006000C0018C7
:104C000000300018000C000600038001C0006000A6
:104C10002000100008000400000000000000000058
:104C200000000000000000000000C007301808303D
:104C300008600C601C601C601C600030001C0006DA
:104C400000018000800080008000000000008001E2
:104C5000C003C0038001000000000000000000004D
:104C6000000000000000000000000000C007601805
:104C7000103018200C2F8C4D864CC64CC64C664C00
:104C800066446644662666266615CC1C0C400820E1
:104C900018303018C00700000000000000000000BD
:104CA000000000000000000000000001C001C00181
:104CB000C0014001600320032003200330061006DA
:104CC00010061006F80F080C080C080C0C0C041841
:104CD000041806181F7C00000000000000000000FF
:104CE000000000000000000000000000FE07181C8B
:104CF000183818301830183018301818180CF807F1
:104D0000181818301820186018601860186018609B
:104D100018301818FE0F000000000000000000000E
:104D2000000000000000000000000000C027603804
:104D3000103018200C400C4004000600060006004D
:104D4000060006000600060006000C400C400C2081
:104D500018303018C00700000000000000000000FC
:104D6000000000000000000000000000FE03180E1C
:104D7000181818301830183018601860186018604B
:104D80001860186018601860186018301830181013
:104D90001818180EFE0300000000000000000000BC
:104DA000000000000000000000000000FE3F18307E
:104DB000182018601840180018081808180CF80F68
:104DC000180C180818081800180018001840184087
:104DD00018201830FE3F0000000000000000000016
:104DE000000000000000000000000000FE7F1870BE
:104DF000184018C018801800181018101818F81F3C
:104E000018181810181018001800180018001800AA
:104E1000180018007E0000000000000000000000E4
:104E2000000000000000000000000000C013701C23
:104E3000101018100C200C200400060006000600BC
:104E40000600060006FC063006300C300C30183028
:104E500018303008C007000000000000000000000B
:104E60000000000000000000000000003F7E0C1861
:104E70000C180C180C180C180C180C180C180C1812
:104E8000FC1F0C180C180C180C180C180C180C180B
:104E90000C180C183F7E000000000000000000000D
:104EA000000000000000000000000000F81F80016A
:104EB00080018001800180018001800180018001EA
:104EC00080018001800180018001800180018001DA
:104ED00080018001F81F00000000000000000000B9
:104EE000000000000000000000000000E07F00065D
:104EF0000006000600060006000600060006000682
:104F00000006000600060006000600060006000671
:104F100000060006000600060E060E038E01FC00C9
:104F20000000000000000000000000007E7C181857
:104F30001808180418061802180198019801D801D9
:104F4000B803380318071806180E180C181C181880
:104F5000183018307EFC0000000000000000000047
:104F60000000000000000000000000007E001800AB
:104F70001800180018001800180018001800180071
:104F800018001800180018001800180018401840E1
:104F900018201830FE3F0000000000000000000054
:104FA0000000000000000000000000001FF81C3896
:104FB0001C381C381C3C34343434343434367432A9
:104FC0006432643264326431C431C431C431C430B7
:104FD000C43084309FFC000000000000000000008E
:104FE0000000000000000000000000001F7C1C10FA
:104FF0003C103410341074106410E410C410C41148
:1050000084118413041304170416041E041C041CC6
:10501000041C04181F18000000000000000000001D
:10502000000000000000000000000000C003300C81
:10503000181808100C300C30066006600660066018
:10504000066006600660066006600C200C300810E2
:105050001818300CC0030000000000000000000021
:10506000000000000000000000000000FE0F181803
:105070001830186018601860186018601830181818
:10508000F80F180018001800180018001800180071
:10509000180018007E000000000000000000000062
:1050A000000000000000000000000000C003300C01
:1050B00018180C100C300C200660066006600660A4
:1050C00006600660066006600660E4612C331C32F0
:1050D0001816300EC007004C007C0038000000009D
:1050E000000000000000000000000000FE07181C87
:1050F000183818301830183018301818180CF807ED
:1051000098031803180718061806180E180C180C20
:10511000181C18187E780000000000000000000035
:10512000000000000000000000000000E027303810
:1051300018300C200C200C000C0018007800E00344
:10514000800F001E0038007000600460046008607A
:1051500018303818C80F00000000000000000000E0
:10516000000000000000000000000000FC3F8C2157
:10517000846182418241800180018001800180013F
:105180008001800180018001800180018001800117
:1051900080018001E0070000000000000000000026
:1051A0000000000000000000000000003F7C0C1028
:1051B0000C100C100C100C100C100C100C100C100F
:1051C0000C100C100C100C100C100C100C100C10FF
:1051D00008083804E00300000000000000000000A0
:1051E0000000000000000000000000003EF8182051
:1051F000182018203010301030103010600860086F
:105200006008E00CC004C004C00480038003800375
:105210008003000100010000000000000000000009
:10522000000000000000000000000000DFF38661C5
:10523000862186218C210C218C238C138C138C13BA
:105240004C1358125816580E380E380E380E300CB3
:105250001004100410040000000000000000000012
:105260000000000000000000000000007E3E180862
:1052700038083004300470026002E001C001C0014F
:10528000800180034003400720062006100C100C0C
:10529000081808183E7C0000000000000000000014
:1052A0000000000000000000000000007E7C1C10D8
:1052B000181018083008300C700460046002C00236
:1052C000C002C00180018001800180018001800155
:1052D00080018001E00700000000000000000000E5
:1052E000000000000000000000000000F83F181857
:1052F0000818040C040E0006000700038003800158
:10530000C001C000E00060007000300038201820AC
:105310001C100C18FE1F0000000000000000000020
:10532000000000000000C03F40004000400040007E
:10533000400040004000400040004000400040006D
:10534000400040004000400040004000400040005D
:1053500040004000400040004000C03F000000000E
:105360000000000000000000000008001800180005
:10537000100030002000600060004000C00080008D
:105380008001800100010003000200060006000405
:10539000000C000800180018001000300020000069
:1053A000000000000000FC030002000200020002F6
:1053B00000020002000200020002000200020002DD
:1053C00000020002000200020002000200020002CD
:1053D00000020002000200020002FC0300000000C4
:1053E0000000000000008007C00620081010000028
:1053F00000000000000000000000000000000000AD
:10540000000000000000000000000000000000009C
:10541000000000000000000000000000000000008C
:10542000000000000000000000000000000000007C
:10543000000000000000000000000000000000006C
:10544000000000000000000000000000000000005C
:105450000000000000000000000000000000FFFF4E
:105460000000000000007800C00000010000000003
:10547000000000000000000000000000000000002C
:10548000000000000000000000000000000000001C
:10549000000000000000000000000000000000000C
:1054A00000000000000000000000000000000000FC
:1054B00000000000000000000000F00318060C0CC3
:1054C0000C0C000C800F700C1C0C0C0C060C060C49
:1054D000064C0C4FF83800000000000000000000EF
:1054E0000000000000000000000010001E00180076
:1054F00018001800180018001800180FD8183830B5
:1055000038601860186018601860186018601820FB
:1055100038307818C80700000000000000000000C4
:10552000000000000000000000000000000000007B
:1055300000000000000000000000C007700C1818F8
:1055400018180C180C000C000C000C000C20182073
:1055500018103008C0070000000000000000000024
:10556000000000000000000000000010001E0018F5
:1055700000180018001800180018E01B301C18183C
:1055800018180C180C180C180C180C180C180818F3
:10559000181C307AE0090000000000000000000044
:1055A00000000000000000000000000000000000FB
:1055B00000000000000000000000C007300C1818B8
:1055C00008100C300C30FC3F0C000C000C001820B4
:1055D00018107018C0070000000000000000000054
:1055E000000000000000000000000000003E80C33A
:1055F00080C0C0C0C000C000C000FC1FC000C00010
:10560000C000C000C000C000C000C000C000C0009A
:10561000C000C000F80F0000000000000000000003
:10562000000000000000000000000000000000007A
:1056300000000000000000000000C077306C10186F
:105640001818181818181018300CF007180018003F
:10565000F00FF03F08700C600C600C603838E00F01
:105660000000000000000000000010001E001800F4
:1056700018001800180018001800980FD8183830B3
:1056800018301830183018301830183018301830DA
:10569000183018307EFC0000000000000000000000
:1056A00000000000000000000000000080038003F4
:1056B00080030000000000000001F801800180016B
:1056C00080018001800180018001800180018001D2
:1056D00080018001F81F00000000000000000000B1
:1056E000000000000000000000000000003800384A
:1056F00000380000000000000010801F0018001893
:1057000000180018001800180018001800180018D9
:1057100000180018001800180018180C1806F003DC
:105720000000000000000000000010001E00180033
:1057300018001800180018001800183E180C180659
:10574000180318019801D801380318071806180C17
:10575000181C18187E7C00000000000000000000EB
:10576000000000000000000000000001F8018001BE
:105770008001800180018001800180018001800121
:105780008001800180018001800180018001800111
:1057900080018001F81F00000000000000000000F0
:1057A00000000000000000000000000000000000F9
:1057B00000000000000000000800EE1C9C338C314B
:1057C0008C318C318C318C318C318C318C318C31F1
:1057D0008C318C31DE7B00000000000000000000F6
:1057E00000000000000000000000000000000000B9
:1057F000000000000000000010001E0FD818383014
:105800001830183018301830183018301830183058
:10581000183018307EFC000000000000000000007E
:105820000000000000000000000000000000000078
:1058300000000000000000000000C007701C1030D5
:1058400018300C600C600C600C600C600C60183040
:1058500018303018C00700000000000000000000F1
:105860000000000000000000000000000000000038
:10587000000000000000000010009E0F5818383093
:1058800018201860186018601860186018601830C8
:1058900038307818980718001800180018007E0093
:1058A00000000000000000000000000000000000F8
:1058B00000000000000000000000C023303C183849
:1058C00018300C300C300C300C300C300C300830F0
:1058D0001838303CE033003000300030003000FC3D
:1058E00000000000000000000000000000000000B8
:1058F000000000000000000060007E3C6066606107
:10590000E000E00060006000600060006000600097
:1059100060006000FE0700000000000000000000C2
:105920000000000000000000000000000000000077
:1059300000000000000000000000E02730381830B0
:10594000182018007000E003800F001C04300430A1
:105950000C301C18EC0F00000000000000000000DC
:105960000000000000000000000000000000000037
:10597000800080008000C000E000FC1FC000C0006C
:10598000C000C000C000C000C000C000C000C020F7
:10599000C0208011000F0000000000000000000087
:1059A00000000000000000000000000000000000F7
:1059B000000000000000000010201E3C18301830CD
:1059C0001830183018301830183018301830183097
:1059D000183830F4E0130000000000000000000060
:1059E00000000000000000000000000000000000B7
:1059F000000000000000000000007E3C181818089D
:105A0000380830043004700260026002E001C00116
:105A1000C001C00080000000000000000000000085
:105A20000000000000000000000000000000000076
:105A300000000000000000000000DFF78E630C2370
:105A40008C238C239813981358165816700E700ECA
:105A5000700E200420040000000000000000000080
:105A60000000000000000000000000000000000036
:105A700000000000000000000000FC3E7008700400
:105A8000E004C002C0018003800340076006200CD0
:105A9000100C18183E7E00000000000000000000FE
:105AA00000000000000000000000000000000000F6
:105AB000000000000000000000007E7C181818089C
:105AC00030083008300460046004C002C002C00224
:105AD0008001800180018000800080004C003C003B
