:020000040800F2
:1000000030A70020CD010008491100087910000830
:1000100045110008D3020008311400080000000058
:10002000000000000000000000000000791100083E
:10003000D7020008000000004D1100087B110008E5
:10004000E7010008E7010008E7010008E7010008F0
:10005000E7010008E7010008E7010008E7010008E0
:10006000E7010008E7010008E7010008E7010008D0
:10007000E7010008E7010008E7010008E7010008C0
:10008000E7010008E7010008E7010008E7010008B0
:10009000E7010008E7010008E7010008E7010008A0
:1000A000E7010008E7010008E7010008E701000890
:1000B000E7010008E7010008E7010008E701000880
:1000C000E7010008E7010008E7010008E701000870
:1000D000E7010008ED120008E7010008FD12000822
:1000E000E7010008E7010008E7010008E701000850
:1000F000E7010008E7010008E7010008E701000840
:10010000E7010008E7010008E7010008E70100082F
:10011000E7010008E7010008E7010008E70100081F
:10012000E7010008E7010008E7010008E70100080F
:1001300000F002F800F03AF80AA090E8000C8244BF
:100140008344AAF10107DA4501D100F02FF8AFF29C
:10015000090EBAE80F0013F0010F18BFFB1A43F0A5
:10016000010318477416000094160000103A24BFCB
:1001700078C878C1FAD8520724BF30C830C144BF0C
:1001800004680C607047000000230024002500264E
:10019000103A28BF78C1FBD8520728BF30C148BFEA
:1001A0000B6070471FB51FBD10B510BD00F058F8AB
:1001B0001146FFF7F7FF01F0BDF900F076F803B440
:1001C000FFF7F2FF03BC00F07DF80000094880470C
:1001D00009480047FEE7FEE7FEE7FEE7FEE7FEE729
:1001E000FEE7FEE7FEE7FEE704480549054A064B41
:1001F00070470000ED1100083101000830A1002017
:1002000030A7002030A3002030A300204FF00002D0
:1002100000B5134694469646203922BFA0E80C50FC
:10022000A0E80C50B1F12001BFF4F7AF090728BFD7
:10023000A0E80C5048BF0CC05DF804EB890028BF53
:1002400040F8042B08BF704748BF20F8022B11F07C
:10025000804F18BF00F8012B7047704770477047F8
:10026000754600F02BF8AE4605006946534620F06F
:100270000700854618B020B5FFF7B6FFBDE820405F
:100280004FF000064FF000074FF000084FF0000B52
:1002900021F00701AC46ACE8C009ACE8C009ACE805
:1002A000C009ACE8C0098D46704710B50446AFF3ED
:1002B00000802046BDE81040FFF781BF004870472E
:1002C000CCA0002001491820ABBEFEE726000200AA
:1002D000704700BFFEE7704772B600BFFEE7000040
:1002E0002DE9F847024600239C467BE14FF00108C8
:1002F00008FA03F4D1F8008008EA0400A0427DD196
:10030000DFF8F4A2D1F80480A8EB0A09D0453AD06E
:1003100014DCB8F1030F50D009DCB8F1000F31D074
:10032000B8F1010F1CD0B8F1020F49D120E0B8F1AB
:10033000110F18D0B8F1120F42D11EE0B9F5881F85
:1003400025D006DCB9F5803F20D0B9F5801F37D124
:100350001AE0B9F5001F18D0B9F5041F30D117E025
:10036000D1F80CC02DE0D1F80C8008F1040C28E085
:10037000D1F80C8008F1080C23E0D1F80C8008F1CA
:100380000C0C1EE000BF00BF00BF00BF00BF00BFDD
:10039000D1F80880B8F1000F02D14FF0040C0BE047
:1003A000D1F80880B8F1010F03D14FF0080C1461A7
:1003B00002E04FF0080C546103E04FF0000C00E045
:1003C00000BF00BFFF2801D8904601E002F10408F9
:1003D0004646FF2802D84FEA830803E0A3F1080845
:1003E0004FEA88084746D6F800804FF00F0909FA0F
:1003F00007F928EA09080CFA07F900E07AE048EA68
:100400000908C6F80080D1F8048008F08058B8F1D7
:10041000805F6FD100BFDFF8E481D8F8188048F022
:100420000108DFF8D891C9F81880C846D8F81880B4
:1004300008F00108CDF8008000BF00BF4FEAB938CE
:100440004FEA930958F829504FEA83784FEA187910
:100450004FF00F0808FA09F825EA0805DFF8A0812F
:10046000424502D14FF0000824E0DFF89881424570
:1004700002D14FF001081DE0DFF88C81424502D126
:100480004FF0020816E0DFF88481424502D14FF0B8
:1004900003080FE0DFF87881424502D14FF00408ED
:1004A00008E0DFF87081424502D14FF0050801E015
:1004B0004FF006084FEA83794FEA197908FA09F8EC
:1004C00048EA0505DFF850814FEA930948F82950BA
:1004D000D1F8048008F48038B8F5803F0BD1DFF8FC
:1004E0003C81D8F8008048EA0008DFF83091C9F86C
:1004F00000800AE075E0DFF82481D8F8008028EA5F
:100500000008DFF81891C9F80080D1F8048008F4D9
:100510000038B8F5003F0ED1DFF8008108F104087B
:10052000D8F8008048EA0008DFF8F09009F10409E3
:10053000C9F800800DE0DFF8E48008F10408D8F87D
:10054000008028EA0008DFF8D49009F10409C9F80E
:100550000080D1F8048008F48018B8F5801F0ED10F
:10056000DFF8B88008F10808D8F8008048EA0008E9
:10057000DFF8A89009F10809C9F800800DE0DFF85C
:100580009C8008F10808D8F8008028EA0008DFF805
:100590008C9009F10809C9F80080D1F8048008F4AA
:1005A0000018B8F5001F0ED1DFF8708008F10C08B4
:1005B000D8F8008048EA0008DFF8609009F10C09DB
:1005C000C9F800800DE0DFF8548008F10C08D8F875
:1005D000008028EA0008DFF8449009F10C09C9F806
:1005E00000805B1CD1F8008028FA03F8B8F1000FF6
:1005F0007FF47CAEBDE8F8870000111000100240C7
:1006000000080140000C01400010014000140140AE
:1006100000180140001C0140080001400004014096
:100620000148006870470000180000200348006877
:100630000349097808440149086070471800002000
:100640002000002010B50848006840F0100006495E
:100650000860032000F0A8F8002000F007F800F080
:100660002BF8002010BD00000020024070B50446A9
:100670000E4800784FF47A71B1FBF0F00C4909682C
:10068000B1FBF0F5284600F00BFC08B1012070BD6D
:10069000102C07D200222146501E00F047F80548D2
:1006A000046001E00120F2E70020F0E720000020D4
:1006B000040000201C00002008B500BF114880691C
:1006C00040F001000F4988610846806900F0010090
:1006D000009000BF00BF00BF0846C06940F08050D6
:1006E000C8610846C06900F08050009000BF00BF9C
:1006F00000BF0549486820F0E06040F000704860A5
:1007000000BF08BD0010024000000140014608463D
:10071000002809DB00F01F0301229A4043099B00D7
:1007200003F1E023C3F8002100BF70472DE9F05F1B
:1007300080460D461646002700F07CFE07463946E7
:100740002A46334601F00700C0F1070ABAF1040F48
:1007500002D94FF0040A01E0C0F1070AD14600F1C6
:10076000040ABAF1070F02D24FF0000A01E0A0F12B
:10077000030AD4464FF0010A0AFA09FAAAF1010A5B
:100780000AEA020A0AFA0CFA4FF0010B0BFA0CFB08
:10079000ABF1010B0BEA030B4AEA0B04214640467E
:1007A00000F050FEBDE8F09F00BF00F00702064BCE
:1007B00019684FF6FF031940044B0B4343EA02212B
:1007C000014B196000BF70470CED00E00000FA0516
:1007D00070B504460D460CB9012070BD5A4800683A
:1007E00000F00700A8420ED25748006820F007002A
:1007F0002843554908600846006800F00700A842F1
:1008000001D00120E9E7207800F0020002281DD184
:10081000207800F00400042805D14C48406840F4DA
:10082000E0604A494860207800F00800082805D1B7
:100830004648406840F46050444948604348406836
:1008400020F0F000A168084340494860207800F09B
:10085000010078B36068012806D13C48006800F4C4
:10086000003090B90120B8E76068022806D1374807
:10087000006800F0007040B90120AEE7334800681E
:1008800000F0020008B90120A7E73048406820F0D6
:100890000300616808432D494860FFF7C1FE064622
:1008A00009E0FFF7BDFE801B41F28831884202D982
:1008B000032092E707E02548406800F00C006168DB
:1008C000B0EB810FEDD12048006800F00700A8428E
:1008D0000ED91D48006820F0070028431A49086017
:1008E0000846006800F00700A84201D0012074E724
:1008F000207800F00400042807D11448406820F450
:10090000E060E168084311494860207800F0080081
:10091000082808D10D48406820F46050216940EA59
:10092000C1000A49486000F03FF808494968C1F32E
:100930000311074A515CC840064908600648006830
:10094000FFF794FE002048E700200240001002401C
:10095000C0170008040000201C00002001480068A7
:10096000704700000400002000B5FFF7F7FF0449BE
:100970004968C1F30221034A515CC84000BD000030
:1009800000100240D017000800B5FFF7E7FF044948
:100990004968C1F3C221034A515CC84000BD000050
:1009A00000100240D0170008F0B585B00FF26C0CB3
:1009B0009CE8E01001A8A0E8E0101CA52D680095B7
:1009C00000210022002300240020194D696801F055
:1009D0000C05F5B1042D02D0082D19D101E0154800
:1009E00019E001ADC1F38346AC5D01F4803555B12A
:1009F0000F4D6D68C5F340451DF805200D4D65434D
:100A0000B5FBF2F302E00C4D04FB05F3184602E0DF
:100A100000BF084800BF00BF05B0F0BD02030405D9
:100A2000060708090A0B0C0D0E0F1010010200003A
:100A30000010024000127A0000093D00F8B504469B
:100A40000CB90120F8BD207800F00100002878D012
:100A5000F848406800F00C0004280CD0F5484068C5
:100A600000F00C00082811D1F248406800F48030F2
:100A7000B0F5803F0AD1EF48006800F4003000284C
:100A80005FD0606800285CD10120DBE700BF6068B0
:100A9000B0F5803F06D1E748006840F48030E54972
:100AA000086028E0606858B9E248006820F48030A7
:100AB000E04908600846006820F4802008601AE0D9
:100AC0006068B0F5A02F0BD1DA48006840F48020B0
:100AD000D84908600846006840F4803008600AE0A1
:100AE000D448006820F48030D24908600846006885
:100AF00020F48020086000BF606888B1FFF790FD97
:100B0000054606E0FFF78CFD401B642801D9032051
:100B100098E7C848006800F400300028F2D010E0E0
:100B2000FFF77EFD054606E0FFF77AFD401B6428CF
:100B300001D9032086E7BF48006800F40030002890
:100B4000F2D1207800F00200022857D1B94840685D
:100B500000F00C0050B1B748406800F00C000828C5
:100B600018D1B448406800F4803098B9B1480068A2
:100B700000F0020020B12069012801D0012061E7C6
:100B8000AC48006820F0F800616940EAC100A9495A
:100B9000086033E02069E8B10120A7490860FFF749
:100BA0003FFD054606E0FFF73BFD401B022801D94B
:100BB000032047E79F48006800F002000028F2D0B9
:100BC0009C48006820F0F800616940EAC10099493A
:100BD000086013E0002098490860FFF721FD0546F2
:100BE00006E0FFF71DFD401B022801D9032029E77D
:100BF0009048006800F002000028F2D1207800F050
:100C0000080008282DD1A069B8B101208B490860DF
:100C1000FFF706FD054606E0FFF702FD401B022830
:100C200001D903200EE78348406A00F00200002843
:100C3000F2D0012000F08CFA13E000207F49086018
:100C4000FFF7EEFC054606E0FFF7EAFC401B022832
:100C500001D90320F6E67748406A00F00200002838
:100C6000F2D1207800F00400042873D100277148E5
:100C7000C06900F0805070B900BF6E48C06940F094
:100C800080506C49C8610846C06900F080500090EF
:100C900000BF00BF01276A48006800F48070B0B947
:100CA0006748006840F4807065490860FFF7B8FC49
:100CB000054606E0FFF7B4FC401B642801D9032079
:100CC000C0E65F48006800F480700028F2D000BFE2
:100CD000E068012806D15748006A40F001005549F4
:100CE000086227E0E06858B95248006A20F0010025
:100CF000504908620846006A20F00400086219E0C2
:100D0000E06805280BD14B48006A40F004004949CF
:100D100008620846006A40F0010008620AE045489F
:100D2000006A20F00100434908620846006A20F08A
:100D30000400086200BFE068A0B1FFF771FC05463F
:100D400009E0FFF76DFC401B41F28831884202D96F
:100D5000032077E622E03748006A00F0020000280E
:100D6000EFD012E0FFF75CFC054608E0FFF758FC07
:100D7000401B41F28831884201D9032062E62D48A8
:100D8000006A00F002000028F0D1012F05D12948A7
:100D9000C06920F080502749C86100BFE069C8B32E
:100DA0002448406800F00C00082860D0E069022860
:100DB00048D1002020490866FFF732FC054606E0CE
:100DC000FFF72EFC401B022801D903203AE6194800
:100DD000006800F000700028F2D1206AB0F5803F72
:100DE00007D11448406820F40030A1680843114935
:100DF0004860D4E9080108430E49496821F4741198
:100E000008430C49486001200B490866FFF708FCBD
:100E1000054607E03DE0FFF703FC401B022801D92F
:100E200003200FE60348006800F000700028F2D0AD
:100E30002FE00000001002400000424280044242C5
:100E400000700040002014490866FFF7E9FB0546E2
:100E500006E0FFF7E5FB401B022801D90320F1E57E
:100E60000E48006800F000700028F2D111E0E0693F
:100E7000012800D1E6E50948466806F48031206A79
:100E8000814204D106F47011606A814201D00120D0
:100E9000D8E50020D6E500000000424200100240E4
:100EA00070B504462546681EB0F1807F01D301204D
:100EB0000FE0681E4FF0E02148610F214FF0FF3036
:100EC00000F0C0FA00204FF0E0218861072008619F
:100ED000002070BD10B504460CB9012010BDA069FA
:100EE00000B100E000BF94F83D0028B9002084F86C
:100EF0003C00204600F028F8242084F83D002068BB
:100F0000C06820F400502168C860204600F070F9E5
:100F10002068006920F490402168086120684069D9
:100F200020F02A00216848612068C06840F4005021
:100F30002168C86000202064202084F83D0084F8E7
:100F40003E000020CAE7000010B586B0044600202D
:100F5000029003900490059041492068884237D15F
:100F600000BF4048806940F480403E49886108469F
:100F7000806900F48040019000BF00BF00BF0846B8
:100F8000806940F0040088610846806900F0040030
:100F9000019000BF00BF481502900220039003207B
:100FA000059002A93048FFF79BF94FF4806002904A
:100FB00000200390049002A92B48FFF791F900222A
:100FC00011462520FFF7B2FB2520FFF79FFB45E0E8
:100FD00026492068884241D100BF2248C06940F4B8
:100FE00080202049C8610846C06900F48020019033
:100FF00000BF00BF00BF0846806940F02000886144
:101000000846806900F02000019000BF00BF8815ED
:101010000290022003900320059002A91448FFF7D4
:101020005FF94FF40070029000200390049002A931
:101030000F48FFF755F900BF0E49486820F030000F
:1010400040F0E06040F03000486000BF00221146F0
:101050002720FFF76BFB2720FFF758FB06B010BDDA
:1010600000380140001002400008014000480040E4
:10107000001401400000014000BFFEE70448008862
:1010800020B103480088401E0149088070470000D5
:101090000000002008B500BF0D48806940F0040042
:1010A0000B4988610846806900F00400009000BF89
:1010B00000BF00BF0846806940F0200088610846F4
:1010C000806900F02000009000BF00BF08BD000054
:1010D0000010024010B50B480B4908604FF4E13096
:1010E0004860002108488160C16001610C214161B4
:1010F00000218161C161FFF7EDFE08B1FFF7ECF857
:1011000010BD0000003801402400002010B50B483D
:101110000B4908604FF4E1304860002108488160C5
:10112000C16001610C21416100218161C161FFF752
:10113000D1FE08B1FFF7D0F810BD00000048004014
:101140006800002000BFFEE700BFFEE77047000018
:1011500008B508490968C9084FF47A72B1FBF2F181
:101160004143009100BF00BF00994A1E0092002930
:10117000F9D108BD04000020704710B5FFF756FAFA
:10118000FFF77CFF10BD00B58FB0282105A8FFF741
:101190003DF814216846FFF739F801200590000456
:1011A0000690002007900120099002200C90C103B6
:1011B0000D914FF4E0110E9105A8FFF73FFC08B127
:1011C000FFF78AF80F200090022001900020029083
:1011D0004FF4806003900020049002216846FFF7DE
:1011E000F7FA08B1FFF778F80FB000BD70470000BC
:1011F00070B504462168096921F44051E268114341
:10120000226811612269A1681143626941EA0205FD
:101210002168C96841F20C62914329432268D16078
:101220002168496921F44071A26911432268516122
:101230002D4A2168914202D1FFF7A6FB01E0FFF79A
:1012400093FB00EBC00101EB001162689200B1FB5F
:10125000F2F100EBC00202EB001263689B00B2FBEC
:10126000F3F26423B2FBF3F202EBC20303EB0212CC
:10127000A1EB8201322202EB01116422B1FBF2F1F7
:1012800001F0F00100EBC00202EB001263689B006A
:10129000B2FBF3F26423B2FBF3F201EB021200EBB8
:1012A000C00101EB001163689B00B1FBF3F100EB9F
:1012B000C00303EB00136668B600B3FBF6F36426C5
:1012C000B3FBF6F303EBC30606EB0313A1EB8301B9
:1012D000322303EB01116423B1FBF3F101F00F01A1
:1012E00011442268916070BD0038014010B5024879
:1012F00000F00CF810BD00002400002010B50248DA
:1013000000F004F810BD0000680000202DE9F04155
:101310000446206805682068C6682068D0F81480F4
:1013200005F02000C8B106F02000B0B120680068C8
:1013300020684068C7B23648844205D13548016804
:10134000384600F049F907E03348844204D1334875
:101350000168384600F040F957E005F080000028A9
:1013600053D006F0800000284FD02948844224D171
:101370002B48D0F80018D0F80408814206D1206824
:10138000C06820F080002168C8603EE02449D1F8A0
:101390000418244A505C2249D1F80418491C4FF41F
:1013A0002052B1FBF2F302FB13121D49C1F80428CD
:1013B000216809682168486027E01748844224D1E1
:1013C0001948D0F80018D0F80408814206D12068E6
:1013D000C06820F080002168C86016E01249D1F88A
:1013E0000418124A505C1049D1F80418491C4FF4F3
:1013F0002052B1FBF2F302FB13120B49C1F804288F
:10140000216809682168486000BFBDE8F0810000DC
:1014100024000020080000206800002010000020A8
:10142000B4480020B4280020C4980020C4780020CC
:1014300000BFFEE702480068C0F3022070470000CA
:101440000CED00E010B5002804DB0A07130E054A76
:10145000135406E00A07140E034A00F00F031B1F83
:10146000D45410BD00E400E018ED00E010B500F029
:1014700071F810BD10B50D4800F01CF840B10B48D4
:1014800000F0C0F804460A49204600F02BF900BFDE
:10149000074800F00FF840B1054800F0B3F80446E3
:1014A0000249204600F01EF900BF10BD24000020B4
:1014B0006800002001461B48814216D11A48006886
:1014C00000F50050D0F8000800F52050164A1268C8
:1014D00002F50052D2F80428801A80B24FF420524C
:1014E00090FBF2F302FB130070471048814216D1C3
:1014F0000F48006800F50050D0F8000800F52050B3
:101500000B4A126802F50052D2F80428801A80B201
:101510004FF4205290FBF2F302FB1300E4E74FF08C
:10152000FF30E1E7240000200800002068000020D0
:1015300010000020FFF786F8FFF725FEFFF7AAFD51
:10154000FFF7C8FDFFF7E2FDFFF790FF01E0FFF7AF
:1015500091FFFCE7164817490860174817490860CB
:101560001748184908601848184908601848006862
:10157000406940F001001649096848611548006853
:10158000406940F00100134909684861104800684B
:10159000C06840F020000E490968C8600D48006826
:1015A000C06840F020000B490968C860704700001F
:1015B000AC00002008000020B42800200C0000200F
:1015C000BC50002010000020C4780020140000202F
:1015D000240000206800002030B54FF420535B58F1
:1015E0005B1C4FF42054B3FBF4F504FB1532231DB0
:1015F0005B58934204D023465B58C85423465A5044
:1016000030BD000010B50146324881422DD132482C
:10161000006800F50050D0F800282F48006800F559
:101620000050D0F80408824202D14FF0FF3010BDC4
:10163000294A126802F50052D2F80428264B1B688A
:10164000985C254A126802F50052D2F80428521C10
:101650004FF42053B2FBF3F403FB14231E4A126829
:1016600002F50052C2F80438E1E71C4881422DD14E
:101670001B48006800F50050D0F8002818480068A2
:1016800000F50050D0F80408824202D14FF0FF303C
:10169000CDE7134A126802F50052D2F80428104B25
:1016A0001B68985C0E4A126802F50052D2F80428B2
:1016B000521C4FF42053B2FBF3F403FB1423084AEB
:1016C000126802F50052C2F80438B0E74FF0FF305C
:1016D000ADE7000024000020080000206800002082
:1016E0001000002030B5002861DB314A91422DD135
:1016F000304B1B6803F50053D3F800385B1C4FF4E4
:101700002054B3FBF4F504FB153200BF294B1B68D2
:1017100003F50053D3F804389342F7D0254B1B68E8
:1017200003F50053D3F80038224D2D68E854214BBF
:101730001B6803F50053C3F800281D4B1B68DB68CA
:1017400043F080031A4C2468E36030E01A4A914267
:101750002DD11A4B1B6803F50053D3F800385B1CDE
:101760004FF42054B3FBF4F504FB153200BF134BC8
:101770001B6803F50053D3F804389342F7D00F4B9E
:101780001B6803F50053D3F800380C4D2D68E8545E
:101790000A4B1B6803F50053C3F80028064B1B686F
:1017A000DB6843F08003044C2468E36000BF30BD75
:1017B000240000200C0000206800002014000020FD
:1017C00000000000000000000102030406070809F1
:1017D0000000000001020304F817000800000020C8
:1017E000240000006C0100081C18000824000020E0
:1017F0000CA7000088010008000000000024F4008D
:1018000000000000000000000000000000000000D8
:0C181000000000001000000001000000BB
:0400000508000131BD
:00000001FF
