:020000040800F2
:1000000058070020AD140008DD030008DF030008D6
:10001000E3030008E7030008EB030008000000000A
:10002000000000000000000000000000EF030008D6
:10003000F103000800000000F3030008F5030008C6
:10004000C7140008C7140008C7140008C714000824
:10005000C7140008C7140008C7140008C714000814
:10006000C7140008C7140008C7140008C714000804
:10007000C7140008C7140008C7140008C7140008F4
:10008000C7140008C7140008C7140008C7140008E4
:10009000C7140008C7140008C7140008C7140008D4
:1000A000C7140008C7140008C7140008C7140008C4
:1000B000C7140008C7140008C7140008C7140008B4
:1000C000C7140008C7140008C7140008C7140008A4
:1000D000C714000821140008C7140008C71400083A
:1000E000C7140008C7140008C7140008C714000884
:1000F000C7140008C7140008C7140008C714000874
:10010000C7140008C7140008C7140008C714000863
:10011000C7140008C7140008C7140008C714000853
:10012000C7140008C7140008C7140008C714000843
:10013000C7140008C7140008C7140008C714000833
:10014000C7140008C7140008C7140008C714000823
:10015000C7140008C7140008C7140008C714000813
:10016000C7140008C7140008C7140008C714000803
:10017000C7140008C7140008C7140008C7140008F3
:10018000C7140008C714000800F002F800F03CF89B
:100190000AA090E8000C82448344AAF10107DA45E2
:1001A00001D100F031F8AFF2090EBAE80F0013F0F8
:1001B000010F18BFFB1A43F001031847C055000098
:1001C000E0550000103A24BF78C878C1FAD8520729
:1001D00024BF30C830C144BF04680C6070470000C1
:1001E0000023002400250026103A28BF78C1FBD840
:1001F000520728BF30C148BF0B6070471FB502F0DF
:1002000048FB1FBD10B510BD02F087F81146FFF77F
:10021000F5FF00F009F802F0A5F803B4FFF7F2FFCC
:1002200003BC01F09DF800002DED068B84B09FED1E
:100230005A0AB0EE408AA82001F010F800F0E4F964
:1002400000F0B5FA4FF6FF704FF4A073F0220021D2
:100250000090084600F0C2FB00205049086099E079
:10026000002020214FF6FF724FF47843CDE90021A2
:1002700002904BA2014600F033FE002010214FF601
:10028000FF724FF47843CDE90021029047A2282164
:1002900000F0E0FE10204FF6FF714FF47842032388
:1002A000CDE900210290F0222821302000F0FEFE4E
:1002B000002010214FF6FF724FF47843CDE9002162
:1002C00002903CA22821502000F0C4FE10204FF6DE
:1002D000FF714FF478420323CDE9002102904FF4DF
:1002E000A0722821802000F0E1FE002010214FF6AE
:1002F000FF724FF47843CDE9002102902DA228210E
:10030000502000F0A7FE002010214FF6FF724FF49E
:100310007843CDE90021029028A2462100F09AFE00
:1003200010204FF6FF714FF478430422B0EE480AD4
:10033000CDE900104621802000F003FF18EE100ADE
:1003400002F036FA41EC1A0B9FED210B53EC102B07
:1003500002F048F841EC190B02F012F808EE100A0E
:10036000002515E000240FE01B4805EB85027823EB
:1003700003EBC20104EB84020090D00028231A464C
:1003800000F036FF601CC4B2062CEDDB681CC5B261
:10039000052DE7DB64E7000000000000A482424274
:1003A000D6D0BEB0D4B0B5E7D7D300004C43445F3D
:1003B000573A00004C43445F483A0000496E63726C
:1003C00065617365696E67204E756E3A00000000C6
:1003D000295C8FC2F528BC3FA6280008704700BFE3
:1003E000FEE700BFFEE700BFFEE700BFFEE7704785
:1003F00070477047704700000CB5002001900090D6
:100400007648006840F480307449086000BF734843
:10041000006800F4003000900198401C01900098A2
:1004200018B90198B0F5A04FF1D16C48006800F4FC
:10043000003010B10120009001E0002000900098F1
:10044000012846D165484030006840F0805063493B
:10045000403108606248006840F4404060490860EC
:100460005E48083000685D49083108600846006849
:1004700040F4004008600846006840F4A05008605E
:100480005848091F0860081F006840F08070091F65
:10049000086000BF5148006800F000700028F9D0E3
:1004A00040F20570504908604C480830006820F060
:1004B00003004A49083108600846006840F002001D
:1004C000086000BF45480830006800F00C000828AC
:1004D000F8D10CBD10B54548006840F470004349A0
:1004E00008603E48006840F001003C490860002078
:1004F0003A4908310860394800683D4908403749A1
:1005000008603C48091D0860081F006820F480202E
:10051000091F0860002031490C310860FFF76CFFAB
:100520004FF0006031498039086010BD70B500207F
:100530000022022300240221284D08352D6805F0F1
:100540000C0020B1042806D0082834D107E02A4D39
:100550002A4E356033E02A4D284E35602FE01F4D7E
:100560002D1D2D68C5F380541C4D2D1D2D6805F0E3
:100570003F0154B1224DB5FBF1F5184E361D3668DA
:10058000C6F3881605FB06F209E01B4DB5FBF1F535
:10059000124E361D3668C6F3881605FB06F20F4D5F
:1005A0002D1D2D68C5F301456D1C6B00B2FBF3F5E5
:1005B000124E356003E0104D104E356000BF00BF95
:1005C000064D08352D68C5F303150E4E705D0B4DB5
:1005D0002D68C540094E356070BD000000380240EE
:1005E0000070004008544007003C024088ED00E0E5
:1005F000FFFFF6FE103000240024F400000000206D
:1006000000127A00040000201CB50121202001F016
:1006100001FB4FF4C060009001208DF80400002021
:100620008DF8060003208DF8050001208DF80700E5
:100630006946044801F050F84FF4C061014801F0E8
:10064000C7F81CBD001402401CB501215F2001F059
:10065000E1FA4FF48050009001208DF80400002052
:100660008DF8060003208DF8050001208DF80700A5
:100670006946D74801F030F84FF48051D44801F072
:10068000A7F848F23200009001208DF80400002005
:100690008DF8060003208DF8050001208DF8070075
:1006A0006946CC4801F018F848F23201C94801F017
:1006B0008FF84FF4A060009001208DF80400002016
:1006C0008DF8060003208DF8050001208DF8070045
:1006D0006946C14801F000F84FF4A061BE4801F03E
:1006E00077F81CBD70B504460221BA4801F072F8D3
:1006F000002519E04FF48051B54801F06BF804F083
:10070000800020B12021B34801F062F803E02021ED
:10071000B04801F05FF84FF48051AD4801F058F84F
:100720006006040E681CC5B2082DE3DB0221A9484F
:1007300001F04EF870BD10B504462046FFF7D2FF19
:1007400010BD10B504462012FFF7CCFFE0B2FFF752
:10075000C9FF10BD10B504464FF400419D4801F09B
:1007600039F82046FFF7BEFF4FF40041994801F0E9
:100770002FF810BD2DE9F04107460C4615461E46E0
:100780002A20FFF7E7FF3846FFF7DBFF2846FFF791
:10079000D8FF2B20FFF7DEFF2046FFF7D2FF3046C1
:1007A000FFF7CFFF2C20FFF7D5FFBDE8F08110B594
:1007B000FFF74AFF1021874801F00CF8642000F091
:1007C000AFFD1021834801F003F8642000F0A8FD7C
:1007D0004FF48071804800F0FBFF642000F0A0FD22
:1007E0001120FFF7B7FF782000F09AFDCF20FFF728
:1007F000B1FF0020FFF79FFFD920FFF79CFF3020BB
:10080000FFF799FFED20FFF7A5FF6420FFF793FFA7
:100810000320FFF790FF1220FFF78DFF8120FFF7E5
:100820008AFFE820FFF796FF8520FFF784FF10205E
:10083000FFF781FF7820FFF77EFFCB20FFF78AFFCD
:100840003920FFF778FF2C20FFF775FF0020FFF716
:1008500072FF3420FFF76FFF0220FFF76CFFF720D5
:10086000FFF778FF2020FFF766FFEA20FFF772FF0F
:100870000020FFF760FF0020FFF75DFFC020FFF7BB
:1008800069FF2120FFF757FFC120FFF763FF122008
:10089000FFF751FFC520FFF75DFF3220FFF74BFF49
:1008A0003C20FFF748FFC720FFF754FFC120FFF7A8
:1008B00042FF3620FFF74EFF0820FFF73CFF3A20AB
:1008C000FFF748FF5520FFF736FFB120FFF742FF43
:1008D0000020FFF730FF1820FFF72DFFB620FFF7AD
:1008E00039FF0A20FFF727FFA220FFF724FFF2209D
:1008F000FFF730FF0020FFF71EFF2620FFF72AFF3B
:100900000120FFF718FFE020FFF724FF0F20FFF77B
:1009100012FF2020FFF70FFF1E20FFF70CFF09201A
:10092000FFF709FF1220FFF706FF0B20FFF703FF79
:100930005020FFF700FFBA20FFF7FDFE4420FFF72D
:10094000FAFE0920FFF7F7FE1420FFF7F4FE05205A
:10095000FFF7F1FE2320FFF7EEFE2120FFF7EBFE6D
:100960000020FFF7E8FEE120FFF7F4FE0020FFF78C
:10097000E2FE1920FFF7DFFE1920FFF7DCFE002062
:10098000FFF7D9FE1220FFF7D6FE0720FFF7D3FEB0
:100990002D20FFF7D0FE2820FFF7CDFE3F20FFF7E8
:1009A000CAFE0220FFF7C7FE0A20FFF7C4FE082098
:1009B000FFF7C1FE2520FFF7BEFE2D20FFF7BBFE8F
:1009C0000F20FFF7B8FE2920FFF7C4FE10BD00007E
:1009D00000180240000C0240001002402DE9F047D0
:1009E00006460F4614461D46DDF820A0681E83B259
:1009F000601E82B239463046FFF7BCFEB8460EE0B4
:100A0000B14606E05046FFF79CFE09F101001FFACF
:100A100080F9A145F6DB08F101001FFA80F8A8452E
:100A2000EEDBBDE8F08770B504460D4616462B4652
:100A3000224629462046FFF79DFE3046FFF781FEFD
:100A400070BD2DE9FF4F85B081468A460020039096
:100A500083460798A0EB09040898A0EB0A06CDF896
:100A60000890CDF804A0002C01DD012705E00CB9A9
:100A7000002702E04FF0FF376442002E02DD4FF006
:100A8000010806E016B94FF0000802E04FF0FF3809
:100A90006642B44201DD254600E035460020049060
:100AA0001EE0019A91B2029A90B2129AFFF7BBFF30
:100AB000039820440390B3440398A84205DD0398AB
:100AC000401B0390029838440290AB4504DDABEB29
:100AD000050B0198404401900498401C80B204909A
:100AE000691C04988842DCDB09B0BDE8F08F2DE971
:100AF000F84305460E4617469846089C33463A4644
:100B0000314628460094FFF79CFF43462A4631466B
:100B100028460094FFF795FF43463A46414628464B
:100B20000094FFF78EFF43463A463146384600941C
:100B3000FFF787FFBDE8F8832DE9F04706460F462B
:100B4000904699460025444641E07A1B91B2321BFB
:100B500090B24A46FFF767FF7A1B91B2321990B202
:100B60004A46FFF760FF3A1991B2721B90B24A46AB
:100B7000FFF759FF3A1B91B2721B90B24A46FFF73A
:100B800052FF7A1991B2321990B24A46FFF74BFFE1
:100B90003A1B91B2721990B24A46FFF744FF3A19D4
:100BA00091B2721990B24A46FFF73DFF7A1991B29D
:100BB000321B90B24A46FFF736FF6D1C05FB05F06D
:100BC00004FB040108FB08F0814200DD641EA5421D
:100BD000BBDDBDE8F0872DE9FE4F0646894692460B
:100BE0009B460D9C00962046E11704EB5171C910FD
:100BF000614389B2019105200290002565E005EB73
:100C00008510F94911F810009AF80010884259D15E
:100C100005EB8510F44901EB400040789AF801108B
:100C200088424FD109EB0400401E83B23019401EA8
:100C300082B249463046FFF79DFD00273FE04FF066
:100C4000000836E00E9898B905EB8510E64901EBEF
:100C50004000801CC05D012101FA08F1084018B174
:100C60005846FFF76EFD20E00C98FFF76AFD1CE088
:100C700005EB8510DC4901EB4000801CC05D0121C3
:100C800001FA08F1084020B15A4649463046FFF7BC
:100C9000CAFE701C86B20098301AA04205D1009E90
:100CA00009F101001FFA80F906E008F1010000F0E7
:100CB000FF08B8F1080FC5DB00BF781CC7B2019868
:100CC0008742BCDB00BF681C85B20298854296DB78
:100CD000BDE8FE8F2DE9FE4F0646894692469B46AB
:100CE0000D9C00962046E11704EB5171C910614339
:100CF00089B201910520029000256DE005EB850089
:100D000000EB4510B94911F810009AF8001088421C
:100D10005FD105EB850000EB4510B44901EB4000C5
:100D200040789AF80110884253D109EB0400401E24
:100D300083B23019401E82B249463046FFF71AFD91
:100D4000002743E04FF000083AE00E98A8B905EB01
:100D5000850000EB4510A54901EB4000801CC05DFB
:100D6000012101FA08F1084018B15846FFF7E9FCE3
:100D700022E00C98FFF7E5FC1EE005EB850000EB98
:100D800045109A4901EB4000801CC05D012101FA29
:100D900008F1084020B15A4649463046FFF743FE65
:100DA000701C86B20098301AA04205D1009E09F14D
:100DB00001001FFA80F906E008F1010000F0FF08C9
:100DC000B8F1080FC1DB00BF781CC7B20198874299
:100DD000B8DB00BF681C85B2029885428EDBBDE897
:100DE000FE8F2DE9FE4F0646894692469B460D9C96
:100DF00000962046E11704EB5171C910614389B296
:100E0000019105200290002565E005EB0510784969
:100E100011F810009AF80010884259D105EB05101E
:100E2000734901EB400040789AF8011088424FD195
:100E300009EB0400401E83B23019401E82B24946BD
:100E40003046FFF797FC00273FE04FF0000836E000
:100E50000E9898B905EB0510654901EB4000801C20
:100E6000C05D012101FA08F1084018B15846FFF7AA
:100E700068FC20E00C98FFF764FC1CE005EB051013
:100E80005B4901EB4000801CC05D012101FA08F1C3
:100E9000084020B15A4649463046FFF7C4FD701C51
:100EA00086B20098301AA04205D1009E09F10100D7
:100EB0001FFA80F906E008F1010000F0FF08B8F120
:100EC000080FC5DB00BF781CC7B201988742BCDBA6
:100ED00000BF681C85B20298854296DBBDE8FE8F94
:100EE0002DE9FE4F8046894615469A46DDE90D47B5
:100EF0000C9E2AE0102C09D153462A46494640460A
:100F0000CDE901470096FFF76CFF19E0182C09D1D5
:100F100053462A4649464046CDE901470096FFF729
:100F2000D9FE0DE0202C09D153462A4649464046B9
:100F3000CDE901470096FFF74EFE01E0BDE8FE8FC8
:100F4000AD1C08EB04001FFA80F828780028D1D1E6
:100F500000BFF3E72DE9FF4F83B005468A461746E9
:100F6000119CAB46204604EBD071C1F347063046D6
:100F7000F11706EB5171C910614389B20191A7F1D4
:100F80002000C7B20AEB0400401E83B2A819401E1D
:100F900082B251462846FFF7EDFB4FF0000954E0BE
:100FA000102C06D1134800EB071010F8090002902E
:100FB0000BE0202C06D1104800EB871010F8090038
:100FC000029002E007B0BDE8F08F4FF0000834E077
:100FD0001298B8B9012000FA08F00299084068B1E7
:100FE0000698FFF7AEFB24E0F25400088053000897
:100FF000D652000826350008163B00081098FFF767
:10100000A0FB16E0012000FA08F00299084020B188
:1010100051462846069AFFF706FD681C85B2A5EBE7
:101020000B00B04205D15D460AF101001FFA80FABB
:1010300006E008F1010000F0FF08B8F1080FC7DB77
:1010400000BF09F101001FFA80F901988145A7DB73
:1010500000BFB7E72DE9FE4F06460F4614469846F7
:10106000DDE90D5ADDF8309010E0CDE9015ACDF8F8
:1010700000902278434639463046FFF76BFF2846FA
:1010800005EBD07106EB61018EB2641C207800285C
:10109000EBD1BDE8FE8F10B50246012000E05043C1
:1010A0000B1EA1F10104E1B2F9D110BD2DE9FF4FF2
:1010B00085B0074691461D46DDE913A60020049041
:1010C000304606EBD071C1F3470B002434E0281BF7
:1010D000401EC1B20A20FFF7DEFFB9FBF0F00A2183
:1010E000B0FBF1F201FB12080498A0B9681EA042FF
:1010F00011DDB8F1000F0CD1002004FB0B71CDE91C
:1011000000A6029088B22022129B0699FFF722FFC8
:1011100010E001200490002008F13001CAB204FB65
:101120000B71CDE900A6029088B2129B0699FFF7D9
:1011300011FF00BF601CC4B2AC42C8DB09B0BDE8FF
:10114000F08F2DE9FF4F2DED020B2DED028B83B0BB
:101150000746B0EE408A1446DDE91486304606EBB9
:10116000D071C1F3470A9FED3C0A28EE000ABCEE9D
:10117000C00A10EE100A1FFA80FB002530E0601B49
:10118000401EC1B20A20FFF786FFBBFBF0F00A2128
:10119000B0FBF1F201FB1209A01EA84210D1002001
:1011A000A11E01FB0A71CDE90086029088B22E22B1
:1011B0000A9B0899FFF7CEFE681CC5B2601CC4B23A
:1011C000002009F13001CAB205FB0A71CDE90086A1
:1011D000029088B20A9B0899FFF7BCFE681CC5B252
:1011E000A542CCDB03B0BDEC028B06B0BDE8F08FAE
:1011F0002DE9F05F0746884615461E46DDF8289023
:10120000002408EB0600401E83B27819401E82B20B
:1012100041463846FFF7AEFAA24619E04FF0000B00
:1012200010E019F81400FFF786FA012101EB4401E0
:1012300019F80100FFF77FFA601C84B20BF101007E
:101240001FFA80FBB345ECDB0AF101001FFA80FABC
:10125000AA45E3DBBDE8F09F0000C84210B5044694
:101260006FF0040000F094F9E11704EB5171C1F341
:10127000C701394A11701046007800EB4001C1EBFC
:10128000C0104FF6FF7101EAC0003449088010BD5C
:101290000146314A12784A434FF0E0235A61002256
:1012A0009A611A46126942F001021A6100BF4FF0BA
:1012B000E022106900F001021AB100F48032002A25
:1012C000F5D04FF0E022126922F001024FF0E02346
:1012D0001A6100229A6170470146204A12884A43E7
:1012E0004FF0E0235A6100229A611A46126942F0D7
:1012F00001021A6100BF4FF0E022106900F0010204
:101300001AB100F48032002AF5D04FF0E0221269C1
:1013100022F001024FF0E0231A6100229A61704727
:1013200070B504464FF4077094FBF0F0C6B24FF46A
:10133000077094FBF0F100FB114085B205E04FF41B
:101340000770FFF7C9FF701EC6B2002EF7D115B1A6
:101350002846FFF7C1FF70BD1400002016000020D2
:10136000014600BF704700BF4C4A128802F040029D
:10137000002AF9D0C2B2494B9A80704710B588B0A4
:1013800004460121084600F045FC0121102000F030
:101390009BFC07220921424800F029FA07220A2172
:1013A0003F4800F024FA4FF4C060069002208DF808
:1013B0001C008DF81D0000208DF81E0001208DF806
:1013C0001F0006A9364800F087F902940020ADF806
:1013D0000C00ADF80E00ADF81000ADF814000C20B4
:1013E000ADF8120002A92D4800F0CFFD01212B48D5
:1013F00000F053FE012240F22551284800F003FF7F
:1014000025208DF8040003208DF805008DF80600D6
:1014100001208DF8070001A800F06DF808B010BD9C
:1014200010B540F225511D4800F028FF10B31B48AD
:1014300000F062FEC4B21B48008800F40040C8B946
:101440001848008800F4804060B10A2C03D00020C6
:101450001449088020E01348008840F400401149F6
:10146000088019E00D2C06D10E48008840F4804019
:101470000C49088010E00B480088C0F30D000A49B1
:101480000C5408480088401C06490880084600881B
:10149000C72801DD0020088010BD000000100140B9
:1014A000000002401C000020300000200948804756
:1014B00009480047FEE7FEE7FEE7FEE7FEE7FEE736
:1014C000FEE7FEE7FEE7FEE704480549054A064B4E
:1014D00070470000D5040008890100085801002069
:1014E00058070020580300205803002032490143C8
:1014F000324A1160704770B5002100230F22C47872
:101500001CB32E4C246804F4E064C4F5E064C4F316
:101510000721C1F10404E3B20A4144789C40E1B2DE
:101520008478144021430C07210E254C0578615521
:10153000047804F01F050124AC4005786D11AD005E
:1015400005F1E025C5F8004109E0047804F01F0525
:101550000124AC401B4D0678761145F8264070BD3D
:10156000194A0A400243154B1B1F1A60704739B1D4
:10157000124A121D12680243104B1B1D1A6006E02E
:101580000E4A121D126882430C4B1B1D1A607047D5
:10159000042808D14FF0E021096941F004014FF01F
:1015A000E022116107E04FF0E021096921F0040118
:1015B0004FF0E022116170470000FA050CED00E0E9
:1015C00000E400E080E100E080FFFF1F10B504466A
:1015D0009848844208D10121084600F086FB00218A
:1015E000012000F082FB76E09348844208D101217B
:1015F000022000F07AFB0021022000F076FB6AE076
:101600008E48844208D10121042000F06EFB0021A5
:10161000042000F06AFB5EE08948844208D1012181
:10162000082000F062FB0021082000F05EFB52E081
:101630008448844208D10121102000F056FB00218B
:10164000102000F052FB46E07F48844208D101217F
:10165000202000F04AFB0021202000F046FB3AE069
:101660007A48844208D10121402000F03EFB00214D
:10167000402000F03AFB2EE07548844208D1012159
:10168000802000F032FB0021802000F02EFB22E0C1
:101690007048844208D10121801500F026FB00210A
:1016A000A01500F022FB16E06B48844208D101210E
:1016B000401500F01AFB0021601500F016FB0AE04F
:1016C0006648844207D10121001500F00EFB00217D
:1016D000201500F00AFB10BDF0B50A4600210023DA
:1016E000002400BF3DE0012505FA01F3156805EA75
:1016F00003049C4234D105684F000326BE40B54325
:10170000056015794E00B5400668354305601579CA
:10171000012D02D01579022D16D185684F000326C0
:10172000BE40B543856055794E00B5408668354367
:101730008560456801268E40B543456045689679C9
:101740008E40B6B235434560C5684F000326BE40A3
:10175000B543C560D5794E00B540C6683543C56010
:10176000491C1029BFD3F0BD4FF6FF710160002165
:10177000017141718171C171704708B54FF48032B8
:101780000092009A0A430092009AC261C161009AD5
:10179000C261C2690092C269009208BD024600207F
:1017A00013690B400BB1012000E000207047014697
:1017B000086980B270470246002053690B400BB1A4
:1017C000012000E0002070470146486980B2704760
:1017D00001837047418370470AB1018300E0418370
:1017E00070474161704742694A4042617047F0B5B5
:1017F000002300244D07ED0E02FA05F3CE1000F190
:10180000200555F826504E07F70E0F26BE40B5436B
:10181000CF1000F1200646F82750CE1000F1200529
:1018200055F8265045EA0304CE1000F1200545F88E
:101830002640F0BD000002400004024000080240C3
:10184000000C024000100240001402400018024048
:10185000001C0240002002400024024000280240F8
:10186000F948006840F00100F74908600020F64997
:1018700008310860F4480068F4490840F2490860FB
:10188000F348091D0860F348EF4984310860F048C7
:101890001038091D0860EC48006820F48020EA49EF
:1018A00008600020E8490C310860E7498C31086085
:1018B00070470021E44A921C11701146087070476D
:1018C00010B501460022002300204A11012A02D14E
:1018D000DD4C236808E0022A03D1DB4C7034236816
:1018E00002E0D94C7434236801F01F0201249440B3
:1018F0001C400CB1012000E0002010BD38B50020D4
:1019000000900024002500BF3120FFF7D9FF0546D5
:101910000098401C00900098B0F5A04F01D0002D19
:10192000F2D03120FFF7CCFF08B1012400E0002401
:10193000204638BD01460020C34A106820F0F80058
:1019400040EAC10010607047C34908607047002139
:10195000BD4A703211701170012802D004280AD1DA
:1019600004E00121B84A7032117005E00521B64A41
:101970007032117000E000BF00BF7047B7490860C7
:10198000704770B5049C41EA82150126C6EB5306E8
:1019900045EA0645054345EA0465AB4E361D35600C
:1019A00070BDAD4908667047820142EA0172A64BDC
:1019B00084331A607047A8498866704710B5830160
:1019C00043EA016343EA02739F4C8834236010BDED
:1019D000A14908677047A049C864704702460020C3
:1019E000994B0833186820F0EC6042EA0103184371
:1019F000954B08331860704702460020924B08331D
:101A0000186820F0784042EA010318438E4B0833EF
:101A100018607047014600208B4A0832106820F099
:101A2000030008431060704787480830006800F0E2
:101A30000C00704701460020834A0832106820F0ED
:101A4000F000084310607047014600207E4A0832CB
:101A5000106820F4E05008431060704701460020F1
:101A6000794A0832106820F4604040EAC1001060F2
:101A70007047F0B500210022002402250026022331
:101A8000714F08373F6807F00C0121B1042905D0D8
:101A9000082937D105E0724F076036E0714F0760C3
:101AA00033E0694F3F1D3F68C7F38056664F3F1DC7
:101AB0003F6807F03F036EB16A4FB7FBF3F7DFF8FB
:101AC00088C10CF1040CDCF800C0CCF3881C07FBC7
:101AD0000CF40CE0624FB7FBF3F7DFF86CC10CF1CC
:101AE000040CDCF800C0CCF3881C07FB0CF4564F48
:101AF0003F1D3F68C7F301477F1C7D00B4FBF5F72E
:101B0000076002E0564F076000BF00BF4E4F083726
:101B10003F6807F0F0010909534F7A5C0768D74026
:101B20004760494F08373F6807F4E051890A4E4F34
:101B30007A5C4768D7408760434F08373F6807F4AF
:101B40006041490B484F7A5C4768D740C760F0BD99
:101B5000002100F44072B2F5407F0AD13A4A0832BF
:101B6000116821F4F811414A02401143364A083203
:101B70001160354A70321268C0F30B031A43324BBE
:101B800070331A60704735494439086070473349EB
:101B900040390860704736490860704701460020A8
:101BA000294A8C32106820F01F004A1E1043264A32
:101BB0008C321060704701460020234A8C32106836
:101BC00020F4F8504A1E40EA02201F4A8C3210606E
:101BD0007047014600201C4A8C32106820F44010E7
:101BE00008431060704701460020174A8C32106885
:101BF00020F4400008431060704701460020124A5C
:101C00008C32106820F44030084310607047194946
:101C10000860704739B10C4A3032126802430A4BEF
:101C200030331A6006E0084A303212688243064BAD
:101C300030331A607047F9B1034A343212680243F4
:101C4000014B34331A601CE000380240FFFFF6EA13
:101C5000103000240030002000004742800E474230
:101C60000024F40000127A001E000020FFFCFF0F89
:101C70005C014742E01147428F4A126882438E4B13
:101C80001A60704739B18C4A121D126802438A4BA0
:101C90001B1D1A6006E0884A121D12688243864B9B
:101CA0001B1D1A60704739B1834A0C321268024317
:101CB000814B0C331A6006E07F4A0C321268824373
:101CC0007D4B0C331A60704739B17B4A1032126871
:101CD0000243794B10331A6006E0774A10321268DB
:101CE0008243754B10331A60704739B1724A243AF7
:101CF00012680243704B243B1A6006E06E4A243A95
:101D0000126882436C4B243B1A60704739B16A4AAF
:101D1000203A12680243684B203B1A6006E0664A8C
:101D2000203A12688243644B203B1A60704739B1F5
:101D3000614A1C3A126802435F4B1C3B1A6006E082
:101D40005D4A1C3A126882435B4B1C3B1A60704729
:101D500039B1594A143A12680243574B143B1A607E
:101D600006E0554A143A12688243534B143B1A60FA
:101D7000704739B1504A103A126802434E4B103B3B
:101D80001A6006E04C4A103A126882434A4B103BF4
:101D90001A60704739B1484A1C3212680243464BF8
:101DA0001C331A6006E0444A1C3212688243424BDC
:101DB0001C331A60704739B13F4A2032126802431F
:101DC0003D4B20331A6006E03B4A203212688243C2
:101DD000394B20331A60704739B1374A24321268C0
:101DE0000243354B24331A6006E0334A243212682A
:101DF0008243314B24331A60704739B12E4A2C325A
:101E0000126802432C4B2C331A6006E02A4A2C320B
:101E100012688243284B2C331A60704739B1264A26
:101E2000303212680243244B30331A6006E0224AF3
:101E3000303212688243204B30331A6070470128D9
:101E400008D11D493C31096841F008011A4A3C3269
:101E5000116007E018493C31096821F00801164A71
:101E60003C321160704739B1134A273A1278024365
:101E7000114B273B1A7006E00F4A273A127882432B
:101E80000D4B273B1A7070470B484030006840F0FC
:101E90008070094940310860704701460020064AB9
:101EA000283A12680A400AB1012000E00020704779
:101EB00001492639087070473438024010B504468D
:101EC000FA48844208D101211020FFF752FF002177
:101ED0001020FFF74EFF57E0F548844209D1012159
:101EE0004804FFF735FF00214FF40030FFF730FFC3
:101EF0004AE0F048844209D101218804FFF728FF15
:101F000000214FF48020FFF723FF3DE0EA488442A0
:101F100009D10121C804FFF71BFF00214FF4002065
:101F2000FFF716FF30E0E548844209D1012108059A
:101F3000FFF70EFF00214FF48010FFF709FF23E0A9
:101F4000DF48844208D101212020FFF712FF002141
:101F50002020FFF70EFF17E0DA48844209D1012163
:101F60008807FFF7F5FE00214FF08040FFF7F0FEF5
:101F70000AE0D548844207D101214005FFF7E8FE79
:101F800000216005FFF7E4FE10BD2DE9FF4705467F
:101F90000E460024A14600BFA046B08900B100BF94
:101FA0002C8A24F44054F08804432C82AC8941F2FA
:101FB0000C608443B0883189084371890843044325
:101FC000AC81AC8A24F44074B0890443AC82684686
:101FD000FFF74FFDB548854202D0B948854202D18E
:101FE000DDF80C9001E0DDF80890A88900F40040CD
:101FF00040B109EBC90000EB091031684900B0FBA2
:10200000F1F707E009EBC90000EB0910316889001E
:10201000B0FBF1F76420B7FBF0F004012009642164
:1020200001FB1078A88900F4004040B1322000EB99
:10203000C800B0FBF1F000F00700044308E03220D4
:1020400000EB08106421B0FBF1F000F00F00044336
:102050002C81BDE8FF874FF416510160002181807B
:10206000C18001810C21418100218181704710B51F
:1020700002460020108A20F470600B884C882343AD
:102080008C882343CC8823431843108210BD002141
:10209000018041808180C180704721B1828942F4F2
:1020A0000052828104E082894DF6FF731A408281DA
:1020B0007047028B02F47F420283028B0A43028341
:1020C000704721B1828942F40042828103E0828913
:1020D000C2F30E028281704721B1828A42F400620B
:1020E000828204E0828A4FF2FF731A408282704734
:1020F000C1F308028280704701468888C0F3080057
:102100007047028A4FF6F0731A400282028A0A432D
:102110000282704721B1828942F00202828104E08A
:1021200082894FF6FD731A408281704782894FF28F
:10213000FF731A40828182890A4382817047028A32
:102140004FF6DF731A400282028A0A430282704706
:1021500021B1028A42F48042028204E0028A4BF6F4
:10216000FF731A4002827047818941F00101818129
:10217000704721B1828A42F00802828204E0828A9A
:102180004FF6F7731A4082827047028BD2B20283F5
:10219000028B42EA01220283704721B1828A42F017
:1021A0002002828204E0828A4FF6DF731A40828224
:1021B000704721B1828A42F01002828204E0828A52
:1021C0004FF6EF731A4082827047828A4FF6FB7394
:1021D0001A408282828A0A438282704721B1828AAF
:1021E00042F00202828204E0828A4FF6FD731A40B6
:1021F000828270471AB1838A0B43838202E0838A0A
:102200008B4383827047F0B50346002400260025E7
:10221000002040F66A17B94200D100BF1846C1F34A
:10222000421401F01F06012707FA06F5012C01D11F
:102230000C3004E0022C01D1103000E014301AB14F
:1022400007682F43076002E00768AF430760F0BDEF
:1022500002460020B1F5007F00D100BF13880B407B
:102260000BB1012000E00020704701F40072B2F5CC
:10227000007F00D100BFCA430280704770B502469C
:10228000002400230025002040F66A16B14200D148
:1022900000BFC1F3421501F01F03012606FA03F344
:1022A000012D13D19689334017E000000010014042
:1022B0000044004000480040004C004000500040F6
:1022C0000014014000780040007C0040022D02D143
:1022D000168A334001E0968A33400C12012606FA32
:1022E00004F41688344013B10CB1012000E0002042
:1022F00070BD10B50022002340F66A14A14200D13F
:1023000000BF0A1201249440A3B2DC43048010BD34
:1023100070477047704770477047754600F02CF85B
:10232000AE4605006946534620F00700854618B0C2
:1023300020B5FFF7C9F8BDE820404FF000064FF088
:1023400000074FF000084FF0000B21F00701AC46EA
:10235000ACE8C009ACE8C009ACE8C009ACE8C00909
:102360008D46704710B50446AFF300802046BDE8A7
:102370001040FDF752BF000000487047F8000020F1
:1023800021F00042A2F16052B2F5801F01F000433B
:1023900028BFD2F17F6C0BD95FEA001C43EAC2026E
:1023A00042EB507018BF704728BF20F00100704703
:1023B000B2F5801FBCBF184670474FEA410C1CF5B0
:1023C000001F02D2084600F069BA70B500F0B2F8FA
:1023D00000000089FFF7F6BF4FF00040A0F5800035
:1023E0007047000010B591EA030F48BF83F0004327
:1023F00000F1FC80841A71EB030C05D2121943EB37
:102400000C03001B61EB0C01DFF824E14FEA1154CF
:10241000A4EB135C1EEA430F18BF9EEA445F73D01F
:1024200023EA0E03DCF1200E21EA045143F4801369
:1024300032D322FA0CFE10EB0E0023FA0CFE41EB15
:102440000E01CCF1200E03FA0EFE10EB0E0051F13E
:102450000001B1F5801FCCF1200E32D201EB045106
:1024600012FA0EF2BDE8104058BF7047401C38BF4A
:102470005FEA420218BF7047002814BF20F0010035
:1024800041F100014FEA410313F5001F38BF7047C7
:10249000A1F1C04100F09CB8012A43EB0302ACF16A
:1024A000200CDCF11F0E32BF4FF0000E23FA0CF3AC
:1024B00010EB030041EB0451B4EB115FD0D0A1EB62
:1024C000045101F5801149085FEA300001EB045125
:1024D0000ED350F1000038BF12FA0EFE08D1BDE84D
:1024E0001040C9E7401C38BF5FEA4202CAD1C3E7C7
:1024F000BDE810404FEA410313F5001F38BF704795
:10250000A1F1C04100F064B89EEA445F08D011EA2E
:102510005E0FBDE8104004BF01F00041002070478D
:10252000BDE8104070B500F005F800BF64FBBE3E8A
:102530000000E0FF0EF1020E2EF0030E5EF8046BB9
:10254000364205D4012A43EB030515F5001F12D8C6
:10255000012841EB010C1CF5001F0CD80ED14FEAED
:10256000D17C15F5001F0CEB4C0C0CF1020C08BFD4
:102570004CEBD37C04E04FF0080C01E04FEAD37C35
:102580000CEB4C0526FA05F606F00706B6F1040C2E
:1025900006D20EEB860CBDE870404CF0010C604793
:1025A000DFE80CF0090B02024FF000414FF0000091
:1025B000A1F5002170BD19461046012851EB010418
:1025C00018BFD4F5001484BF002001F0004170BD95
:1025D0000808A0F500114FEA3101704710B591EAE3
:1025E000030F48BF83F000433FF504AF841A71EB3B
:1025F000030C07D212198CF0004C43EB0C03001BA8
:1026000061EB0C01DFF8A4E14FEA1154A4EB135C79
:102610001EEA430F18BF9EEA445F00F0B08023EA31
:102620006E03524221EA0451C3EB6E0338BF5B1EB6
:10263000DCF1200E25D322FA0CFE10EB0E0043FA3B
:102640000CFE41EB0E01CCF1200E03FA0EFE10EB56
:102650000E0051F10001CCF1200E29D412FA0EF235
:1026600001EB0451BDE8104058BF7047401C1CBF2F
:10267000B2F1004F704700280CBF491C20F0010048
:10268000704712EB020E43EB030218BF4FF0010E2E
:102690004EEA4202ACF1200CDCF11E0E54D943FA92
:1026A0000CFE10EB0E0051F1FF31CCF11E0ED5D512
:1026B0000EF1010E12FA0EFE404141EB010101EB59
:1026C000445C5FEA5C5C10D910EBDE7001EB0451F6
:1026D00038BFBEF1004FBDE8104018BF704700285A
:1026E0000CBF491C20F00100704730D24FEAD42CB7
:1026F00011F5001124F400641BD0B1FA81F20B3AF9
:10270000A41AA41ED2F12003914030FA03F3194316
:10271000904001EBCC71002C01EB0451BDE810405E
:10272000A8BF704701F1C0414FF0000001F0004127
:102730007047B0FA80F310FA03F100D110BDE41A2B
:10274000173C4805C90AE4E701EB045110BD4910E4
:1027500001EB0451BDE810404FEA300002E04FF0B9
:10276000000170474A0008BF0042F8D0B2F5001FD0
:1027700028BF704701F000414FF0000070479EEA0B
:10278000445F07D011EA5E0FBDE8104004BF00218E
:1027900000207047BDE8104070B5FFF7CBFE00BFCA
:1027A00040DFF63E83F00041104670470000E0FF36
:1027B00043004FEAD30C4FEA3C0C43401FBF400795
:1027C0000CF1605113F0FE4F70471CF0006F03D105
:1027D00000200CF0004170470CF0004343EA5070B9
:1027E00010B540EACC0000F00EF800BF00000092E7
:1027F0004FEA0001FFF7ECBE4FF000414FF0000040
:10280000A1F5002170470EF1020E2EF0030E5EF8C6
:10281000044B244204D44FEA4102B2F17F4F11D855
:102820004FEA4003B3F17F4F0CD80ED14FEAD07C72
:10283000B2F17F4F0CEB4C0C0CF1020C08BF4CEBCF
:10284000D17C04E04FF0080C01E04FEAD17C0CEBA6
:102850004C0324FA03F404F00704B4F1040C06D288
:102860000EEB840CBDE810404CF0010C6047DFE833
:102870000CF0070802024FF00040A0F5800010BDE8
:102880000846420018BFD2F1807288BF00F00040B5
:1028900010BD4FF04070E1EE100A7047FF2141EA91
:1028A000D050C0057047FFFFFFFFFFFFFFFFFFFF96
:1028B000FFFFFFFFFFFFFFFFFFFFFFFFFFFFFFFF28
:1028C000FFFFFFFFF7BEFFFFFFDEC6388C926B8E67
:1028D0006B6E7C10AD96E73CFFFFFFFFFFFFFFFF35
:1028E000FFFFFFFFFFFFFFFFFFFFFFFFFFFFFFFFF8
:1028F000FFFFFFFFFFFFFFFFFFFFFFFFFFFFFFFFE8
:10290000FFFFFFFFFFFFFFFFFFFFFFFFFFFFFFFFD7
:10291000FFFFFFFFEF5D9D15634F426C320A298870
:1029200019461925214531E86B8EC638FFFFFFFF98
:10293000FFFFFFFFFFFFFFFFFFFFFFFFFFFFFFFFA7
:10294000FFFFFFFFFFFFFFFFFFFFFFFFFFFFFFFF97
:10295000FFFFFFFFFFFFFFFFFFFFFFFFFFFFFFFF87
:10296000FFFFA53653104B1053514B0F3A6C31E912
:102970002167192510E408A30062088352CBD69A78
:10298000FFFFFFFFFFFFFFFFFFFFFFFFFFFFFFFF57
:10299000FFFFFFFFFFFFFFFFFFFFFFFFFFFFFFFF47
:1029A000FFFFFFFFFFFFFFFFFFFFFFFFFFFFE73C12
:1029B000637063B37CB863F54311324D29EA218813
:1029C0001926190519051104110410E4008308A340
:1029D0008C72FFFFFFFFFFFFFFFFFFFFFFFFFFFF07
:1029E000FFFFFFFFFFFFFFFFFFFFFFFFFFFFFFFFF7
:1029F000FFFFFFFFFFFFFFFFFFFFFFFFDEDB3A4BA5
:102A000042F06C354B5432B12A2E21EB21A91967C3
:102A1000190511041104110411041104190510E41D
:102A2000004273AFFFFFFFFFFFFFFFFFFFFFFFFF4E
:102A3000FFFFFFFFFFFFFFFFFFFFFFFFFFFFFFFFA6
:102A4000FFFFFFFFFFFFFFFFFFFFEF5D3209324C8B
:102A50004B10328F2A4F2A2E19CC198921891947F8
:102A600019051104110410C410C411041104110437
:102A700010E400428431FFFFFFFFFFFFFFFFFFFF75
:102A8000FFFFFFFFFFFFFFFFFFFFFFFFFFFFFFFF56
:102A9000FFFFFFFFFFFFFFFFFFFF52EC1947324C24
:102AA0002A0B21EC21EC220C5B914AEE110619262F
:102AB000190410E410E429A7216608A319051104DC
:102AC000110410E40082BDF7FFFFFFFFFFFFFFFFCF
:102AD000FFFFFFFFFFFFFFFFFFFFFFFFFFFFFFFF06
:102AE000FFFFFFFFFFFFFFFFA53508832188218837
:102AF000218921AA218A426B8C71FFFF8C72088385
:102B0000110408C44229DEFBEF5D5AEC088311046E
:102B100011041104088331E8FFDFFFFFFFFFFFFF0F
:102B2000FFFFFFFFFFFFFFFFFFFFFFFFFFFFFFFFB5
:102B3000FFFFFFFFFFFFF7BE31C710C4192519269D
:102B40001947194729A8528A4A28AD55FFFF31E88D
:102B500008A319056B4D6B4DFFFFEF7D214510C498
:102B60001104110411040062AD76FFFFFFFFFFFFA7
:102B7000FFFFFFFFFFFFFFFFFFFFFFFFFFFFFFFF65
:102B8000FFFFFFFFFFFFB596006211041904110556
:102B9000190508C44A8BB5B6EF5DBDF7FFFF6B8E14
:102BA000006242295AAA4208FFFFFFFF52CC088365
:102BB00011041104110408A352ADFFFFFFFFFFFF32
:102BC000FFFFFFFFFFFFFFFFFFFFFFFFE71CFFFF10
:102BD000FFFFFFFFFFFF634E0062110411041104A9
:102BE00010E40062638EFFFFFFFFFFFFFFFF73CF64
:102BF00000019CF3632CB596FFFFFFFF5B2D008364
:102C000011041104110410E42167EF3DFFFFFFFFE1
:102C1000FFFFFFFFFFFFBDF8B5B7EF9E52CB94B3A8
:102C2000FFFFFFFFFFDF31E808A3110411041104C7
:102C3000110408A34249F7FFF7FFFFFFFFFF4A6AAD
:102C400000018472FFFFFFFFF7FFEFDF3A0908A3DF
:102C500011041104110411041105BE18FFFFFFFF38
:102C6000FFFFFFFFFFFF7BF0006231E831C700414B
:102C7000A535FFFFEF5D214610C4110411041104B6
:102C8000110410E408A39D76F7FFFFFFADB708A37A
:102C900008A331C7E79EF7FFF7FFA57608A310E466
:102CA00011041104110411051105A535FFFFFFFFE3
:102CB000FFFFFFFFFFFFDEDB29A7008310C410C466
:102CC00010C4E71CEF9E110510E411041104110457
:102CD0001104190408C410E56BD16BD108C5006458
:102CE00008A50043322B9D7784B3192510C4110425
:102CF000110411041104192509269D35FFFFFFFF5A
:102D0000FFFFFFFFFFFFFFFF73AF0062190419050C
:102D100000825B0D9B8E10621105110411041904D1
:102D200010E40085110539C45A817B409C22AC43D4
:102D3000A4039B837282498218C200A400C510E4D8
:102D4000190411041905194711675AECFFBEFFFF5A
:102D5000FFFFFFFFFFFFFFDFDEDB10C410E4110405
:102D6000110518A4C001888300E41905190408C5D9
:102D700021448343D523FE42FEE4FF27FF07FEA440
:102D8000FE64FE03FDA3FCE2EC42B383622410E583
:102D900008C41904192619A821879000BCD3FFFF85
:102DA000FFFFFFFFFFFFFFDFFFFF7C100042190561
:102DB00011052883D001F84448A300E408C55A440B
:102DC000ED02FDE2FE02FE66FF74FFB8FF73F6E758
:102DD000F6A6F645F5A4FCC3FC62FCC2FCC2CBE33C
:102DE00049C411061988018790A4F8019AECFFFFE5
:102DF000FFFFFFFFFFFFFFFFFFFFF7BE31E800838C
:102E000009054082C001F823F08548A300A45A4474
:102E1000FD02CC23DCC2FE04FE28F648F646F6246A
:102E2000F5E4FD64FCE3FC62FCC2E402DC02FCE2CB
:102E30007AA40148016778C4F824F802B084E77DD9
:102E4000FFFFFFFFFFFFFFFFFFFFFFFFDEDB192597
:102E500000A338C4E002D822F844F8A678A400639E
:102E60002143728339839B82F521FD61FD22FCE2BF
:102E7000FCA2FC42FC42FC42AB22418392C35204BE
:102E80000126192598A4F844F823F802D0A4EF9E4F
:102E9000FFFFFFFFFFFFFFFFFFFFFFFFFFFFD69AD0
:102EA000298700A5B843F822E023F865F8E8C907A8
:102EB0004883004200A3008429637AA2B362CBA2B4
:102EC000D362BB028A82398300A400E500E508E5ED
:102ED00060C4D864F844F824F823F8028883C6DB79
:102EE000FFFFFFFFFFFFFFFFFFFFFFFFFFFFFFFFF2
:102EF000E73D5B503108E823F843F044F865F909F1
:102F0000F9ABD189890648A318420002004200614A
:102F1000008200620062008320A350C488A5D88587
:102F2000F865F844F844F823F823D003108229C741
:102F3000EF5DFFFFFFFFFFFFFFFFFFFFFFFFFFFF53
:102F4000FFFFFFFF326C38A5D802F823F865F8665A
:102F5000F8A7F94AFA0CFA4DEA4CD20BB9A9B168B4
:102F6000A947B127B907D107E8E7F8C7F8A7F86577
:102F7000F865F844F823F803D00228A3090508C42B
:102F80005AECFFFFFFFFFFFFFFFFFFFFFFFFFFFF09
:102F9000FFFFDEFB190500C441A7C0E6F803F88671
:102FA000F8A7F887F886F8C7F929F98AF9ABF9ABD9
:102FB000F98BF96AF929F908F8C7F8A6F886F865CF
:102FC000F864F823F002B106292500E410E419257D
:102FD00019259D14FFFFFFFFFFFFFFFFFFFFFFFF0E
:102FE000FFFFAD96006208829535CEBAA28BD04421
:102FF000F825F887F8A7F8C7F8A7F887F886F886BD
:10300000F886F887F8A7F8A7F8A6F885F865F864B1
:10301000F024B864930DB6BB63CF0883110410E4A9
:1030200021663A49EF5DFFFFFFFFFFFFFFFFFFFF54
:10303000FFFF94D3004210E4CEBBFFFFE7BEB5769E
:10304000AACCC107E045F845F846F866F886F88648
:10305000F886F886F865F845F865E865D044A84331
:1030600088019082D73CEFFF955508831104110425
:103070001905194694B3FFFFFFFFFFFFFFFFFFFF96
:10308000FFFF94B300412186DF5DFFFFFFFFFFFFDD
:10309000E7DFC67AB4D3B34EC22AD168E0E6E8A629
:1030A000E8A5E8A5D8E6C988A906A822A802A00034
:1030B000C800D800E5F7E7FFADF810C410E411042C
:1030C00010E411054A8BFFFFFFFFFFFFFFFFFFFF2B
:1030D000FFFFA555004129A7DF5DF7FFFFFFFFFFB9
:1030E000FFFFFFFFFFFFEFFFDF7DCEDBCE59CDF807
:1030F000CDD7C5F7CE79BEFBA2ABF003F845D042E1
:10310000E843F000D472DFFFAE3910E410E411049C
:1031100010E411052987FFFFFFFFFFFFFFFFFFFFFF
:10312000FFFFCE5908832146D71CF7FFFFFFFFFFA3
:10313000FFFFFFFFFFFFFFFFFFFFFFFFFFFFFFFF9F
:10314000FFFFFFFFFFFFEFFFBA8BF804F845E062D7
:10315000F044F800DB8EDFFFA5F810C410E410E4A3
:10316000110410E41925FFFFFFFFFFFFFFFFFFFF22
:10317000FFFFF7BE29870883B639F7FFF7DFFFFFA8
:10318000FFFFFFFFFFFFFFFFFFFFFFFFFFFFFFFF4F
:10319000FFFFFFFFFFFFE7BEBA4AF803F845F864F8
:1031A000F844F800E36ED7FF8CF40883110410E4B0
:1031B00010E410E41905FFFFFFFFFFFFFFFFFFFF13
:1031C000FFFFFFFF73EF00008472EFFFEFBEFFDF32
:1031D000FFFFFFFFFFFFFFFFFFFFFFFFFFFFFFFFFF
:1031E000FFFFFFFFFFFFE7DFBA8BF803F845F84565
:1031F000F823F800D4D3D7FF5B4E00213A29A55518
:10320000088310C41925FFFFFFFFFFFFFFFFFFFF2B
:10321000FFFFFFFFDEFB08A331E8DF9EE79EEFBF65
:10322000FFFFFFFFFFFFFFFFFFFFFFFFFFFFFFFFAE
:10323000FFFFFFFFFFFFF7FFBC51E002F803F003C1
:10324000E043C2ECCF7EBEFC2146002194D3FFFFB9
:10325000845100002987FFFFFFFFFFFFFFFFFFFFF3
:10326000FFFFFFFFFFFF845100008CF4EFFFE79E9C
:10327000EFBFFFDFFFFFFFFFFFFFFFFFFFFFFFFFCE
:10328000FFFFFFFFFFFFFFFFDF3DBD55BC52BC72DC
:10329000B5B7C75DDFFF6BF000003A09F7BFFFFF6E
:1032A000FFFF9D14A555FFFFFFFFFFFFFFFFFFFF7F
:1032B000FFFFFFFFFFFFFFFF4AAC08A4BEBBE7DF35
:1032C000E77EEFBEF7DFFFDFFFFFFFFFFFFFFFFF40
:1032D000FFFFFFFFFFFFFFDFF7DFEFFFDFDFD7BFFE
:1032E000D79EDFDFA5D808831126D6DBFFFFFFFFBF
:1032F000FFFFFFFFFFFFFFFFFFFFFFFFFFFFFFFFDE
:10330000FFFFFFFFFFFFEE79DC8B312121A9CF3DCD
:10331000DFBFDF7EE79EEFBEEFBFF7DFF7DFF7DF50
:10332000F7DFF7DFEFBFEFBEE79EDF7ED75ED75E4A
:10333000DFDFB69A19260842A3EDFFBFFFFFFFFFAC
:10334000FFFFFFFFFFFFFFFFFFFFFFFFFFFFFFFF8D
:10335000FFFFFFFFDD74DBC0FE00EE424202218969
:10336000B67BDFDFD77EDF7EDF7EE79EE79EE79ED0
:10337000E79EE79EDF7EDF7ED75DD75DDF9EE7FFBE
:10338000A5F8110718E3C502FD60D3E6EEDBFFFFE9
:10339000FFFFFFFFFFFFFFFFFFFFFFFFFFFFFFFF3D
:1033A000FFFFF79EBA84FCC1FE42FE82FEA283812B
:1033B00021457474C75EDFDFD77ED75ED75DD75EE9
:1033C000D75ED75DD75DD75EDF9EE7FFC73D63F170
:1033D00008845242E626FF29FE86F3E0C36AFFFF17
:1033E000FFFFFFFFFFFFFFFFFFFFFFFFFFFFFFFFED
:1033F000FFFFDE18D2C1FDA2FE22FE42FE42FE62A7
:10340000D4E26A4142497453A63BC73ED7BFD7BFF7
:10341000D7BFDFBFD7BFC73EA61A63F229A7418235
:10342000B422FE62FE83FEAAFF0FFD67BA63EF3C83
:10343000FFFFFFFFFFFFFFFFFFFFFFFFFFFFFFFF9C
:10344000FFFFE69AD280FD21FDC2F5E2F5C2F582CA
:10345000FD82FD62DC619B216A846AE9632C63AFB3
:103460007411636E632C5A8952047A81CBC2FCE2D8
:10347000FD62FD82FDC2FDC2FDE4FD24CA62E71CBF
:10348000FFFFFFFFFFFFFFFFFFFFFFFFFFFFFFFF4C
:10349000FFFFFFFFCCB1D281F3C0FCC1FD02FD02F2
:1034A000FCE2FCC2FCC2FC81FB80C9C081A4AD353A
:1034B000CE599C718121DA00FBA1FC82FCA2FC8226
:1034C000FCA2FD02FD22FCE2FC00DA60CC90FFFFD2
:1034D000FFFFFFFFFFFFFFFFFFFFFFFFFFFFFFFFFC
:1034E000FFFFFFFFFFFFDE59C40DCB06D2E4DB0375
:1034F000DB03DAE3D2C3C2A4B309BCD2F79EFFFF59
:10350000FFFFFFFFE6FBB40EBAA6D283E2E3EB02B5
:10351000EB22E322DB03D2E4C36AD5B6FFFFFFFF51
:10352000FFFFFFFFFFFF00000000000000000000A1
:103530000000000000000000000808080808080853
:1035400000001818000000486C2412000000000061
:103550000000000000000000002424247F1212124A
:103560007F12121200000000081C2A2A0A0C1828D8
:10357000282A2A1C080800000022251515152A589B
:103580005454542200000000000C1212120A762536
:103590002911916E000000060604030000000000DF
:1035A0000000000000000040201010080808080873
:1035B000081010204000000204080810101010101D
:1035C0001008080402000000000008086B1C1C6BB7
:1035D00008080000000000000000080808087F0834
:1035E00008080800000000000000000000000000C3
:1035F0000000060604030000000000000000FE00BA
:1036000000000000000000000000000000000000BA
:103610000000060600000000804040202010100836
:103620000804040202000000001824424242424200
:10363000424224180000000000080E08080808088C
:103640000808083E00000000003C424242202010D2
:103650000804427E00000000003C42422018204046
:103660004042221C00000000002030282424222296
:103670007E20207800000000007E0202021A264010
:103680004042221C0000000000382402021A264298
:103690004242241800000000007E22221010080878
:1036A0000808080800000000003C42424224182498
:1036B0004242423C0000000000182442424264584A
:1036C0004040241C0000000000000000181800000A
:1036D00000001818000000000000000000080000B2
:1036E0000000000808040000004020100804020444
:1036F0000810204000000000000000007F000000D3
:103700007F0000000000000000020408102040209C
:103710001008040200000000003C42424640201015
:103720001000181800000000001C225A555555556D
:103730002D42221C00000000000808181414243C2C
:10374000224242E700000000001F2222221E2242E5
:103750004242221F00000000007C424201010101A0
:103760000142221C00000000001F2242424242424D
:103770004242221F00000000003F4212121E12129D
:103780000242423F00000000003F4212121E12128D
:103790000202020700000000003C22220101017128
:1037A0002122221C0000000000E7424242427E42E9
:1037B000424242E700000000003E080808080808EE
:1037C0000808083E00000000007C101010101010C7
:1037D00010101010110F0000007722120A0E0A12AA
:1037E00012222277000000000007020202020202F9
:1037F0000202427F000000000077363636362A2A61
:103800002A2A2A6B0000000000E346464A4A525228
:103810005262624700000000001C224141414141C8
:103820004141221C00000000003F424242423E0251
:103830000202020700000000001C224141414141F8
:103840004D53321C60000000003F4242423E1212C3
:10385000222242C700000000007C424202041820DD
:103860004042423E00000000007F49080808080866
:103870000808081C0000000000E7424242424242A1
:103880004242423C0000000000E74242222424144D
:103890001418080800000000006B494949495555B3
:1038A000362222220000000000E7422424181818C3
:1038B000242442E7000000000077222214140808A4
:1038C0000808081C00000000007E212010100804D9
:1038D0000442423F00000078080808080808080869
:1038E000080808087800000002020404080808100C
:1038F000102020204040001E10101010101010103A
:10390000101010101E0000384400000000000000DD
:1039100000000000000000000000000000000000A7
:103920000000000000FF000608000000000000008A
:10393000000000000000000000000000003C427891
:10394000444242FC0000000000030202021A264228
:103950004242261A00000000000000000038440225
:1039600002024438000000000060404040784442B9
:10397000424264D80000000000000000003C427E8B
:103980000202423C0000000000F08808087E08089F
:103990000808083E0000000000000000007C222211
:1039A0001C023C42423C000000030202023A464232
:1039B000424242E700000000000C0C00000E080824
:1039C0000808083E000000000030300000382020C9
:1039D00020202020221E0000000302020272120A90
:1039E0001612227700000000000E080808080808D8
:1039F0000808083E0000000000000000007F9292CE
:103A0000929292B70000000000000000003B464286
:103A1000424242E70000000000000000003C424239
:103A20004242423C0000000000000000001B264211
:103A30004242221E020700000000000000784442BB
:103A40004242447840E000000000000000774C044F
:103A50000404041F0000000000000000007C42027B
:103A60003C40423E0000000000000008083E0808FC
:103A70000808083000000000000000000063424217
:103A8000424262DC000000000000000000E7422427
:103A900024140808000000000000000000EB494961
:103AA0005555222200000000000000000076241876
:103AB0001818246E000000000000000000E74224F7
:103AC000241418080807000000000000007E2210DF
:103AD0000808447E000000C0202020202010202064
:103AE00020202020C00010101010101010101010F6
:103AF0001010101010100006080808080810080818
:103B00000808080806000C32C2000000000000008F
:103B100000000000000000000000000000000000A5
:103B20000000000000000000000000000000000095
:103B30000000000000000000000000000000000085
:103B40000000000000000000000000000000000075
:103B50000000000000000000000000000000000065
:103B6000C001C001C001C001C001C001C00180008E
:103B70008000800080008000800080000000000045
:103B8000000000008001C003C003800100000000AD
:103B9000000000000000000000000000E01CE01C2D
:103BA000F01E700E380718030801840000000000A2
:103BB0000000000000000000000000000000000005
:103BC00000000000000000000000000000000000F5
:103BD00000000000000000000000000000000000E5
:103BE000000020102010201020102010FE7FFE7FEB
:103BF0001008100810081008100810081008FE7FA0
:103C0000FE7F0804080408040804080400000000FB
:103C100000000000000000000000000000000001A3
:103C20000001C007601910311831183918393801EE
:103C30007001E001C0038007000F001D0039003152
:103C40001C311C310C310C11180DE0070001000172
:103C50000001000000000000000000000000000063
:103C600000001C1036186308630C630463046302CD
:103C700063026301361D9C3780228063406340638A
:103C800020632063306310221836081C00000000F7
:103C90000000000000000000000000000000000024
:103CA0000000F00098018C018C018C018C018C00CB
:103CB000CC007800183E1C08360832086304630400
:103CC000C304C303834306438E26781C0000000010
:103CD0000000000000000000000000001C003C008C
:103CE0003C003000300010000C0006000000000016
:103CF00000000000000000000000000000000000C4
:103D000000000000000000000000000000000000B3
:103D10000000000000000000000000000040002043
:103D200000100008000C000400060003000300035C
:103D3000800180018001800180018001800180017B
:103D400000030003000300060006000C000800103A
:103D500000200040000000000000000002000400FD
:103D600008001000300020006000C000C000C0004B
:103D7000800180018001800180018001800180013B
:103D8000C000C000C00060006000300010000800EB
:103D9000040002000000000000000000000000001D
:103DA00000000000000000018003800300011C717E
:103DB0003C79783DC0070001C007783D3C791C7113
:103DC000000180038003800100000000000000006B
:103DD00000000000000000000000000000000000E3
:103DE00000000000000000000001000100010001CF
:103DF000000100010001FC7F000100010001000141
:103E000000010001000100000000000000000000AF
:103E100000000000000000000000000000000000A2
:103E20000000000000000000000000000000000092
:103E30000000000000000000000000000000000082
:103E40000000000000001C003C003C00300030007E
:103E500010000C0006000000000000000000000040
:103E60000000000000000000000000000000000052
:103E7000000000000000FE7F0000000000000000C5
:103E80000000000000000000000000000000000032
:103E90000000000000000000000000000000000022
:103EA0000000000000000000000000000000000012
:103EB0000000000000000000000000000000000002
:103EC0000000000018003C003C001800000000004A
:103ED0000000000000000000000000000040006042
:103EE00000200030001000180008000C000400063C
:103EF00000020003000180018000C000400060005B
:103F0000200030001000180008000C00040006001B
:103F1000020000000000000000000000000000009F
:103F20000000C007600C30181830183018200C60E2
:103F30000C600C600C600C600C600C600C600C6021
:103F40001820183018303018600CC007000000002E
:103F50000000000000000000000000000000000061
:103F6000000000018001F8018001800180018001D2
:103F70008001800180018001800180018001800139
:103F80008001800180018001C003F81F0000000053
:103F90000000000000000000000000000000000021
:103FA0000000E007101C0818043004300C300C30FE
:103FB00000300018000800040002000180004000EA
:103FC0002020102008200430FC1FFC1F00000000EF
:103FD00000000000000000000000000000000000E1
:103FE0000000E003180E0C0C0C180C180C1800182C
:103FF000000C0006C003000E001800100030003056
:104000000C300C300C100C18180CE00300000000F1
:1040100000000000000000000000000000000000A0
:104020000000000C000E000E000F800E800E400EEF
:10403000600E200E100E100E080E040E040EFE7FF1
:10404000000E000E000E000E000E000EC07F0000DD
:104050000000000000000000000000000000000060
:104060000000F03FF03F10001000100008000800B2
:10407000C807280C18180810003000300030003035
:104080000C300C3004180418080CF0030000000079
:104090000000000000000000000000000000000020
:1040A0000000800FC01020301030180018000800E9
:1040B0000C008C0F6C183C301C600C600C600C60A9
:1040C0000C601860182030306018C0070000000035
:1040D00000000000000000000000000000000000E0
:1040E0000000F83FF83F1C100C080408040400040A
:1040F0000002000200010001000180008000800039
:10410000C000C000C000C000C000C000000000002F
:10411000000000000000000000000000000000009F
:104120000000E007300C18180C300C300C301C303C
:1041300038187008E007B007180E0C1C0638063057
:104140000630063006300C18180CE00300000000A2
:10415000000000000000000000000000000000005F
:104160000000E00318040C080C1806100630063096
:104170000630063006380C3C1836F0310030001896
:10418000001800180C0C0C060C03F00100000000D5
:10419000000000000000000000000000000000001F
:1041A000000000000000000000000000000000000F
:1041B0008001C003C0038001000000000000000077
:1041C000000000008001C003C00380010000000067
:1041D00000000000000000000000000000000000DF
:1041E00000000000000000000000000000000000CF
:1041F000C000C0000000000000000000000000003F
:104200000000000000000000C000C000800080002E
:10421000400040000000000000000000000000001E
:104220000020001000080004000600038001C00008
:104230006000300018000C00180030006000C00062
:1042400080010003000600040008001000200000A8
:10425000000000000000000000000000000000005E
:10426000000000000000000000000000000000004E
:10427000FE7F00000000000000000000FE7F000044
:10428000000000000000000000000000000000002E
:10429000000000000000000000000000000000001E
:1042A00004000800100020006000C000800100032E
:1042B0000006000C001800300018000C0006000377
:1042C0008001C00060002000100008000400000011
:1042D00000000000000000000000000000000000DE
:1042E000C0073018083008600C601C601C601C603F
:1042F0000030001C0006000180008000800080006B
:10430000000000008001C003C00380010000000025
:10431000000000000000000000000000000000009D
:104320000000C0076018103018200C2F8C4D864CF0
:10433000C64CC64C664C66446644662666266615C0
:10434000CC1C0C40082018303018C00700000000BA
:10435000000000000000000000000000000000005D
:104360000001C001C001C00140016003200320031F
:1043700020033006100610061006F80F080C080C73
:10438000080C0C0C0418041806181F7C0000000010
:10439000000000000000000000000000000000001D
:1043A0000000FE07181C1838183018301830183064
:1043B0001818180CF807181818301820186018600A
:1043C00018601860186018301818FE0F0000000000
:1043D00000000000000000000000000000000000DD
:1043E0000000C0276038103018200C400C4004003A
:1043F000060006000600060006000600060006008D
:104400000C400C400C2018303018C0070000000091
:10441000000000000000000000000000000000009C
:104420000000FE03180E18181830183018301860E5
:1044300018601860186018601860186018601860BC
:104440001830183018101818180EFE03000000005D
:10445000000000000000000000000000000000005C
:104460000000FE3F18301820186018401800180887
:104470001808180CF80F180C18081808180018005D
:1044800018001840184018201830FE3F00000000A7
:10449000000000000000000000000000000000001C
:1044A0000000FE7F1870184018C0188018001810FF
:1044B00018101818F81F18181810181018001800DD
:1044C000180018001800180018007E0000000000F6
:1044D00000000000000000000000000000000000DC
:1044E0000000C013701C101018100C200C200400C9
:1044F0000600060006000600060006FC0630063030
:104500000C300C30183018303008C00700000000A4
:10451000000000000000000000000000000000009B
:1045200000003F7E0C180C180C180C180C180C18F6
:104530000C180C180C18FC1F0C180C180C180C1864
:104540000C180C180C180C180C183F7E00000000FA
:10455000000000000000000000000000000000005B
:104560000000F81F8001800180018001800180012E
:104570008001800180018001800180018001800133
:1045800080018001800180018001F81F000000008F
:10459000000000000000000000000000000000001B
:1045A0000000E07F00060006000600060006000688
:1045B00000060006000600060006000600060006CB
:1045C00000060006000600060006000600060E06AD
:1045D0000E038E01FC00000000000000000000003F
:1045E00000007E7C18181808180418061802180114
:1045F00098019801D801B803380318071806180E57
:10460000180C181C1818183018307EFC0000000018
:10461000000000000000000000000000000000009A
:1046200000007E001800180018001800180018007C
:1046300018001800180018001800180018001800BA
:1046400018001840184018201830FE3F00000000E5
:10465000000000000000000000000000000000005A
:1046600000001FF81C381C381C381C3C343434340F
:104670003434343674326432643264326431C43176
:10468000C431C431C430C43084309FFC0000000009
:10469000000000000000000000000000000000001A
:1046A00000001F7C1C103C10341034107410641077
:1046B000E410C410C41184118413041304170416E5
:1046C000041E041C041C041C04181F180000000015
:1046D00000000000000000000000000000000000DA
:1046E0000000C003300C181808100C300C300660A5
:1046F000066006600660066006600660066006608A
:104700000C200C3008101818300CC00300000000FA
:104710000000000000000000000000000000000099
:104720000000FE0F18181830186018601860186024
:10473000186018301818F80F180018001800180022
:10474000180018001800180018007E000000000073
:104750000000000000000000000000000000000059
:104760000000C003300C18180C100C300C20066030
:104770000660066006600660066006600660066009
:10478000E4612C331C321816300EC007004C007C3C
:1047900000380000000000000000000000000000E1
:1047A0000000FE07181C1838183018301830183060
:1047B0001818180CF8079803180318071806180695
:1047C000180E180C180C181C18187E780000000021
:1047D00000000000000000000000000000000000D9
:1047E0000000E027303818300C200C200C000C00A2
:1047F00018007800E003800F001E00380070006091
:1048000004600460086018303818C80F0000000009
:104810000000000000000000000000000000000098
:104820000000FC3F8C218461824182418001800133
:104830008001800180018001800180018001800170
:1048400080018001800180018001E00700000000FC
:104850000000000000000000000000000000000058
:1048600000003F7C0C100C100C100C100C100C10E5
:104870000C100C100C100C100C100C100C100C1058
:104880000C100C100C1008083804E00300000000A5
:104890000000000000000000000000000000000018
:1048A00000003EF81820182018203010301030106A
:1048B0003010600860086008E00CC004C004C00448
:1048C00080038003800380030001000100000000DA
:1048D00000000000000000000000000000000000D8
:1048E0000000DFF38661862186218C210C218C2338
:1048F0008C138C138C134C1358125816580E380EF8
:10490000380E380E300C10041004100400000000A3
:104910000000000000000000000000000000000097
:1049200000007E3E1808380830043004700260022F
:10493000E001C001C0018001800340034007200660
:104940002006100C100C081808183E7C000000000F
:104950000000000000000000000000000000000057
:1049600000007E7C1C10181018083008300C7004F1
:1049700060046002C002C002C001800180018001A9
:1049800080018001800180018001E00700000000BB
:104990000000000000000000000000000000000017
:1049A0000000F83F18180818040C040E0006000751
:1049B000000380038001C001C000E00060007000BF
:1049C0003000382018201C100C18FE1F00000000BA
:1049D000000000000000000000000000C03F400098
:1049E00040004000400040004000400040004000C7
:1049F00040004000400040004000400040004000B7
:104A000040004000400040004000400040004000A6
:104A1000C03F000000000000000000000000000097
:104A2000080018001800100030002000600060002E
:104A30004000C000800080018001000100030002EE
:104A4000000600060004000C000800180018001002
:104A5000003000200000000000000000FC03000205
:104A60000002000200020002000200020002000236
:104A70000002000200020002000200020002000226
:104A80000002000200020002000200020002000216
:104A9000FC03000000000000000000008007C006CA
:104AA00020081010000000000000000000000000BE
:104AB00000000000000000000000000000000000F6
:104AC00000000000000000000000000000000000E6
:104AD00000000000000000000000000000000000D6
:104AE00000000000000000000000000000000000C6
:104AF00000000000000000000000000000000000B6
:104B000000000000000000000000000000000000A5
:104B100000000000FFFF0000000000007800C0005F
:104B20000001000000000000000000000000000084
:104B30000000000000000000000000000000000075
:104B40000000000000000000000000000000000065
:104B50000000000000000000000000000000000055
:104B60000000000000000000000000000000000045
:104B7000F00318060C0C0C0C000C800F700C1C0CB5
:104B80000C0C060C060C064C0C4FF838000000000C
:104B90000000000000000000000000000000000015
:104BA00010001E0018001800180018001800180047
:104BB000180FD818383038601860186018601860FE
:104BC00018601860182038307818C80700000000F6
:104BD00000000000000000000000000000000000D5
:104BE00000000000000000000000000000000000C5
:104BF000C007700C181818180C180C000C000C00CA
:104C00000C000C20182018103008C007000000000D
:104C10000000000000000000000000000000000094
:104C20000010001E001800180018001800180018C6
:104C3000E01B301C181818180C180C180C180C183D
:104C40000C180C180818181C307AE0090000000035
:104C50000000000000000000000000000000000054
:104C60000000000000000000000000000000000044
:104C7000C007300C181808100C300C30FC3F0C002A
:104C80000C000C00182018107018C007000000005D
:104C90000000000000000000000000000000000014
:104CA0000000003E80C380C0C0C0C000C000C00083
:104CB000FC1FC000C000C000C000C000C000C00099
:104CC000C000C000C000C000C000F80F000000001D
:104CD00000000000000000000000000000000000D4
:104CE00000000000000000000000000000000000C4
:104CF000C077306C10181818181818181018300CC5
:104D0000F00718001800F00FF03F08700C600C60FE
:104D10000C603838E00F00000000000000000000C8
:104D200010001E00180018001800180018001800C5
:104D3000980FD8183830183018301830183018300C
:104D4000183018301830183018307EFC0000000081
:104D50000000000000000000000000000000000053
:104D600000008003800380030000000000000001B9
:104D7000F8018001800180018001800180018001B3
:104D800080018001800180018001F81F0000000087
:104D90000000000000000000000000000000000013
:104DA000000000380038003800000000000000104B
:104DB000801F0018001800180018001800180018AC
:104DC0000018001800180018001800180018001823
:104DD000180C1806F003000000000000000000009E
:104DE00010001E0018001800180018001800180005
:104DF000183E180C1806180318019801D80138033A
:104E000018071806180C181C18187E7C00000000E3
:104E10000000000000000000000000000000000092
:104E20000001F80180018001800180018001800182
:104E3000800180018001800180018001800180016A
:104E400080018001800180018001F81F00000000C6
:104E50000000000000000000000000000000000052
:104E6000000000000000000000000000000008003A
:104E7000EE1C9C338C318C318C318C318C318C31EB
:104E80008C318C318C318C318C31DE7B0000000018
:104E90000000000000000000000000000000000012
:104EA00000000000000000000000000000001000F2
:104EB0001E0FD81838301830183018301830183005
:104EC000183018301830183018307EFC0000000000
:104ED00000000000000000000000000000000000D2
:104EE00000000000000000000000000000000000C2
:104EF000C007701C103018300C600C600C600C6027
:104F00000C600C60183018303018C007000000002A
:104F10000000000000000000000000000000000091
:104F20000000000000000000000000000000100071
:104F30009E0F5818383018201860186018601860D4
:104F40001860186018303830781898071800180062
:104F5000180018007E0000000000000000000000A3
:104F60000000000000000000000000000000000041
:104F7000C023303C183818300C300C300C300C305A
:104F80000C300C3008301838303CE0330030003042
:104F90000030003000FC00000000000000000000B5
:104FA00000000000000000000000000000006000A1
:104FB0007E3C60666061E000E000600060006000D0
:104FC00060006000600060006000FE0700000000FC
:104FD00000000000000000000000000000000000D1
:104FE00000000000000000000000000000000000C1
:104FF000E02730381830182018007000E003800FC8
:10500000001C043004300C301C18EC0F00000000B1
:105010000000000000000000000000000000000090
:10502000000000000000800080008000C000E00060
:10503000FC1FC000C000C000C000C000C000C00015
:10504000C000C000C020C0208011000F0000000080
:105050000000000000000000000000000000000050
:105060000000000000000000000000000000102010
:105070001E3C1830183018301830183018301830DE
:10508000183018301830183830F4E01300000000E1
:105090000000000000000000000000000000000010
:1050A0000000000000000000000000000000000000
:1050B0007E3C18181808380830043004700260026A
:1050C0006002E001C001C001C000800000000000DB
:1050D00000000000000000000000000000000000D0
:1050E00000000000000000000000000000000000C0
:1050F000DFF78E630C238C238C2398139813581698
:105100005816700E700E700E20042004000000006F
:10511000000000000000000000000000000000008F
:10512000000000000000000000000000000000007F
:10513000FC3E70087004E004C002C00180038003DC
:1051400040076006200C100C18183E7E000000007E
:10515000000000000000000000000000000000004F
:10516000000000000000000000000000000000003F
:105170007E7C181818083008300830046004600479
:10518000C002C002C0028001800180018000800056
:1051900080004C003C000000000000000000000007
:1051A00000000000000000000000000000000000FF
:1051B000FC1F0C0C040E0406000380038001C000D9
:1051C000E0007020302038301C18FC1F0000000068
:1051D0000000000000000000000000000030000897
:1051E000000400040004000400040004000400049F
:1051F0000004000400028001000200040004000416
:10520000000400040004000400040004000400047E
:105210000008003000000001000100010001000151
:105220000001000100010001000100010001000176
:105230000001000100010001000100010001000166
:105240000001000100010001000100010001000156
:105250000001000100010000000000000C0010002F
:10526000200020002000200020002000200020003E
:10527000200020004000800140002000200020008D
:10528000200020002000200020002000200020001E
:1052900010000C00000000003800C40086400261CD
:1052A0000022001C000000000000000000000000C0
:1052B00000000000000000000000000000000000EE
:1052C00000000000000000000000000000000000DE
:1052D000000000000000D6D0800080008000800028
:1052E000FC1F84108410841084108410FC1F841010
:1052F0008000800080008000BEB0F80F0808F80F22
:105300000808F80F8000FF7F0000F80F0808080861
:10531000F80F80008410A2204000D4B00000FE3FAF
:105320000220F22702200220FA2F2221222122210C
:10533000122912290A2E0220FE3F0220B5E7800022
:1053400080008000FC1F841084108410FC1F8410D7
:1053500084108410FC1F845080408040007FD7D38D
:105360000000FE1F00080004000280018000FF7F93
:10537000800080008000800080008000A00040004D
:10538000D6D000000000000000180000080000084F
:1053900000000800080818F8FF1F18081818081857
:1053A000180818180818180818180818F8FF1F08FF
:1053B00008080008000008000008000008000018A5
:1053C00000001800001800000000BEB0000000003F
:1053D0000000400006C0FF07400006C0FF07400075
:1053E00006C0FF07400802003000FEFF3F0000003B
:1053F000C0FF07C00002C00002C00002C0FF03805F
:10540000100080110160100E3010180C1E30001CAE
:1054100000000000D4B0000000000000080030F8D8
:10542000FF1F08001008C010083F100800100800F7
:1054300010080013C8FF10082210082210082210BC
:1054400008221008211208211488601648C0132869
:105450000010080010F8FF1F080010000000B5E75A
:105460000000000000000018000008000008000014
:105470000800F0FF0F1008041008041008041008BA
:1054800004F0FF07100804100804100804100804B2
:10549000F0FF0710080000081000081000082000A6
:1054A000183000F01F000000D7D3000000000000FB
:1054B000000004F0FF0F00000600000100C0000023
:1054C0002800001800001800001830FEFF7F0018A8
:1054D0000000180000180000180000180000180054
:1054E000001800001800001800001F00000C000049
:1054F0000000D6D000000000000000000080000086
:105500000080010000800100008001000080010097
:10551000008001001080010CF0FFFF0F30800104BB
:1055200030800104308001043080010430800104A7
:10553000308001043080010430800104F0FFFF0757
:1055400030800104308001040080010000800100EF
:105550000080010000800100008001000080010047
:105560000080010000800100008001000080000038
:1055700000000000BEB000000000000000000000BD
:1055800000000001800100FFFF0100038001000313
:10559000800100FFFF01000380010003800100FF84
:1055A000FF0100818100000003000000031CFCFFDC
:1055B000FF3F000040000003C00100FFFF010003A7
:1055C000C0000003C0000003C00000FFFF00000196
:1055D000410000040100000E7100000781018001FC
:1055E00001076000010E1898011C04E0011800C0BA
:1055F000000000000000D4B0000000000000000027
:1056000000000008F0FFFF1F3000000C3000000C0D
:105610003000100C30FE3F0C3004000C3000000C49
:105620003000000C3000000C3000C00CF0FFFF0D0B
:105630003030060E3030060C3010060C3010060CE0
:105640003010060C3018860C3018860C3008060D09
:10565000300C860D3006EE0F3002FC0D3001000CD0
:10566000F000000C3000000CF0FFFF0F3000000CC9
:105670001000000400000000B5E70000000000007A
:10568000000000C0000000C0010000C0000000C019
:10569000000000C0000000C00000E0FFFF0360C089
:1056A000000360C0000360C0000360C0000360C06E
:1056B000000360C00003E0FFFF0360C0000360C0A0
:1056C000000360C0000360C0000360C00003E0FF8F
:1056D000FF0360C0000160C0000000C0000800C0FF
:1056E000001000C0001000C0001800C00138008089
:1056F000FF1F0000000000000000D7D300000000E2
:10570000000000000000000000000003C0FFFF07D1
:10571000000080070000C0000000600000001800CA
:1057200000000C00008003000080030000800100E6
:10573000008001080080011CFCFFFF3F0080010089
:105740000080010000800100008001000080010055
:105750000080010000800100008001000080010045
:1057600000800100008001000080010000FC0100B9
:1057700000E0000000400000000000009C5700080E
:105780000000002030000000C4010008CC570008D1
:105790003000002028070000E0010008007A030A1A
:1057A00000000000000000000102030406070809D1
:1057B00000000000000000000000000000000102E6
:0C57C000030401020304060708090000AE
:040000050800018965
:00000001FF
