:020000040800F2
:10000000080400209D010008F11C00082B120008C4
:10001000ED1C00082D050008991E000800000000D6
:10002000000000000000000000000000CD1D0008DE
:1000300031050008000000002D1D0008CF1D00083C
:10004000B7010008B7010008B7010008B7010008B0
:10005000B7010008B7010008B7010008B7010008A0
:10006000B7010008B7010008B7010008B701000890
:10007000B7010008B7010008B7010008B701000880
:10008000B7010008B7010008B7010008B701000870
:10009000B7010008B7010008B7010008B701000860
:1000A000B7010008B7010008B7010008B701000850
:1000B000B7010008B7010008B7010008B701000840
:1000C000B7010008B7010008B7010008B701000830
:1000D000B7010008B7010008B7010008B701000820
:1000E000B7010008B7010008B7010008B701000810
:1000F000B7010008B7010008B7010008B701000800
:10010000B7010008B7010008B7010008B7010008EF
:10011000B7010008B7010008B7010008B7010008DF
:10012000B7010008B7010008B7010008B7010008CF
:10013000B7010008B7010008B7010008B7010008BF
:10014000B7010008B7010008B7010008B7010008AF
:10015000B7010008B7010008B7010008B70100089F
:10016000B7010008B7010008B7010008B70100088F
:10017000B7010008B7010008B7010008000000003F
:10018000B7010008B7010008DFF80CD000F0ACF9A7
:1001900000480047C91E00080804002006488047A0
:1001A00006480047FEE7FEE7FEE7FEE7FEE7FEE75C
:1001B000FEE7FEE7FEE7FEE7491E000889010008AA
:1001C0002DE9FE4F804681EA0300C00F0C460090E7
:1001D00021F0004123F00045B8EB0200A94105D20F
:1001E0004046214690461C460B46024623F00040FE
:1001F000104347D0270DC7F30A00C3F30A510290FA
:10020000401A019040286BDAC3F3130040F4801BBE
:100210000098924620B10023D2EB030A63EB0B0B4C
:1002200001985946C0F14002504600F0A7F8064632
:100230000D4650465946019A00F0AFF810EB080001
:100240006141002487EA115284EAE7731A4340D0DF
:10025000009A62B3019A012A4FEA075215DC001B8B
:1002600061EB02014FF0004202EA0752CDE9004281
:10027000001C41F5801132462B4600F0E6F803B031
:1002800000F045B840462146F9E7001B61EB02014A
:10029000001C41F5801300185B412018A2F50017DF
:1002A00047EB030140EAD570B6196D4111E06D08C6
:1002B0004FEA360645EAC0754FEA0752001B61EB6C
:1002C0000201001C41F5801149084FEA3000001975
:1002D000514132462B4603B000F01CB800F0A6B8DE
:1002E0000098012240000023D0EB020263EBE07390
:1002F000009821464FEAE074B8EB000061EB04017E
:10030000E9E783F000435BE781F0004158E730BC48
:10031000BDE8C08F30BCBDE8C04FFFF7DFBF00F0C5
:10032000004230F000400AD0C10D01F56071C0F309
:10033000160042EA0151C2084007114370470020ED
:100340000146704701F0004330B421F0004150EA0B
:10035000010206D00A0DA2F56072C1F31301002A52
:1003600002DC30BC00207047440F44EAC104C100E5
:10037000E01830BC00EBC25000F021B8202A04DBAA
:10038000203A00FA02F1002070479140C2F12003A8
:1003900020FA03F3194390407047202A06DBCB175D
:1003A000203A41FA02F043EAE07306E041FA02F330
:1003B000D040C2F1200291400843194670470029FD
:1003C000A8BF7047401C490008BF20F001007047DB
:1003D00010B4B0FA80FC00FA0CF050EA010404BF3B
:1003E00010BC704749B1CCF1200421FA04F411FA91
:1003F0000CF118BF012121430843A3EB0C01CB1DD5
:100400004FEA00614FEA102042BF002010BC704745
:1004100000EBC35010440029A4BF10BC7047401C1F
:10042000490008BF20F0010010BC704710B5141E31
:1004300073F1000408DA401C41F1000192185B419D
:100440001A4301D120F0010010BD2DE9F04D924674
:100450009B4611B1B1FA81F202E0B0FA80F220328B
:100460009046FFF78BFF04460F4640EA0A0041EA38
:100470000B0153465A46084313D0114653EA010074
:1004800019D0C8F14002504600F040F805460E462B
:10049000504659464246FFF771FF084305D00120F8
:1004A00004E020463946BDE8F08D0020054346EAC9
:1004B000E0762C4337430A986305E40AA0EB080072
:1004C0000022FD0A44EA47540A3002D500200146C2
:1004D000E9E7010510196941DDE90845001969419D
:1004E000BDE8F04DA2E70000064C074D06E0E068CD
:1004F00040F0010394E8070098471034AC42F6D36B
:10050000FFF746FEBC4F0008DC4F0008202A04DB42
:10051000203A21FA02F00021704721FA02F3D0407C
:10052000C2F12002914008431946704700BFFEE720
:10053000704770B5044600F015F906462546681C5C
:1005400000B16D1C00BF00F00DF9801BA842FAD36A
:1005500070BD000078B503460022E5E00126964014
:100560000D6805EA0604002C7DD04D68022D02D0EE
:100570004D68122D13D1D60803F1200555F8260039
:100580005507EE0E0F25B540A8435607F60E0D6928
:10059000B5402843D60803F1200545F82600186821
:1005A00056000325B540A8430D7905F00305560014
:1005B000B540284318604D68012D08D04D68022DC4
:1005C00005D04D68112D02D04D68122D13D19868B9
:1005D00056000325B540A8435600CD68B5402843D2
:1005E0009860586801259540A8430D79C5F300151A
:1005F0009540284358600D7905F00305032D09D176
:10060000D86A01259540A8430D79C5F3C0059540EA
:100610002843D862D86856000325B540A843560041
:100620008D68B5402843D8604D6805F08055B5F118
:10063000805F78D100BF3F4D2D6E45F001053D4EE6
:10064000356635462D6E05F00105009500BF00BFEB
:100650004FEAB635960855F8260095072E0F0F2558
:10066000B540A84300E05EE0B3F1904F01D1002512
:100670001EE0314DAB4201D1012519E02F4DAB42B7
:1006800001D1022514E02E4DAB4201D103250FE02C
:100690002C4DAB4201D104250AE02B4DAB4201D1D8
:1006A000052505E0294DAB4201D1062500E00725CF
:1006B0009607360FB5402843254D960845F8260085
:1006C000244D2868A0434D6805F48035B5F5803F7A
:1006D00000D120431F4D28602D1D2868A0434D6880
:1006E00005F40035B5F5003F00D12043194D2D1D0F
:1006F00028602D1D2868A0434D6805F48015B5F5C8
:10070000801F00D12043134D083528602D1D286817
:10071000A0434D6805F40015B5F5001F00D1204336
:100720000C4D0C352860521C0D68D540002D7FF40F
:1007300015AF78BD001002400004004800080048D2
:10074000000C004800100048001400480018004841
:1007500008000140000401400AB1816100E08162AB
:100760007047000001480068704700000400002046
:1007700002480068401C01490860704704000020DE
:1007800010B50024032000F065F8002000F008F800
:1007900008B1012401E000F01BF8204610BD000064
:1007A00070B504460025094800684FF47A71B0FB23
:1007B000F1F6304600F01BFD08B1012504E00022EF
:1007C0002146501E00F005F8284670BD00000020AC
:1007D00070472DE9F05F80460D461646002701F070
:1007E00089FA074639462A46334601F00700C0F128
:1007F000070ABAF1040F02D94FF0040A01E0C0F170
:10080000070AD14600F1040ABAF1070F02D24FF0ED
:10081000000A01E0A0F1030AD4464FF0010A0AFAE7
:1008200009FAAAF1010A0AEA020A0AFA0CFA4FF0D6
:10083000010B0BFA0CFBABF1010B0BEA030B4AEAC1
:100840000B042146404601F05DFA00F000B830BCD0
:10085000BDE8C09F00BF00F00702064B19684FF6C5
:10086000FF031940044B0B4343EA0221014B19607B
:1008700000BF70470CED00E00000FA050246B2F53B
:10088000007F2AD11D48006800F4C060B0F5007FE9
:1008900032D01A48006820F4C06040F40070174B52
:1008A00018601748006832235843164BB0FBF3F02A
:1008B000411C00E0491E1148406900F48060B0F519
:1008C000806F01D10029F5D10C48406900F48060A7
:1008D000B0F5806F10D1032070470848006800F41D
:1008E000C060B0F5806F07D00448006820F4C06095
:1008F00040F48060014B18600020EDE7007000407C
:100900000000002040420F000248006800F4C06070
:1009100070470000007000402DE9F04104460D468C
:1009200014B90120BDE8F0815548006800F00700C7
:10093000A8420ED25248006820F0070028435049D0
:1009400008600846006800F00700A84201D00120B6
:10095000E8E7207800F00100002840D06068032814
:1009600006D14848006800F00070D8B90120D9E7E6
:100970006068022806D14348006800F4003088B956
:100980000120CFE7606830B93E48006800F00200FF
:1009900040B90120C6E73B48006800F4806008B910
:1009A0000120BFE73748806820F0030061680843F2
:1009B00034498860FFF7D6FE064608E0FFF7D2FE0E
:1009C000801B41F28831884201D90320AAE72D48D3
:1009D000806800F00C006168B0EB810FEED12078E8
:1009E00000F00200022807D12648806820F0F000BD
:1009F000A1680843234988602148006800F0070087
:100A0000A8420ED91E48006820F0070028431C4960
:100A100008600846006800F00700A84201D00120E5
:100A200080E7207800F00400042807D1154880688A
:100A300020F4E060E168084312498860207800F003
:100A40000800082808D10F48806820F46050216908
:100A500040EAC1000B49886000F020F80949896824
:100A6000C1F30311084A515C01F01F01C840074956
:100A700008600020FFF794FE0746384652E7000062
:100A800000200240001002401C2D00080000002041
:100A90000148006870470000000000202DE9F04187
:100AA00000240020DFF800C1DCF808C00CF00C01C5
:100AB000DFF8F4C0DCF80CC00CF0030719B10C2906
:100AC0001ED1012F1CD1DFF8E0C0DCF800C00CF013
:100AD000080CBCF1000F06D1DFF8CCC0DCF894C0E4
:100AE000CCF3032405E0DFF8C0C0DCF800C0CCF391
:100AF0000314DFF8B8C05CF8244041B9204606E092
:100B0000042901D12A4802E0082900D129480C29EA
:100B100047D1DFF894C0DCF80CC00CF00305DFF817
:100B200088C0DCF80CC0CCF3021C0CF10103012DD1
:100B30001FD0022D02D0032D1AD10CE0DFF870C0B7
:100B4000BCFBF3FCDFF86080D8F80C80C8F3062803
:100B50000CFB08F218E0DFF85CC0BCFBF3FCDFF82C
:100B60004880D8F80C80C8F306280CFB08F20BE08C
:100B700000BFB4FBF3FCDFF83080D8F80C80C8F37A
:100B800006280CFB08F200BF00BFDFF81CC0DCF831
:100B90000CC0CCF3416C0CF1010C4FEA4C06B2FBDB
:100BA000F6F0BDE8F081000000100240342D00088E
:100BB0000024F40000127A002DE9F843044614B929
:100BC0000120BDE8F883F848806800F00C06F6487C
:100BD000C06800F00307207800F01000102875D1DD
:100BE0001EB10C2E74D1012F72D1EF48006800F0B5
:100BF000020018B1A06908B90120E2E7EA48216AB9
:100C0000006800F0080020B1E748006800F0F0003C
:100C100005E0E5489430006800F470600009814206
:100C20001FD9206A01F084F808B10120C9E700BF8C
:100C3000DD48006840F00800DB49086008460068AD
:100C400020F0F000216A0843D749086000BF084639
:100C5000406820F47F40E16940EA0120D2494860C1
:100C60001EE000BFD048006840F00800CE49086090
:100C70000846006820F0F000216A0843CA4908606D
:100C800000BF0846406820F47F40E16940EA012047
:100C9000C5494860206A01F04BF808B1012090E78F
:100CA000FFF7FCFEC0498968C1F30311BF4A515CDC
:100CB00001F01F01C840BE4908600020FFF770FD29
:100CC0008046B8F1000F4ED040467AE74BE0FFE790
:100CD000A06980B3B448006840F00100B2490860E0
:100CE000FFF740FD054606E0FFF73CFD401B0228EC
:100CF00001D9032065E7AC48006800F00200002835
:100D0000F2D000BFA848006840F00800A64908607B
:100D10000846006820F0F000216A0843A2490860F4
:100D200000BF0846406820F47F40E16940EA0120A6
:100D30009D49486017E0FFE79B48006820F00100EC
:100D400099490860FFF70EFD054606E0FFF70AFD2A
:100D5000401B022801D9032033E79348006800F0C4
:100D600002000028F2D1207800F0010000285CD0B9
:100D7000082E03D00C2E0AD1032F08D18A48006810
:100D800000F4003088B3606878BB012019E700BF29
:100D90006068B0F5803F06D18348006840F4803039
:100DA000814908601AE06068B0F5A02F0BD17E4839
:100DB000006840F480207C4908600846006840F4E0
:100DC000803008600AE07848006820F48030764976
:100DD00008600846006820F48020086000BF606852
:100DE00090B1FFF7BFFC054607E01EE0FFF7BAFC35
:100DF000401B642801D90320E3E66B48006800F437
:100E000000300028F2D010E0FFF7ACFC054606E009
:100E1000FFF7A8FC401B642801D90320D1E66248F3
:100E2000006800F400300028F2D1207800F00200C1
:100E3000022852D1042E03D00C2E14D1022F12D12D
:100E40005948006800F4806018B1E06808B90120D2
:100E5000B7E65548406820F0F850217C40EA016030
:100E60005149486039E0E06800B34F48006840F4F9
:100E700080704D490860FFF775FC054606E0FFF7F6
:100E800071FC401B022801D903209AE646480068FD
:100E900000F480600028F2D04348406820F0F85009
:100EA000217C40EA01604049486016E03E48006805
:100EB00020F480703C490860FFF754FC054606E0CA
:100EC000FFF750FC401B022801D9032079E6364881
:100ED000006800F480600028F2D1207800F008005B
:100EE000082836D16069D0B12F489430006840F0AE
:100EF00001002D49C1F89400FFF734FC054606E0D7
:100F0000FFF730FC401B022801D9032059E6264890
:100F10009430006800F002000028F1D019E0224867
:100F20009430006820F001001F49C1F89400FFF7D9
:100F300019FC054606E0FFF715FC401B022801D905
:100F400003203EE618489430006800F002000028B4
:100F5000F1D1207800F00400042870D14FF000098E
:100F60001148806D00F0805078B900BF0E48806D48
:100F700040F080500C4988650846806D00F0805034
:100F8000009000BF00BF4FF001090A48006800F45C
:100F90008070F0B90748006840F480700549086027
:100FA000FFF7E0FB05460EE0001002401C2D000894
:100FB0000000002000700040FFF7D4FB401B022817
:100FC00001D90320FDE57C48006800F4807000280A
:100FD000F2D000BFA068012808D17848006840F02E
:100FE000010076499039C1F8900021E0A0680528F9
:100FF0000FD17248006840F0040070499039C1F880
:1010000090000846D0F8900040F00100C1F8900030
:101010000EE06A48006820F0010068499039C1F884
:1010200090000846D0F8900020F00400C1F890002D
:1010300000BFA068A0B1FFF795FB054609E02EE0D0
:10104000FFF790FB401B41F28831884201D9032011
:10105000B7E55A48006800F002000028F0D012E01E
:10106000FFF780FB054608E0FFF77CFB401B41F2E1
:101070008831884201D90320A3E55048006800F078
:1010800002000028F0D1B9F1010F07D14B48903888
:10109000806D20F0805049499039886500BFA06A72
:1010A000F0B30C2E74D0A06A022853D14348903874
:1010B000006820F08070414990390860FFF752FBCA
:1010C000054606E0FFF74EFB401B022801D903202E
:1010D00077E53A489038006800F000700028F1D1B8
:1010E000206B401E0101606B41EA0021A06B0009EA
:1010F00041EA4040E16A0843A18F0122C2EB51015D
:1011000040EA41514020005DC2EB500041EA40609E
:101110002A499039C8600846006840F0807000E0B5
:1011200048E008600846C06840F08070C860FFF77B
:1011300019FB054606E0FFF715FB401B022801D905
:1011400003203EE51D489038006800F0007000283C
:10115000F1D02FE019489038006820F080701749CE
:10116000903908600846006800F0205020B9084611
:10117000C06820F00300C86010489038C06810496B
:1011800008400E499039C860FFF7ECFA054607E0C1
:101190000EE0FFF7E7FA401B022801D9032010E513
:1011A00006489038006800F000700028F1D101E096
:1011B000012006E5002004E5007000409010024088
:1011C000FFFFEEFE042808D14FF0E021096941F04D
:1011D00004014FF0E022116107E04FF0E0210969BE
:1011E00021F004014FF0E02211617047704770B5A3
:1011F00004462546681EB0F1807F01D301200FE030
:10120000681E4FF0E02148610F214FF0FF3000F0E1
:1012100079FD00204FF0E02188610720086100205F
:1012200070BD10B5FFF7E2FF10BD00BFFEE72DE96E
:10123000F04107460C4615461E462A2000F0F6FCF3
:10124000384600F0E3FC284600F0E0FC2B2000F0DC
:10125000EDFC204600F0DAFC304600F0D7FC2C20F4
:1012600000F0E4FCBDE8F08170B504460D4616467A
:101270002B46224629462046FFF7D9FF304600F08C
:10128000C5FC70BD2DE9F04706460F4614461D46C5
:10129000DDF820A06B1E621E39463046FFF7C7FFFF
:1012A000B8460AE0B14604E0504600F0AFFC09F150
:1012B0000109A145F8D308F10108A845F2D3BDE81A
:1012C000F087000000B587B000BF2D48C06C40F02B
:1012D00001002B49C8640846C06C00F00100019071
:1012E00000BF00BF00BF0846C06C40F00800C864E3
:1012F0000846C06C00F00800019000BF00BF00BFAE
:101300000846C06C40F00200C8640846C06C00F09B
:101310000200019000BF00BFB020029001200390A6
:1013200004900220059002A94FF09040FFF712F9B7
:101330000122B0214FF09040FFF70EFA04200290F6
:101340000120039004900220059002A90D48FFF7A8
:1013500001F9012204210B48FFF7FEF960200290F9
:101360000120039004900220059002A90648FFF78F
:10137000F1F8012260210448FFF7EEF907B000BD43
:1013800000100240000C00480004004810B5FFF7B0
:1013900099FF002204218748FFF7DEF9642000F05E
:1013A0008CFD012204218348FFF7D6F9642000F068
:1013B00084FD012210214FF09040FFF7CDF9642009
:1013C00000F07BFD112000F031FC782000F075FD6D
:1013D000CF2000F02BFC002000F022FCD92000F0F0
:1013E0001FFC302000F01CFCED2000F01FFC6420EE
:1013F00000F016FC032000F013FC122000F010FC9B
:10140000812000F00DFCE82000F010FC852000F0A9
:1014100007FC102000F004FC782000F001FCCB2039
:1014200000F004FC392000F0FBFB2C2000F0F8FB5E
:10143000002000F0F5FB342000F0F2FB022000F069
:10144000EFFBF72000F0F2FB202000F0E9FBEA20A0
:1014500000F0ECFB002000F0E3FB002000F0E0FBDC
:10146000C02000F0E3FB212000F0DAFBC12000F0F7
:10147000DDFB122000F0D4FBC52000F0D7FB3220AA
:1014800000F0CEFB3C2000F0CBFBC72000F0CEFBF1
:10149000C12000F0C5FB362000F0C8FB082000F09A
:1014A000BFFB3A2000F0C2FB552000F0B9FBB12091
:1014B00000F0BCFB002000F0B3FB182000F0B0FBF4
:1014C000B62000F0B3FB0A2000F0AAFBA22000F037
:1014D000A7FBF22000F0AAFB002000F0A1FB2620D1
:1014E00000F0A4FB012000F09BFBE02000F09EFB3D
:1014F0000F2000F095FB202000F092FB1E2000F052
:101500008FFB092000F08CFB122000F089FB0B20E0
:1015100000F086FB502000F083FBBA2000F080FB37
:10152000442000F07DFB092000F07AFB142000F03D
:1015300077FB052000F074FB232000F071FB2120D5
:1015400000F06EFB002000F06BFBE12000F06EFB72
:10155000002000F065FB192000F062FB192000F06C
:101560005FFB002000F05CFB122000F059FB07201D
:1015700000F056FB2D2000F053FB282000F050FB1C
:101580003F2000F04DFB022000F04AFB0A2000F053
:1015900047FB082000F044FB252000F041FB2D20F4
:1015A00000F03EFB0F2000F03BFB292000F03EFB4B
:1015B00010BD0000000C00482DE9FF4F83B0054628
:1015C0008A461746119CAB46204604EBD071C1F306
:1015D00047063046F11706EB5171C910614301917E
:1015E000A7F12000C7B20AEB0400431EA819421E4F
:1015F00051462846FFF71BFE4FF0000945E0102C2E
:1016000006D1244800EB071010F8090002900BE007
:10161000202C06D1204800EB871010F8090002901A
:1016200002E007B000F03AB84FF0000827E0129847
:1016300068B9012000FA08F00299084018B106982C
:1016400000F0E4FA17E0109800F0E0FA13E001204F
:1016500000FA08F00299084020B151462846069A3F
:10166000FFF702FE6D1CA5EB0B00B04203D15D46F7
:101670000AF1010A06E008F1010000F0FF08B8F1E4
:10168000080FD4DB00BF09F1010901988145B6D3E9
:1016900000BFC6E7642D00085433000830BCBDE825
:1016A000C08F2DE9FE4F8046894615469A46DDE9F2
:1016B0000D470C9E27E0102C09D153462A46494677
:1016C0004046CDE90147009600F026F819E0182CB5
:1016D00009D153462A4649464046CDE9014700967E
:1016E00000F098F80DE0202C09D153462A464946CF
:1016F0004046CDE90147009600F012F901E000F004
:1017000007B8AD1CA04428780028D4D100BFF6E764
:101710001EBCBDE8E08F00002DE9FE4F064689465D
:1017200092469B460D9C00962046E11704EB5171B2
:10173000C910614301910520029000255FE005EB8F
:101740000510314911F810009AF80010884254D160
:1017500005EB05102C4901EB400040789AF8011088
:1017600088424AD109EB0400431E3019421E494603
:101770003046FFF75CFD00273CE04FF0000833E007
:101780000E9898B905EB05101F4901EB4000801C2D
:10179000C05D012101FA08F1084018B1584600F077
:1017A00035FA1DE00C9800F031FA19E005EB051050
:1017B000154901EB4000801CC05D012101FA08F1D0
:1017C000084020B15A4649463046FFF74DFD761C89
:1017D0000098301AA04203D1009E09F1010906E0E9
:1017E00008F1010000F0FF08B8F1080FC8DB00BFE6
:1017F000781CC7B201988742BFD300BF6D1C029806
:1018000085429CD300F002B8144B00081EBCBDE812
:10181000E08F00002DE9FE4F0646894692469B4622
:101820000D9C00962046E11704EB5171C9106143ED
:10183000019105200290002567E005EB850000EB93
:101840004510344911F810009AF8001088425AD116
:1018500005EB850000EB45102E4901EB4000407878
:101860009AF8011088424ED109EB0400431E30194A
:10187000421E49463046FFF7DAFC002740E04FF0B1
:10188000000837E00E98A8B905EB850000EB45107D
:10189000204901EB4000801CC05D012101FA08F1E4
:1018A000084018B1584600F0B1F91FE00C9800F05C
:1018B000ADF91BE005EB850000EB4510154901EB88
:1018C0004000801CC05D012101FA08F1084020B1F0
:1018D0005A4649463046FFF7C7FC761C0098301A36
:1018E000A04203D1009E09F1010906E008F10100C0
:1018F00000F0FF08B8F1080FC4DB00BF781CC7B2C6
:1019000001988742BBD300BF6D1C0298854294D3D7
:1019100000F002B8BE4B00081EBCBDE8E08F00001E
:101920002DE9FE4F0646894692469B460D9C009641
:101930002046E11704EB5171C91061430191052064
:10194000029000255FE005EB8510314911F8100089
:101950009AF80010884254D105EB85102C4901EB10
:10196000400040789AF8011088424AD109EB0400FF
:10197000431E3019421E49463046FFF758FC0027E7
:101980003CE04FF0000833E00E9898B905EB851065
:101990001F4901EB4000801CC05D012101FA08F1E4
:1019A000084018B1584600F031F91DE00C9800F0DD
:1019B0002DF919E005EB8510154901EB4000801C5D
:1019C000C05D012101FA08F1084020B15A4649469C
:1019D0003046FFF749FC761C0098301AA04203D12C
:1019E000009E09F1010906E008F1010000F0FF087E
:1019F000B8F1080FC8DB00BF781CC7B20198874256
:101A0000BFD300BF6D1C029885429CD300F002B882
:101A1000304D00081EBCBDE8E08F00002DE9FF4FEF
:101A20002DED020B2DED028B83B00746B0EE408A00
:101A30001446DDE91486304606EBD071C1F3470A3F
:101A40009FED200A28EE000ABCEEC00A10EE10BA84
:101A500000252EE0601B401EC1B20A2000F012FBE0
:101A6000BBFBF0F00A21B0FBF1F201FB1209A01E52
:101A7000A8420FD10020A11ECDE90086029001FBF3
:101A80000A702E220A9B0899FFF796FD681CC5B2C2
:101A9000601CC4B2002009F13001CAB2CDE9008651
:101AA000029005FB0A700A9B0899FFF785FD681CE8
:101AB000C5B2A542CEDB03B0BDEC028B06B000F090
:101AC00003B800000000C84230BCBDE8C08F2DE95B
:101AD000FF4F85B0074691461D46DDE913A600205D
:101AE0000490304606EBD071C1F3470B002432E07E
:101AF000281B401EC1B20A2000F0C4FAB9FBF0F066
:101B00000A21B0FBF1F201FB1208049898B9681E93
:101B1000A04210DDB8F1000F0BD10020CDE900A6E6
:101B2000029004FB0B702022129B0699FFF744FDE4
:101B30000FE001200490002008F13001CAB2CDE985
:101B400000A6029004FB0B70129B0699FFF734FD70
:101B500000BF601CC4B2AC42CADB09B000F000B8E0
:101B600030BCBDE8C08F2DE9F05F074688461546BA
:101B70001E46DDF82890002408EB0600431E781965
:101B8000421E41463846FFF752FBA24614E04FF092
:101B9000000B0DE019F8140000F042F8012101EBF0
:101BA000440119F8010000F03BF8641C0BF1010B33
:101BB000B345EFD30AF1010AAA45E8D300F000B813
:101BC00030BCBDE8C09F2DE9FE4F06460F461446C7
:101BD0009846DDE90D5ADDF830900FE0CDE9015A65
:101BE000CDF800902278434639463046FFF7E4FCB2
:101BF000284605EBD07106EB6106641C20780028AE
:101C0000ECD100F000B81EBCBDE8E08F10B5044672
:101C1000C4F3072000F01CF8E0B200F019F810BD82
:101C200010B50446204600F013F810BD10B5044668
:101C3000002220210548FEF78FFD204600F008F81D
:101C4000012220210148FEF787FD10BD0004004855
:101C500070B5044600251FE0002220214FF090407F
:101C6000FEF77AFD04F0800030B1012280214FF0B0
:101C70009040FEF771FD05E0002280214FF090407A
:101C8000FEF76AFD012220214FF09040FEF764FD2F
:101C90006006040E681CC5B2082DDDDB70BD0000B7
:101CA00000B587B000BF0F48C06C40F004000D497C
:101CB000C8640846C06C00F00400019000BF00BF7B
:101CC000881402900120039004900320059002A93B
:101CD0000548FEF73FFC012211030348FEF73CFDD7
:101CE00007B000BD001002400008004800BFFEE73A
:101CF0007047000002480068C0F3022070470000EF
:101D00000CED00E010B5002807DA0A07140E054AAA
:101D100000F00F031B1FD45403E00A07130E024AFE
:101D2000135410BD18ED00E000E400E0704700001F
:101D3000F8B5044600262348806D00F0805018B1A5
:101D4000FEF7E2FD054616E000BF1E48806D40F03C
:101D500080501C4988650846806D00F080500090D6
:101D600000BF00BFFEF7D0FD05461648806D20F08D
:101D7000805014498865B5F5007F07D1802C10D9B3
:101D8000A02C01D902260CE001260AE0802C01D902
:101D9000032606E0802C01D1022602E0702C00D13F
:101DA00001260948006820F0070030430649086012
:101DB0000846006800F00700B04201D00120F8BDDD
:101DC0000020FCE70010024000200240704710B5E0
:101DD000FEF7CEFCFFF725FA10BD10B596B0012036
:101DE00005900004069002200F900321109101211C
:101DF00011911421129102211491159105A8FEF759
:101E0000DBFE0F2000900320019000200290039041
:101E1000049004216846FEF77FFD4FF40070FEF742
:101E20002DFDFEF735FE4FF47A71B0FBF1F420463C
:101E3000FFF7DDF90420FFF7C5F900221146501E17
:101E4000FEF7C7FC16B010BD1048006840F47000E3
:101E50000E4908600E48006840F001000C49086017
:101E600000208860084600680A4908400849086060
:101E70008814C8600846006820F4802008600020AC
:101E80008861C803014980390860704788ED00E027
:101E900000100240FFFFF6EA00BFFEE702E008C8BC
:101EA000121F08C1002AFAD170477047002001E0D4
:101EB00001C1121F002AFBD1704710B5044620460D
:101EC000FEF737FB10BD00002DED068B84B09FEDB3
:101ED0005C0AB0EE408AFEF753FCFFF77EFFFFF787
:101EE000DFFEFFF753FA4FF6FF704FF4A073F022B6
:101EF000002100900846FFF7C5F900224FF48051F9
:101F00005048FEF729FC99E0002020214FF6FF728F
:101F10004FF47843CDE9002102904BA20146FFF730
:101F2000C0FB002010214FF6FF724FF47843CDE93B
:101F30000021029047A22821FFF745FE10204FF60E
:101F4000FF714FF478420323CDE900210290F02283
:101F500028213020FFF7BBFD002010214FF6FF7233
:101F60004FF47843CDE9002102903CA22821502073
:101F7000FFF729FE10204FF6FF714FF4784203233C
:101F8000CDE9002102904FF4A07228218020FFF7B4
:101F90009EFD002010214FF6FF724FF47843CDE9EB
:101FA000002102902DA228215020FFF70CFE0020D6
:101FB00010214FF6FF724FF47843CDE900210290D3
:101FC00028A24621FFF7FFFD10204FF6FF714FF4C6
:101FD00078430422B0EE480ACDE900104621802063
:101FE000FFF71CFD18EE100AFEF799F941EC1A0BE9
:101FF0009FED210B53EC102BFEF7E2F841EC190B8F
:10200000FEF7A0F908EE100A002515E000240FE005
:102010001B4805EB8502782303EBC20104EB840225
:102020000090D00028231A46FFF79DFD601CC4B223
:10203000062CEDDB681CC5B2052DE7DB64E700006C
:102040000000000000080048D6D0BEB0D4B0B5E70C
:10205000D7D300004C43445F573A00004C43445FE1
:10206000483A0000496E637265617365696E672066
:102070004E756E3A00000000295C8FC2F528BC3F07
:102080009A20000810B50246012000E050430B1EC4
:10209000A1F10104E1B2F9D110BDFFFFFFFFFFFF85
:1020A000FFFFFFFFFFFFFFFFFFFFFFFFFFFFFFFF40
:1020B000FFFFFFFFFFFFFFFFF7BEFFFFFFDEC6389A
:1020C0008C926B8E6B6E7C10AD96E73CFFFFFFFF32
:1020D000FFFFFFFFFFFFFFFFFFFFFFFFFFFFFFFF10
:1020E000FFFFFFFFFFFFFFFFFFFFFFFFFFFFFFFF00
:1020F000FFFFFFFFFFFFFFFFFFFFFFFFFFFFFFFFF0
:10210000FFFFFFFFFFFFFFFFEF5D9D15634F426C79
:10211000320A298819461925214531E86B8EC638BF
:10212000FFFFFFFFFFFFFFFFFFFFFFFFFFFFFFFFBF
:10213000FFFFFFFFFFFFFFFFFFFFFFFFFFFFFFFFAF
:10214000FFFFFFFFFFFFFFFFFFFFFFFFFFFFFFFF9F
:10215000FFFFFFFFFFFFA53653104B1053514B0FEE
:102160003A6C31E92167192510E408A3006208835D
:1021700052CBD69AFFFFFFFFFFFFFFFFFFFFFFFFDE
:10218000FFFFFFFFFFFFFFFFFFFFFFFFFFFFFFFF5F
:10219000FFFFFFFFFFFFFFFFFFFFFFFFFFFFFFFF4F
:1021A000FFFFE73C637063B37CB863F54311324DC6
:1021B00029EA21881926190519051104110410E4CA
:1021C000008308A38C72FFFFFFFFFFFFFFFFFFFFED
:1021D000FFFFFFFFFFFFFFFFFFFFFFFFFFFFFFFF0F
:1021E000FFFFFFFFFFFFFFFFFFFFFFFFFFFFFFFFFF
:1021F000DEDB3A4B42F06C354B5432B12A2E21EBE8
:1022000021A91967190511041104110411041104FD
:10221000190510E4004273AFFFFFFFFFFFFFFFFF50
:10222000FFFFFFFFFFFFFFFFFFFFFFFFFFFFFFFFBE
:10223000FFFFFFFFFFFFFFFFFFFFFFFFFFFFEF5D60
:102240003209324C4B10328F2A4F2A2E19CC198961
:102250002189194719051104110410C410C411046F
:102260001104110410E400428431FFFFFFFFFFFF5F
:10227000FFFFFFFFFFFFFFFFFFFFFFFFFFFFFFFF6E
:10228000FFFFFFFFFFFFFFFFFFFFFFFFFFFF52EC1E
:102290001947324C2A0B21EC21EC220C5B914AEEBF
:1022A00011061926190410E410E429A7216608A3D1
:1022B00019051104110410E40082BDF7FFFFFFFFB0
:1022C000FFFFFFFFFFFFFFFFFFFFFFFFFFFFFFFF1E
:1022D000FFFFFFFFFFFFFFFFFFFFFFFFA5350883A5
:1022E00021882188218921AA218A426B8C71FFFFD4
:1022F0008C720883110408C44229DEFBEF5D5AEC9E
:102300000883110411041104088331E8FFDFFFFF83
:10231000FFFFFFFFFFFFFFFFFFFFFFFFFFFFFFFFCD
:10232000FFFFFFFFFFFFFFFFFFFFF7BE31C710C436
:10233000192519261947194729A8528A4A28AD553F
:10234000FFFF31E808A319056B4D6B4DFFFFEF7DD3
:10235000214510C41104110411040062AD76FFFF81
:10236000FFFFFFFFFFFFFFFFFFFFFFFFFFFFFFFF7D
:10237000FFFFFFFFFFFFFFFFFFFFB59600621104A5
:1023800019041105190508C44A8BB5B6EF5DBDF7F0
:10239000FFFF6B8E006242295AAA4208FFFFFFFF2F
:1023A00052CC088311041104110408A352ADFFFF9D
:1023B000FFFFFFFFFFFFFFFFFFFFFFFFFFFFFFFF2D
:1023C000E71CFFFFFFFFFFFFFFFF634E00621104EA
:1023D0001104110410E40062638EFFFFFFFFFFFF92
:1023E000FFFF73CF00019CF3632CB596FFFFFFFF47
:1023F0005B2D008311041104110410E42167EF3DEB
:10240000FFFFFFFFFFFFFFFFFFFFBDF8B5B7EF9E28
:1024100052CB94B3FFFFFFFFFFDF31E808A31104A5
:1024200011041104110408A34249F7FFF7FFFFFF4D
:10243000FFFF4A6A00018472FFFFFFFFF7FFEFDF33
:102440003A0908A311041104110411041105BE185E
:10245000FFFFFFFFFFFFFFFFFFFF7BF0006231E8A0
:1024600031C70041A535FFFFEF5D214610C41104BF
:1024700011041104110410E408A39D76F7FFFFFF77
:10248000ADB708A308A331C7E79EF7FFF7FFA5760E
:1024900008A310E411041104110411051105A53558
:1024A000FFFFFFFFFFFFFFFFFFFFDEDB29A700832A
:1024B00010C410C410C4E71CEF9E110510E41104F1
:1024C000110411041104190408C410E56BD16BD177
:1024D00008C5006408A50043322B9D7784B31925F5
:1024E00010C41104110411041104192509269D3585
:1024F000FFFFFFFFFFFFFFFFFFFFFFFF73AF006264
:102500001904190500825B0D9B8E106211051104E0
:102510001104190410E40085110539C45A817B4067
:102520009C22AC43A4039B837282498218C200A4FC
:1025300000C510E4190411041905194711675AEC74
:10254000FFBEFFFFFFFFFFFFFFFFFFDFDEDB10C46B
:1025500010E41104110518A4C001888300E41905D2
:10256000190408C521448343D523FE42FEE4FF2716
:10257000FF07FEA4FE64FE03FDA3FCE2EC42B3836E
:10258000622410E508C41904192619A821879000AF
:10259000BCD3FFFFFFFFFFFFFFFFFFDFFFFF7C104C
:1025A0000042190511052883D001F84448A300E42E
:1025B00008C55A44ED02FDE2FE02FE66FF74FFB854
:1025C000FF73F6E7F6A6F645F5A4FCC3FC62FCC271
:1025D000FCC2CBE349C411061988018790A4F80115
:1025E0009AECFFFFFFFFFFFFFFFFFFFFFFFFF7BEBC
:1025F00031E8008309054082C001F823F08548A333
:1026000000A45A44FD02CC23DCC2FE04FE28F64896
:10261000F646F624F5E4FD64FCE3FC62FCC2E40249
:10262000DC02FCE27AA40148016778C4F824F802CD
:10263000B084E77DFFFFFFFFFFFFFFFFFFFFFFFF0E
:10264000DEDB192500A338C4E002D822F844F8A63E
:1026500078A400632143728339839B82F521FD6155
:10266000FD22FCE2FCA2FC42FC42FC42AB22418384
:1026700092C352040126192598A4F844F823F802BD
:10268000D0A4EF9EFFFFFFFFFFFFFFFFFFFFFFFF55
:10269000FFFFD69A298700A5B843F822E023F86502
:1026A000F8E8C9074883004200A3008429637AA29E
:1026B000B362CBA2D362BB028A82398300A400E555
:1026C00000E508E560C4D864F844F824F823F8026B
:1026D0008883C6DBFFFFFFFFFFFFFFFFFFFFFFFF5A
:1026E000FFFFFFFFE73D5B503108E823F843F0446C
:1026F000F865F909F9ABD189890648A318420002A7
:1027000000420061008200620062008320A350C486
:1027100088A5D885F865F844F844F823F823D00351
:10272000108229C7EF5DFFFFFFFFFFFFFFFFFFFFE5
:10273000FFFFFFFFFFFFFFFF326C38A5D802F82331
:10274000F865F866F8A7F94AFA0CFA4DEA4CD20B8C
:10275000B9A9B168A947B127B907D107E8E7F8C710
:10276000F8A7F865F865F844F823F803D00228A321
:10277000090508C45AECFFFFFFFFFFFFFFFFFFFF43
:10278000FFFFFFFFFFFFDEFB190500C441A7C0E606
:10279000F803F886F8A7F887F886F8C7F929F98AC0
:1027A000F9ABF9ABF98BF96AF929F908F8C7F8A67A
:1027B000F886F865F864F823F002B106292500E4EC
:1027C00010E4192519259D14FFFFFFFFFFFFFFFFF0
:1027D000FFFFFFFFFFFFAD96006208829535CEBA7E
:1027E000A28BD044F825F887F8A7F8C7F8A7F88790
:1027F000F886F886F886F887F8A7F8A7F8A6F88587
:10280000F865F864F024B864930DB6BB63CF088311
:10281000110410E421663A49EF5DFFFFFFFFFFFF5F
:10282000FFFFFFFFFFFF94D3004210E4CEBBFFFF8A
:10283000E7BEB576AACCC107E045F845F846F8668C
:10284000F886F886F886F886F865F845F865E8654C
:10285000D044A84388019082D73CEFFF9555088368
:10286000110411041905194694B3FFFFFFFFFFFF80
:10287000FFFFFFFFFFFF94B300412186DF5DFFFFF5
:10288000FFFFFFFFE7DFC67AB4D3B34EC22AD16899
:10289000E0E6E8A6E8A5E8A5D8E6C988A906A82242
:1028A000A802A000C800D800E5F7E7FFADF810C403
:1028B00010E4110410E411054A8BFFFFFFFFFFFF36
:1028C000FFFFFFFFFFFFA555004129A7DF5DF7FFD1
:1028D000FFFFFFFFFFFFFFFFFFFFEFFFDF7DCEDB0F
:1028E000CE59CDF8CDD7C5F7CE79BEFBA2ABF0035C
:1028F000F845D042E843F000D472DFFFAE3910E46F
:1029000010E4110410E411052987FFFFFFFFFFFF0A
:10291000FFFFFFFFFFFFCE5908832146D71CF7FFBB
:10292000FFFFFFFFFFFFFFFFFFFFFFFFFFFFFFFFB7
:10293000FFFFFFFFFFFFFFFFFFFFEFFFBA8BF80472
:10294000F845E062F044F800DB8EDFFFA5F810C424
:1029500010E410E4110410E41925FFFFFFFFFFFF4E
:10296000FFFFFFFFFFFFF7BE29870883B639F7FF98
:10297000F7DFFFFFFFFFFFFFFFFFFFFFFFFFFFFF8F
:10298000FFFFFFFFFFFFFFFFFFFFE7BEBA4AF803AD
:10299000F845F864F844F800E36ED7FF8CF4088338
:1029A000110410E410E410E41905FFFFFFFFFFFF1E
:1029B000FFFFFFFFFFFFFFFF73EF00008472EFFFD9
:1029C000EFBEFFDFFFFFFFFFFFFFFFFFFFFFFFFF88
:1029D000FFFFFFFFFFFFFFFFFFFFE7DFBA8BF803FB
:1029E000F845F845F823F800D4D3D7FF5B4E002113
:1029F0003A29A555088310C41925FFFFFFFFFFFFE3
:102A0000FFFFFFFFFFFFFFFFDEFB08A331E8DF9EB4
:102A1000E79EEFBFFFFFFFFFFFFFFFFFFFFFFFFF8F
:102A2000FFFFFFFFFFFFFFFFFFFFF7FFBC51E002CB
:102A3000F803F003E043C2ECCF7EBEFC2146002148
:102A400094D3FFFF845100002987FFFFFFFFFFFFA2
:102A5000FFFFFFFFFFFFFFFFFFFF845100008CF42B
:102A6000EFFFE79EEFBFFFDFFFFFFFFFFFFFFFFF6F
:102A7000FFFFFFFFFFFFFFFFFFFFFFFFDF3DBD5534
:102A8000BC52BC72B5B7C75DDFFF6BF000003A09FE
:102A9000F7BFFFFFFFFF9D14A555FFFFFFFFFFFFDF
:102AA000FFFFFFFFFFFFFFFFFFFFFFFF4AAC08A490
:102AB000BEBBE7DFE77EEFBEF7DFFFDFFFFFFFFF15
:102AC000FFFFFFFFFFFFFFFFFFFFFFDFF7DFEFFF6E
:102AD000DFDFD7BFD79EDFDFA5D808831126D6DB7F
:102AE000FFFFFFFFFFFFFFFFFFFFFFFFFFFFFFFFF6
:102AF000FFFFFFFFFFFFFFFFFFFFEE79DC8B3121C0
:102B000021A9CF3DDFBFDF7EE79EEFBEEFBFF7DF3E
:102B1000F7DFF7DFF7DFF7DFEFBFEFBEE79EDF7E20
:102B2000D75ED75EDFDFB69A19260842A3EDFFBF56
:102B3000FFFFFFFFFFFFFFFFFFFFFFFFFFFFFFFFA5
:102B4000FFFFFFFFFFFFFFFFDD74DBC0FE00EE4273
:102B500042022189B67BDFDFD77EDF7EDF7EE79E04
:102B6000E79EE79EE79EE79EDF7EDF7ED75DD75D2F
:102B7000DF9EE7FFA5F8110718E3C502FD60D3E665
:102B8000EEDBFFFFFFFFFFFFFFFFFFFFFFFFFFFF8A
:102B9000FFFFFFFFFFFFF79EBA84FCC1FE42FE82EB
:102BA000FEA2838121457474C75EDFDFD77ED75EC6
:102BB000D75DD75ED75ED75DD75DD75EDF9EE7FF77
:102BC000C73D63F108845242E626FF29FE86F3E002
:102BD000C36AFFFFFFFFFFFFFFFFFFFFFFFFFFFFD6
:102BE000FFFFFFFFFFFFDE18D2C1FDA2FE22FE4263
:102BF000FE42FE62D4E26A4142497453A63BC73E9C
:102C0000D7BFD7BFD7BFDFBFD7BFC73EA61A63F2B4
:102C100029A74182B422FE62FE83FEAAFF0FFD6750
:102C2000BA63EF3CFFFFFFFFFFFFFFFFFFFFFFFF68
:102C3000FFFFFFFFFFFFE69AD280FD21FDC2F5E214
:102C4000F5C2F582FD82FD62DC619B216A846AE93E
:102C5000632C63AF7411636E632C5A8952047A81BA
:102C6000CBC2FCE2FD62FD82FDC2FDC2FDE4FD249B
:102C7000CA62E71CFFFFFFFFFFFFFFFFFFFFFFFF31
:102C8000FFFFFFFFFFFFFFFFCCB1D281F3C0FCC10C
:102C9000FD02FD02FCE2FCC2FCC2FC81FB80C9C05B
:102CA00081A4AD35CE599C718121DA00FBA1FC8253
:102CB000FCA2FC82FCA2FD02FD22FCE2FC00DA6028
:102CC000CC90FFFFFFFFFFFFFFFFFFFFFFFFFFFFB6
:102CD000FFFFFFFFFFFFFFFFFFFFDE59C40DCB0625
:102CE000D2E4DB03DB03DAE3D2C3C2A4B309BCD270
:102CF000F79EFFFFFFFFFFFFE6FBB40EBAA6D283ED
:102D0000E2E3EB02EB22E322DB03D2E4C36AD5B6B3
:102D1000FFFFFFFFFFFFFFFFFFFF000000000000BD
:102D2000000000000102030406070809000000007B
:102D300001020304A0860100400D0300801A060072
:102D400000350C0040420F0080841E0000093D0049
:102D500000127A000024F40000366E010048E801F9
:102D6000006CDC0200000000000000000000000019
:102D7000000000000000000808080808080800001B
:102D80001818000000486C24120000000000000029
:102D9000000000000000002424247F1212127F1281
:102DA000121200000000081C2A2A0A0C1828282ADF
:102DB0002A1C080800000022251515152A5854540D
:102DC000542200000000000C1212120A762529116C
:102DD000916E0000000606040300000000000000E1
:102DE0000000000000402010100808080808081023
:102DF00010204000000204080810101010101008E5
:102E0000080402000000000008086B1C1C6B080886
:102E10000000000000000000080808087F080808FB
:102E2000080000000000000000000000000000009A
:102E3000060604030000000000000000FE00000081
:102E40000000000000000000000000000000000082
:102E500006060000000080404020201010080804F2
:102E60000402020000000018244242424242424250
:102E700024180000000000080E08080808080808C8
:102E8000083E00000000003C42424220201008049E
:102E9000427E00000000003C424220182040404298
:102EA000221C0000000000203028242422227E2042
:102EB000207800000000007E0202021A26404042F4
:102EC000221C0000000000382402021A264242425E
:102ED000241800000000007E2222101008080808B4
:102EE000080800000000003C4242422418244242EC
:102EF000423C000000000018244242426458404016
:102F0000241C000000000000000018180000000051
:102F10001818000000000000000000080000000079
:102F200000080804000000402010080402040810F3
:102F3000204000000000000000007F0000007F0033
:102F400000000000000000020408102040201008CB
:102F5000040200000000003C4242464020101000E5
:102F6000181800000000001C225A555555552D42D6
:102F7000221C00000000000808181414243C2242FF
:102F800042E700000000001F2222221E224242428D
:102F9000221F00000000007C4242010101010142A9
:102FA000221C00000000001F2242424242424242D4
:102FB000221F00000000003F4212121E12120242A5
:102FC000423F00000000003F4212121E1212020295
:102FD000020700000000003C2222010101712122B1
:102FE000221C0000000000E7424242427E42424270
:102FF00042E700000000003E08080808080808082A
:10300000083E00000000007C10101010101010107E
:103010001010110F0000007722120A0E0A1212225D
:1030200022770000000000070202020202020202F0
:10303000427F000000000077363636362A2A2A2AD8
:103040002A6B0000000000E346464A4A5252526290
:10305000624700000000001C2241414141414141C2
:10306000221C00000000003F424242423E02020297
:10307000020700000000001C2241414141414D5324
:10308000321C60000000003F4242423E12122222E7
:1030900042C700000000007C424202041820404267
:1030A000423E00000000007F4908080808080808A0
:1030B000081C0000000000E74242424242424242F5
:1030C000423C0000000000E742422224241414186D
:1030D000080800000000006B49494949555536224F
:1030E00022220000000000E742242418181824249B
:1030F00042E70000000000772222141408080808A4
:10310000081C00000000007E21201010080404426A
:10311000423F000000780808080808080808080866
:1031200008087800000002020404080808101020B3
:1031300020204040001E1010101010101010101011
:1031400010101E00003844000000000000000000C5
:10315000000000000000000000000000000000006F
:10316000000000FF00060800000000000000000052
:1031700000000000000000000000003C42784442D3
:1031800042FC0000000000030202021A26424242F2
:10319000261A00000000000000000038440202026D
:1031A0004438000000000060404040784442424201
:1031B00064D80000000000000000003C427E0202D3
:1031C000423C0000000000F08808087E080808085B
:1031D000083E0000000000000000007C22221C02CB
:1031E0003C42423C000000030202023A4642424294
:1031F00042E700000000000C0C00000E0808080860
:10320000083E000000000030300000382020202060
:103210002020221E0000000302020272120A16126F
:10322000227700000000000E0808080808080808B7
:10323000083E0000000000000000007F9292929281
:1032400092B70000000000000000003B46424242EE
:1032500042E70000000000000000003C4242424201
:10326000423C0000000000000000001B26424242D9
:10327000221E020700000000000000784442424283
:10328000447840E000000000000000774C04040493
:10329000041F0000000000000000007C42023C40CF
:1032A000423E0000000000000008083E0808080830
:1032B000083000000000000000000063424242426B
:1032C00062DC000000000000000000E7422424143B
:1032D0000808000000000000000000EB49495555B7
:1032E00022220000000000000000007624181818B8
:1032F000246E000000000000000000E742242414B7
:1033000018080807000000000000007E22100808CE
:10331000447E000000C020202020201020202020FB
:103320002020C000101010101010101010101010DD
:1033300010101010000608080808081008080808EF
:10334000080806000C32C200000000000000000067
:10335000000000000000000000000000000000006D
:10336000000000000000000000000000000000005D
:10337000000000000000000000000000000000004D
:10338000000000000000000000000000000000003D
:103390000000000000000000000000000000C0016C
:1033A000C001C001C001C001C001C0018000800097
:1033B000800080008000800080000000000000008D
:1033C00000008001C003C003800100000000000075
:1033D00000000000000000000000E01CE01CF01EE7
:1033E000700E380718030801840000000000000078
:1033F00000000000000000000000000000000000CD
:1034000000000000000000000000000000000000BC
:1034100000000000000000000000000000000000AC
:1034200020102010201020102010FE7FFE7F10089A
:10343000100810081008100810081008FE7FFE7F02
:103440000804080408040804080400000000000040
:10345000000000000000000000000000000100016A
:10346000C007601910311831183918393801700146
:10347000E001C0038007000F001D003900311C313E
:103480001C310C310C11180DE00700010001000186
:10349000000000000000000000000000000000002C
:1034A0001C1036186308630C630463046302630230
:1034B0006301361D9C378022806340634063206334
:1034C0002063306310221836081C00000000000042
:1034D00000000000000000000000000000000000EC
:1034E000F00098018C018C018C018C018C00CC00C7
:1034F0007800183E1C083608320863046304C304CD
:10350000C303834306438E26781C0000000000009E
:10351000000000000000000000001C003C003C0017
:103520003000300010000C00060000000000000019
:10353000000000000000000000000000000000008B
:10354000000000000000000000000000000000007B
:1035500000000000000000000000004000200010FB
:103560000008000C000400060003000300038001B3
:1035700080018001800180018001800180010003C1
:103580000003000300060006000C000800100020E5
:1035900000400000000000000000020004000800DD
:1035A0001000300020006000C000C000C00080019A
:1035B0008001800180018001800180018001C000C4
:1035C000C000C0006000600030001000080004006F
:1035D00002000000000000000000000000000000E9
:1035E0000000000000018003800300011C713C7991
:1035F000783DC0070001C007783D3C791C7100018F
:103600008003800380010000000000000000000033
:1036100000000000000000000000000000000000AA
:103620000000000000000001000100010001000195
:1036300000010001FC7F0001000100010001000108
:103640000001000100000000000000000000000078
:10365000000000000000000000000000000000006A
:10366000000000000000000000000000000000005A
:10367000000000000000000000000000000000004A
:10368000000000001C003C003C0030003000100036
:103690000C00060000000000000000000000000018
:1036A000000000000000000000000000000000001A
:1036B00000000000FE7F000000000000000000008D
:1036C00000000000000000000000000000000000FA
:1036D00000000000000000000000000000000000EA
:1036E00000000000000000000000000000000000DA
:1036F00000000000000000000000000000000000CA
:10370000000018003C003C00180000000000000011
:1037100000000000000000000000004000600020E9
:103720000030001000180008000C00040006000221
:103730000003000180018000C00040006000200004
:1037400030001000180008000C0004000600020001
:103750000000000000000000000000000000000069
:10376000C007600C30181830183018200C600C603E
:103770000C600C600C600C600C600C600C6018201D
:10378000183018303018600CC0070000000000002E
:103790000000000000000000000000000000000029
:1037A00000018001F8018001800180018001800119
:1037B0008001800180018001800180018001800101
:1037C000800180018001C003F81F0000000000009C
:1037D00000000000000000000000000000000000E9
:1037E000E007101C0818043004300C300C30003096
:1037F00000180008000400020001800040002020A2
:10380000102008200430FC1FFC1F000000000000F6
:1038100000000000000000000000000000000000A8
:10382000E003180E0C0C0C180C180C180018000CE7
:103830000006C003000E00180010003000300C30ED
:103840000C300C100C18180CE003000000000000F5
:103850000000000000000000000000000000000068
:10386000000C000E000E000F800E800E400E600E49
:10387000200E100E100E080E040E040EFE7F000E19
:10388000000E000E000E000E000EC07F00000000B3
:103890000000000000000000000000000000000028
:1038A000F03FF03F10001000100008000800C807AB
:1038B000280C1818081000300030003000300C3090
:1038C0000C3004180418080CF0030000000000007D
:1038D00000000000000000000000000000000000E8
:1038E000800FC010203010301800180008000C00A5
:1038F0008C0F6C183C301C600C600C600C600C6011
:103900001860182030306018C00700000000000068
:1039100000000000000000000000000000000000A7
:10392000F83FF83F1C100C080408040400040002CF
:103930000002000100010001800080008000C00042
:10394000C000C000C000C000C000000000000000B7
:103950000000000000000000000000000000000067
:10396000E007300C18180C300C300C301C303818B4
:103970007008E007B007180E0C1C06380630063039
:10398000063006300C18180CE003000000000000A0
:103990000000000000000000000000000000000027
:1039A000E00318040C080C18061006300630063028
:1039B000063006380C3C1836F0310030001800187C
:1039C00000180C0C0C060C03F001000000000000B5
:1039D00000000000000000000000000000000000E7
:1039E0000000000000000000000000000000800156
:1039F000C003C003800100000000000000000000C0
:103A000000008001C003C00380010000000000002E
:103A100000000000000000000000000000000000A6
:103A20000000000000000000000000000000C000D6
:103A3000C0000000000000000000000000000000C6
:103A4000000000000000C000C000800080004000B6
:103A50004000000000000000000000000000002006
:103A6000001000080004000600038001C000600090
:103A7000300018000C00180030006000C000800109
:103A800000030006000400080010002000000000F1
:103A90000000000000000000000000000000000026
:103AA0000000000000000000000000000000FE7F99
:103AB00000000000000000000000FE7F0000000089
:103AC00000000000000000000000000000000000F6
:103AD00000000000000000000000000000000400E2
:103AE0000800100020006000C000800100030006F4
:103AF000000C001800300018000C000600038001C4
:103B0000C000600020001000080004000000000059
:103B10000000000000000000000000000000C007DE
:103B20003018083008600C601C601C601C6000309D
:103B3000001C000600018000800080008000000062
:103B400000008001C003C0038001000000000000ED
:103B50000000000000000000000000000000000065
:103B6000C0076018103018200C2F8C4D864CC64CA6
:103B7000C64C664C66446644662666266615CC1CB2
:103B80000C40082018303018C0070000000000006A
:103B90000000000000000000000000000000000124
:103BA000C001C001C00140016003200320032003C5
:103BB0003006100610061006F80F080C080C080C4A
:103BC0000C0C0418041806181F7C000000000000EC
:103BD00000000000000000000000000000000000E5
:103BE000FE07181C183818301830183018301818FC
:103BF000180CF8071818183018201860186018608A
:103C00001860186018301818FE0F0000000000003F
:103C100000000000000000000000000000000000A4
:103C2000C0276038103018200C400C4004000600FB
:103C300006000600060006000600060006000C400E
:103C40000C400C2018303018C007000000000000A5
:103C50000000000000000000000000000000000064
:103C6000FE03180E18181830183018301860186035
:103C700018601860186018601860186018601830B4
:103C8000183018101818180EFE030000000000006D
:103C90000000000000000000000000000000000024
:103CA000FE3F18301820186018401800180818082F
:103CB000180CF80F180C180818081800180018002D
:103CC0001840184018201830FE3F00000000000087
:103CD00000000000000000000000000000000000E4
:103CE000FE7F1870184018C018801800181018109F
:103CF0001818F81F181818101810180018001800B5
:103D000018001800180018007E00000000000000D5
:103D100000000000000000000000000000000000A3
:103D2000C013701C101018100C200C20040006008A
:103D3000060006000600060006FC063006300C30C1
:103D40000C30183018303008C007000000000000A8
:103D50000000000000000000000000000000000063
:103D60003F7E0C180C180C180C180C180C180C189A
:103D70000C180C18FC1F0C180C180C180C180C182C
:103D80000C180C180C180C183F7E000000000000E6
:103D90000000000000000000000000000000000023
:103DA000F81F800180018001800180018001800175
:103DB00080018001800180018001800180018001FB
:103DC0008001800180018001F81F000000000000D8
:103DD00000000000000000000000000000000000E3
:103DE000E07F00060006000600060006000600064A
:103DF0000006000600060006000600060006000693
:103E00000006000600060006000600060E060E0369
:103E10008E01FC0000000000000000000000000017
:103E20007E7C181818081804180618021801980142
:103E30009801D801B803380318071806180E180C93
:103E4000181C1818183018307EFC00000000000004
:103E50000000000000000000000000000000000062
:103E60007E0018001800180018001800180018002C
:103E70001800180018001800180018001800180082
:103E80001840184018201830FE3F000000000000C5
:103E90000000000000000000000000000000000022
:103EA0001FF81C381C381C381C3C3434343434346F
:103EB000343674326432643264326431C431C431B1
:103EC000C431C430C43084309FFC000000000000C6
:103ED00000000000000000000000000000000000E2
:103EE0001F7C1C103C103410341074106410E4104B
:103EF000C410C41184118413041304170416041E7F
:103F0000041C041C041C04181F18000000000000FE
:103F100000000000000000000000000000000000A1
:103F2000C003300C181808100C300C300660066006
:103F300006600660066006600660066006600C208B
:103F40000C3008101818300CC003000000000000EE
:103F50000000000000000000000000000000000061
:103F6000FE0F181818301860186018601860186074
:103F700018301818F80F180018001800180018004A
:103F800018001800180018007E0000000000000053
:103F90000000000000000000000000000000000021
:103FA000C003300C18180C100C300C200660066092
:103FB0000660066006600660066006600660E461F2
:103FC0002C331C321816300EC007004C007C003811
:103FD00000000000000000000000000000000000E1
:103FE000FE07181C183818301830183018301818F8
:103FF000180CF80798031803180718061806180E67
:10400000180C180C181C18187E780000000000000E
:1040100000000000000000000000000000000000A0
:10402000E027303818300C200C200C000C00180051
:104030007800E003800F001E00380070006004600C
:104040000460086018303818C80F00000000000035
:104050000000000000000000000000000000000060
:10406000FC3F8C218461824182418001800180017A
:104070008001800180018001800180018001800138
:104080008001800180018001E00700000000000045
:104090000000000000000000000000000000000020
:1040A0003F7C0C100C100C100C100C100C100C1091
:1040B0000C100C100C100C100C100C100C100C1020
:1040C0000C100C1008083804E00300000000000089
:1040D00000000000000000000000000000000000E0
:1040E0003EF81820182018203010301030103010F2
:1040F000600860086008E00CC004C004C0048003CD
:104100008003800380030001000100000000000024
:10411000000000000000000000000000000000009F
:10412000DFF38661862186218C210C218C238C1360
:104130008C138C134C1358125816580E380E380E18
:10414000380E300C100410041004000000000000B1
:10415000000000000000000000000000000000005F
:104160007E3E180838083004300470026002E00116
:10417000C001C001800180034003400720062006E3
:10418000100C100C081808183E7C000000000000FD
:10419000000000000000000000000000000000001F
:1041A0007E7C1C10181018083008300C7004600455
:1041B0006002C002C002C001800180018001800154
:1041C0008001800180018001E00700000000000004
:1041D00000000000000000000000000000000000DF
:1041E000F83F18180818040C040E00060007000316
:1041F00080038001C001C000E0006000700030005A
:10420000382018201C100C18FE1F000000000000B1
:1042100000000000000000000000C03F400040001F
:10422000400040004000400040004000400040008E
:10423000400040004000400040004000400040007E
:104240004000400040004000400040004000C03FAF
:104250000000000000000000000000000000080056
:1042600018001800100030002000600060004000BE
:10427000C0008000800180010001000300020006F0
:1042800000060004000C00080018001800100030A0
:1042900000200000000000000000FC0300020002FB
:1042A00000020002000200020002000200020002FE
:1042B00000020002000200020002000200020002EE
:1042C0000002000200020002000200020002FC03E1
:1042D000000000000000000000008007C006200869
:1042E00010100000000000000000000000000000AE
:1042F00000000000000000000000000000000000BE
:1043000000000000000000000000000000000000AD
:10431000000000000000000000000000000000009D
:10432000000000000000000000000000000000008D
:10433000000000000000000000000000000000007D
:10434000000000000000000000000000000000006D
:104350000000FFFF0000000000007800C000000126
:10436000000000000000000000000000000000004D
:10437000000000000000000000000000000000003D
:10438000000000000000000000000000000000002D
:10439000000000000000000000000000000000001D
:1043A0000000000000000000000000000000F0031A
:1043B00018060C0C0C0C000C800F700C1C0C0C0C58
:1043C000060C060C064C0C4FF838000000000000EC
:1043D00000000000000000000000000000001000CD
:1043E0001E00180018001800180018001800180FF8
:1043F000D818383038601860186018601860186075
:104400001860182038307818C80700000000000035
:10441000000000000000000000000000000000009C
:104420000000000000000000000000000000C007C5
:10443000700C181818180C180C000C000C000C004C
:104440000C20182018103008C007000000000000E1
:10445000000000000000000000000000000000104C
:10446000001E001800180018001800180018E01BA3
:10447000301C181818180C180C180C180C180C18DC
:104480000C180818181C307AE00900000000000021
:10449000000000000000000000000000000000001C
:1044A0000000000000000000000000000000C00745
:1044B000300C181808100C300C30FC3F0C000C00AD
:1044C0000C00182018107018C00700000000000031
:1044D00000000000000000000000000000000000DC
:1044E000003E80C380C0C0C0C000C000C000FC1F30
:1044F000C000C000C000C000C000C000C000C000BC
:10450000C000C000C000C000F80F000000000000A4
:10451000000000000000000000000000000000009B
:104520000000000000000000000000000000C07754
:10453000306C10181818181818181018300CF007CC
:1045400018001800F00FF03F08700C600C600C6051
:104550003838E00F000000000000000000001000EC
:104560001E00180018001800180018001800980FF6
:10457000D818383018301830183018301830183033
:1045800018301830183018307EFC00000000000091
:10459000000000000000000000000000000000001B
:1045A0008003800380030000000000000001F80188
:1045B00080018001800180018001800180018001F3
:1045C0008001800180018001F81F000000000000D0
:1045D00000000000000000000000000000000000DB
:1045E0000038003800380000000000000010801F74
:1045F00000180018001800180018001800180018FB
:104600000018001800180018001800180018180CDE
:104610001806F00300000000000000000000100079
:104620001E00180018001800180018001800183E86
:10463000180C1806180318019801D8013803180738
:104640001806180C181C18187E7C000000000000CA
:104650000000000000000000000000000000000159
:10466000F8018001800180018001800180018001CA
:104670008001800180018001800180018001800132
:104680008001800180018001F81F0000000000000F
:10469000000000000000000000000000000000001A
:1046A0000000000000000000000000000800EE1CF8
:1046B0009C338C318C318C318C318C318C318C3100
:1046C0008C318C318C318C31DE7B0000000000009D
:1046D00000000000000000000000000000000000DA
:1046E00000000000000000000000000010001E0F8D
:1046F000D8183830183018301830183018301830B2
:1047000018301830183018307EFC0000000000000F
:104710000000000000000000000000000000000099
:104720000000000000000000000000000000C007C2
:10473000701C103018300C600C600C600C600C6049
:104740000C60183018303018C0070000000000005E
:104750000000000000000000000000000000000059
:1047600000000000000000000000000010009E0F8C
:1047700058183830182018601860186018601860D1
:10478000186018303830781898071800180018008A
:1047900018007E0000000000000000000000000083
:1047A0000000000000000000000000000000C02326
:1047B000303C183818300C300C300C300C300C30C9
:1047C0000C3008301838303CE03300300030003016
:1047D000003000FC000000000000000000000000AD
:1047E00000000000000000000000000060007E3CAF
:1047F00060666061E000E0006000600060006000F2
:104800006000600060006000FE0700000000000023
:104810000000000000000000000000000000000098
:104820000000000000000000000000000000E02781
:1048300030381830182018007000E003800F001C7A
:10484000043004300C301C18EC0F00000000000095
:104850000000000000000000000000000000000058
:1048600000000000800080008000C000E000FC1F0D
:10487000C000C000C000C000C000C000C000C00038
:10488000C000C020C0208011000F00000000000008
:104890000000000000000000000000000000000018
:1048A00000000000000000000000000010201E3C7E
:1048B00018301830183018301830183018301830B8
:1048C00018301830183830F4E013000000000000F1
:1048D00000000000000000000000000000000000D8
:1048E00000000000000000000000000000007E3C0E
:1048F000181818083808300430047002600260028A
:10490000E001C001C001C000800000000000000004
:104910000000000000000000000000000000000097
:104920000000000000000000000000000000DFF7B1
:104930008E630C238C238C239813981358165816C7
:10494000700E700E700E20042004000000000000A5
:104950000000000000000000000000000000000057
:104960000000000000000000000000000000FC3E0D
:1049700070087004E004C002C00180038003400797
:104980006006200C100C18183E7E0000000000008D
:104990000000000000000000000000000000000017
:1049A00000000000000000000000000000007E7C0D
:1049B0001818180830083008300460046004C00279
:1049C000C002C00280018001800180008000800060
:1049D0004C003C000000000000000000000000004F
:1049E0000000000000000000000000000000FC1FAC
:1049F0000C0C040E0406000380038001C000E000DC
:104A00007020302038301C18FC1F0000000000000F
:104A1000000000000000000000000030000800045A
:104A20000004000400040004000400040004000466
:104A300000040002800100020004000400040004DD
:104A40000004000400040004000400040004000842
:104A50000030000000010001000100010001000120
:104A6000000100010001000100010001000100013E
:104A7000000100010001000100010001000100012E
:104A8000000100010001000100010001000100011E
:104A9000000100010000000000000C0010002000D8
:104AA0002000200020002000200020002000200006
:104AB0002000400080014000200020002000200055
:104AC00020002000200020002000200020001000F6
:104AD0000C00000000003800C40086400261002283
:104AE000001C0000000000000000000000000000AA
:104AF00000000000000000000000000000000000B6
:104B000000000000000000000000000000000000A5
:104B100000000000D6D08000800080008000FC1FD4
:104B200084108410841084108410FC1F8410800072
:104B3000800080008000BEB0F80F0808F80F080859
:104B4000F80F8000FF7F0000F80F08080808F80F32
:104B500080008410A2204000D4B00000FE3F02205C
:104B6000F22702200220FA2F2221222122211229BB
:104B700012290A2E0220FE3F0220B5E780008000A5
:104B80008000FC1F841084108410FC1F841084108B
:104B90008410FC1F845080408040007FD7D30000E9
:104BA000FE1F00080004000280018000FF7F8000DB
:104BB00080008000800080008000A0004000D6D0EF
:104BC00000000000000000180000080000080000BD
:104BD0000800080818F8FF1F1808181808181808FF
:104BE00018180818180818180818F8FF1F080808D7
:104BF000000800000800000800000800001800007D
:104C00001800001800000000BEB000000000000006
:104C1000400006C0FF07400006C0FF07400006C076
:104C2000FF07400802003000FEFF3F000000C0FF09
:104C300007C00002C00002C00002C0FF03801000D5
:104C400080110160100E3010180C1E30001C000086
:104C50000000D4B0000000000000080030F8FF1F82
:104C600008001008C010083F1008001008001008C5
:104C70000013C8FF10082210082210082210082272
:104C80001008211208211488601648C0132800104B
:104C9000080010F8FF1F080010000000B5E7000032
:104CA00000000000001800000800000800000800D4
:104CB000F0FF0F100804100804100804100804F096
:104CC000FF07100804100804100804100804F0FF7F
:104CD0000710080000081000081000082000183015
:104CE00000F01F000000D7D300000000000000000B
:104CF00004F0FF0F00000600000100C000002800C3
:104D0000001800001800001830FEFF7F0018000097
:104D10001800001800001800001800001800001803
:104D200000001800001800001F00000C0000000028
:104D3000D6D00000000000000000008000000080CD
:104D4000010000800100008001000080010000805F
:104D500001001080010CF0FFFF0F30800104308053
:104D6000010430800104308001043080010430806F
:104D700001043080010430800104F0FFFF0730801F
:104D800001043080010400800100008001000080E7
:104D9000010000800100008001000080010000800F
:104DA0000100008001000080010000800000000080
:104DB0000000BEB000000000000000000000000085
:104DC0000001800100FFFF0100038001000380015A
:104DD00000FFFF01000380010003800100FFFF01CD
:104DE00000818100000003000000031CFCFFFF3F66
:104DF000000040000003C00100FFFF010003C000ED
:104E00000003C0000003C00000FFFF0000014100DC
:104E100000040100000E71000007810180010107FC
:104E20006000010E1898011C04E0011800C0000089
:104E300000000000D4B000000000000000000000EE
:104E40000008F0FFFF1F3000000C3000000C3000A5
:104E5000100C30FE3F0C3004000C3000000C300011
:104E6000000C3000000C3000C00CF0FFFF0D3030A3
:104E7000060E3030060C3010060C3010060C3010C8
:104E8000060C3018860C3018860C3008060D300CD5
:104E9000860D3006EE0F3002FC0D3001000CF000E4
:104EA000000C3000000CF0FFFF0F3000000C100071
:104EB000000400000000B5E7000000000000000052
:104EC00000C0000000C0010000C0000000C00000E1
:104ED00000C0000000C00000E0FFFF0360C000034E
:104EE00060C0000360C0000360C0000360C0000336
:104EF00060C00003E0FFFF0360C0000360C0000368
:104F000060C0000360C0000360C00003E0FFFF0357
:104F100060C0000160C0000000C0000800C00010B8
:104F200000C0001000C0001800C001380080FF1F42
:104F30000000000000000000D7D3000000000000C7
:104F400000000000000000000003C0FFFF07000099
:104F500080070000C0000000600000001800000092
:104F60000C0000800300008003000080010000802E
:104F700001080080011CFCFFFF3F00800100008051
:104F8000010000800100008001000080010000801D
:104F9000010000800100008001000080010000800D
:104FA0000100008001000080010000FC010000E021
:104FB000000000400000000000000000DC4F00087E
:104FC00000000020080000009C1E0008E44F0008BC
:104FD0000800002000040000AC1E000800093D008D
:044FE00000000000CD
:040000050800018965
:00000001FF
