:020000040800F2
:1000000078070020CD0100084D1400081D060008E7
:10001000491400087D0200084F1800080000000085
:10002000000000000000000000000000F3150008C0
:100030006D040008000000004F14000805170008B8
:10004000E7010008E7010008E7010008E7010008F0
:10005000E7010008E7010008E7010008E7010008E0
:10006000E7010008E7010008E7010008E7010008D0
:10007000E7010008E7010008E7010008E7010008C0
:10008000E7010008E7010008E7010008E7010008B0
:10009000E7010008E7010008E7010008E7010008A0
:1000A000E7010008E7010008E7010008E701000890
:1000B000E7010008E7010008E7010008E701000880
:1000C000E7010008E7010008E7010008E701000870
:1000D000E701000869170008E7010008E7010008C8
:1000E000E7010008E7010008E7010008E701000850
:1000F000E7010008E7010008E7010008E701000840
:10010000E7010008E7010008E7010008E70100082F
:10011000E7010008E7010008E7010008E70100081F
:10012000E7010008E7010008E7010008E70100080F
:1001300000F002F800F03AF80AA090E8000C8244BF
:100140008344AAF10107DA4501D100F02FF8AFF29C
:10015000090EBAE80F0013F0010F18BFFB1A43F0A5
:100160000103184788BD0200A8BD0200103A24BF51
:1001700078C878C1FAD8520724BF30C830C144BF0C
:1001800004680C607047000000230024002500264E
:10019000103A28BF78C1FBD8520728BF30C148BFEA
:1001A0000B6070471FB51FBD10B510BD00F033F8D0
:1001B0001146FFF7F7FF01F097FB00F051F803B489
:1001C000FFF7F2FF03BC01F044FB00000948804741
:1001D00009480047FEE7FEE7FEE7FEE7FEE7FEE729
:1001E000FEE7FEE7FEE7FEE704480549054A064B41
:1001F000704700000917000831010008780100204D
:1002000078070020780300207803002070477047AB
:10021000704770477047754600F02CF8AE460500F1
:100220006946534620F00700854618B020B5FFF711
:10023000DBFFBDE820404FF000064FF000074FF015
:1002400000084FF0000B21F00701AC46ACE8C009F4
:10025000ACE8C009ACE8C009ACE8C0098D467047FD
:1002600010B50446AFF300802046BDE81040FFF70C
:10027000A6BF0000004870471801002000BFFEE73D
:1002800000F0805111B10349086001E00249486063
:1002900070470000040402400000024021B10268DF
:1002A00042F00102026004E002684FF6FE731A4059
:1002B0000260704701684FF6FE7211400160002134
:1002C000016041608160C1604B49884208D14A4960
:1002D0000839496841F00F01474A083A51608AE0FD
:1002E00045491431884208D143490839496841F0E9
:1002F000F001414A083A51607DE03F492831884287
:1003000008D13D490839496841F470613A4A083AD0
:10031000516070E038493C31884208D1364908398B
:10032000496841F47041344A083A516063E0324907
:100330005031884208D130490839496841F4702168
:100340002D4A083A516056E02B496431884208D161
:1003500029490839496841F47001274A083A51602F
:1003600049E025497831884208D12349083949684C
:1003700041F07061204A083A51603CE01F498842D0
:1003800006D1011F096841F00F01021F116032E020
:100390001A491431884208D11849091F096841F0E7
:1003A000F001164A121F116025E0144928318842D5
:1003B00008D11249091F096841F470610F4A121FE0
:1003C000116018E00D493C31884208D10B49091FE2
:1003D000096841F47041094A121F11600BE0074996
:1003E0005031884207D10549091F096841F470213D
:1003F000024A121F116070470800024008040240C0
:1004000001460020002201F0805313B1054B1A6809
:1004100001E0054B1A6802EA01030BB1012000E07C
:1004200000207047000402400000024010B5002286
:10043000026847F6F0739A430C6A8B6823430C6991
:1004400023434C6923438C692343CC6923434C6A7F
:1004500023438C6A23431A430260CB6843600B68D2
:1004600083604B68C36010BD4160704770472DE9E1
:10047000F04102460025002600200023002400272A
:1004800091F803C00CF00F0591F803C00CF0100CAC
:10049000BCF1000F03D091F802C04CEA050591F8B9
:1004A00000C0BCF1000F31D0146800202BE04FF0E9
:1004B000010C0CFA00F3B1F800C00CEA03069E42EE
:1004C00020D183004FF00F0C0CFA03F7BC4305FA60
:1004D00003FC4CEA040491F803C0BCF1280F06D1D8
:1004E0004FF0010C0CFA00FCC2F814C00AE091F8BD
:1004F00003C0BCF1480F05D14FF0010C0CFA00FC11
:10050000C2F810C0401C0828D1D31460B1F800C054
:10051000BCF1FF0F34DD546800202EE000F1080C20
:100520004FF0010808FA0CF3B1F800C00CEA03061A
:100530009E4221D183004FF00F0C0CFA03F7BC430D
:1005400005FA03FC4CEA040491F803C0BCF1280F3F
:1005500005D100F1080C08FA0CF8C2F8148091F8E3
:1005600003C0BCF1480F07D100F1080C4FF001089F
:1005700008FA0CF8C2F81080401C0828CED354604A
:10058000BDE8F081F0B50A460023002400210025D3
:1005900000F00046B6F1004F02D11D4EF16901E0B6
:1005A0001B4E7168C0F3034583B200F44016B6F5E4
:1005B000401F08D121F07061154E766826F07066F4
:1005C000134F7E6012E000F48016B6F5801F06D14E
:1005D000032606FA05F4A14341F0706106E0460DDA
:1005E000360103FA06F6B14341F0706122B1460DBF
:1005F000360103FA06F6314300F00046B6F1004F2B
:1006000002D1034EF16101E0014E7160F0BD0000C6
:1006100000000140416170470161704700BFFEE783
:100620002DE9F04107460C4615461E462A2000F0EB
:1006300057FE384600F045FE284600F042FE2B20CB
:1006400000F04EFE204600F03CFE304600F039FE41
:100650002C2000F045FEBDE8F08170B504460D4643
:1006600016462B46224629462046FFF7D9FF30463C
:1006700000F027FE70BD00002DE9F84F07468846C0
:1006800014461D46DDF828904FF0010ACDF8009081
:10069000E01BA5EB080100FB01F6681E83B2601E9B
:1006A00082B241463846FFF7BBFF08212748FFF7D3
:1006B000B1FF2748008840F40060254908800121E7
:1006C000234800F055FF26E04FF6FE70864202D91F
:1006D000361A834602E04FF0000AB3461FFA8BF346
:1006E0006A461B490C311B4800F06AFE01220221B8
:1006F000174800F049FF174800F092FE09E04FF458
:100700000070FFF77DFE20B14FF40070FFF7B8FDD9
:1007100000E0F4E700BFBAF1000FD5D108210B4883
:10072000FFF77AFF0A480088C04309490880084655
:10073000008840F40060088008460088C0430880B4
:100740000121034800F014FFBDE8F88F00080140C4
:10075000003001403000024008B50121042000F0C3
:1007600087FE1E20ADF8000010208DF80300032046
:100770008DF8020069460448FFF779FE1E21024801
:10078000FFF74AFF08BD00000008014010B500F067
:100790007FFEFFF7E1FF02218548FFF73BFF642062
:1007A00001F07CF802218248FFF736FF642001F057
:1007B00075F810217E48FFF72FFF642001F06EF8D6
:1007C000112000F08DFD782001F068F8CF2000F0B6
:1007D00087FD002000F07EFDD92000F07BFD302059
:1007E00000F078FDED2000F07BFD642000F072FD4C
:1007F000032000F06FFD122000F06CFD812000F05E
:1008000069FDE82000F06CFD852000F063FD1020FC
:1008100000F060FD782000F05DFDCB2000F060FD71
:10082000392000F057FD2C2000F054FD002000F08E
:1008300051FD342000F04EFD022000F04BFDF7206A
:1008400000F04EFD202000F045FDEA2000F048FDBC
:10085000002000F03FFD002000F03CFDC02000F033
:100860003FFD212000F036FDC12000F039FD1220AF
:1008700000F030FDC52000F033FD322000F02AFDED
:100880003C2000F027FDC72000F02AFDC12000F029
:1008900021FD362000F024FD082000F01BFD3A2049
:1008A00000F01EFD552000F015FDB12000F018FDF0
:1008B000002000F00FFD182000F00CFDB62000F025
:1008C0000FFD0A2000F006FDA22000F003FDF2203B
:1008D00000F006FD002000F0FDFC262000F000FDE9
:1008E000012000F0F7FCE02000F0FAFC0F2000F0FF
:1008F000F1FC202000F0EEFC1E2000F0EBFC0920B3
:1009000000F0E8FC122000F0E5FC0B2000F0E2FC17
:10091000502000F0DFFCBA2000F0DCFC442000F0A6
:10092000D9FC092000F0D6FC142000F0D3FC0520EF
:1009300000F0D0FC232000F0CDFC212000F0CAFC08
:10094000002000F0C7FCE12000F0CAFC002000F00D
:10095000C1FC192000F0BEFC192000F0BBFC0020F7
:1009600000F0B8FC122000F0B5FC072000F0B2FC4B
:100970002D2000F0AFFC282000F0ACFC3F2000F060
:10098000A9FC022000F0A6FC0A2000F0A3FC08202D
:1009900000F0A0FC252000F09DFC2D2000F09AFC2A
:1009A0000F2000F097FC292000F09AFC10BD0000F9
:1009B000000801402DE9FF5F80468A4617469B46A6
:1009C0000F9D00200290CDF80080284605EBD071E5
:1009D000C1F347042046E21704EB5272D2102146BD
:1009E000E31704EB5373DB10A4EBC3030BB1012338
:1009F00000E000231A446A4392B20192A7F120005A
:100A0000C7B20AEB0500401E83B208EB0400401E8B
:100A100082B251464046FFF703FE002669E00C2DE6
:100A200007D107EB4700354901EB8000805D03905B
:100A30001BE0102D05D1324800EB0710805D0390BC
:100A400013E0182D07D107EB47002E4901EB0010EA
:100A5000805D039009E0202D05D12B4800EB871025
:100A6000805D039001E0BDE8FF9F4FF000093AE090
:100A70001098C8B9012000FA09F00399084018B18C
:100A8000584600F01EFC02E00E9800F01AFC029896
:100A9000401CC0B20290029890FBF4F104FB1100DC
:100AA000E8B90020029021E0012000FA09F0039942
:100AB000084020B15A4651464046FFF7CEFD08F1A6
:100AC00001001FFA80F80098A8EB0000A04206D1B0
:100AD000DDF800800AF101001FFA80FA06E009F152
:100AE000010000F0FF09B9F1080FC1DB00BF701C65
:100AF00086B20198864292DB00BFB4E7D085020837
:100B0000448A02083490020804A202082DE9FE4F2C
:100B10008046894617469A46DDE90D460C9D36E02B
:100B20000C2C09D153463A4649464046CDE9014688
:100B3000009500F031F825E0102C09D153463A46D3
:100B400049464046CDE90146009500F0C9F819E054
:100B5000182C09D153463A4649464046CDE901464C
:100B6000009500F059F90DE0202C09D153463A4682
:100B700049464046CDE90146009500F0F1F901E013
:100B8000BDE8FE8FBF1C08EB04001FFA80F8387820
:100B90000028C5D100BFF3E72DE9FF5F064689466F
:100BA00092469B460F9C0020039000962046E21739
:100BB00004EB5272D2102146E31704EB5373DB109F
:100BC000A4EBC3030BB1012300E000231A446243EA
:100BD00092B2019205200290002579E005EB850094
:100BE00000EBC5003D4911F810009AF8001088424A
:100BF0006BD105EB850000EBC500384901EB4000E7
:100C000040789AF8011088425FD109EB0400401E39
:100C100083B23019401E82B249463046FFF700FDCC
:100C200000274FE04FF0000846E0109808BB05EBA6
:100C3000850000EBC500294901EB4000801CC05D28
:100C4000012101FA08F1084018B1584600F039FBBB
:100C500002E00E9800F035FB0398401CC0B20390F0
:100C6000039890FBF4F104FB110008BB00200390F3
:100C700025E005EB850000EBC500184901EB4000BD
:100C8000801CC05D012101FA08F1084020B15A46DC
:100C900049463046FFF7E1FC701C86B20098301AD6
:100CA000A04205D1009E09F101001FFA80F906E07B
:100CB00008F1010000F0FF08B8F1080FB5DB00BF34
:100CC000781CC7B201988742ACDB00BF681C85B2B4
:100CD0000298854282DBBDE8FF9F0000C4B902088C
:100CE0002DE9FF5F0646894692469B460F9C0020F1
:100CF000039000962046E21704EB5272D210214670
:100D0000E31704EB5373DB10A4EBC3030BB1012314
:100D100000E000231A44624392B20192052002903F
:100D2000002571E005EB05103A4911F810009AF81A
:100D30000010884265D105EB0510364901EB4000F3
:100D400040789AF8011088425BD109EB0400401EFC
:100D500083B23019401E82B249463046FFF760FC2C
:100D600000274BE04FF0000842E01098F8B905EB7F
:100D70000510284901EB4000801CC05D012101FAEB
:100D800008F1084018B1584600F09BFA02E00E98AE
:100D900000F097FA0398401CC0B20390039890FBB0
:100DA000F4F104FB1100F8B90020039023E005EBF7
:100DB0000510184901EB4000801CC05D012101FABB
:100DC00008F1084020B15A4649463046FFF745FC35
:100DD000701C86B20098301AA04205D1009E09F11D
:100DE00001001FFA80F906E008F1010000F0FF0899
:100DF000B8F1080FB9DB00BF781CC7B20198874271
:100E0000B0DB00BF681C85B2029885428ADBBDE872
:100E1000FF9F000046BA02082DE9FF5F064689469B
:100E200092469B460F9C0020039000962046E217B6
:100E300004EB5272D2102146E31704EB5373DB101C
:100E4000A4EBC3030BB1012300E000231A44624367
:100E500092B2019205200290002579E005EB850011
:100E600000EB45103D4911F810009AF80010884237
:100E70006BD105EB850000EB4510384901EB4000D4
:100E800040789AF8011088425FD109EB0400401EB7
:100E900083B23019401E82B249463046FFF7C0FB8C
:100EA00000274FE04FF0000846E0109808BB05EB24
:100EB000850000EB4510294901EB4000801CC05D16
:100EC000012101FA08F1084018B1584600F0F9F97B
:100ED00002E00E9800F0F5F90398401CC0B20390B0
:100EE000039890FBF4F104FB110008BB0020039071
:100EF00025E005EB850000EB4510184901EB4000AB
:100F0000801CC05D012101FA08F1084020B15A4659
:100F100049463046FFF7A1FB701C86B20098301A94
:100F2000A04205D1009E09F101001FFA80F906E0F8
:100F300008F1010000F0FF08B8F1080FB5DB00BFB1
:100F4000781CC7B201988742ACDB00BF681C85B231
:100F50000298854282DBBDE8FF9F0000F0BA0208DC
:100F60002DE9FF5F0646894692469B460F9C00206E
:100F7000039000962046E21704EB5272D2102146ED
:100F8000E31704EB5373DB10A4EBC3030BB1012392
:100F900000E000231A44624392B2019205200290BD
:100FA000002571E005EB85103A4911F810009AF818
:100FB0000010884265D105EB8510364901EB4000F1
:100FC00040789AF8011088425BD109EB0400401E7A
:100FD00083B23019401E82B249463046FFF720FBEB
:100FE00000274BE04FF0000842E01098F8B905EBFD
:100FF0008510284901EB4000801CC05D012101FAE9
:1010000008F1084018B1584600F05BF902E00E986C
:1010100000F057F90398401CC0B20390039890FB6E
:10102000F4F104FB1100F8B90020039023E005EB74
:101030008510184901EB4000801CC05D012101FAB8
:1010400008F1084020B15A4649463046FFF705FBF3
:10105000701C86B20098301AA04205D1009E09F19A
:1010600001001FFA80F906E008F1010000F0FF0816
:10107000B8F1080FB9DB00BF781CC7B201988742EE
:10108000B0DB00BF681C85B2029885428ADBBDE8F0
:10109000FF9F000062BC02082DE9FF4F85B00746A4
:1010A00090461C46DDE91396304606EBD071C1F33D
:1010B000470B2149404600F07FFF039000F05CFFA2
:1010C00080B20490002531E0601B401EC1B20A20AE
:1010D00000F002FD0499B1FBF0F00A21B0FBF1F23F
:1010E00001FB120AA01EA84210D10020A11E01FB84
:1010F0000B71CDE90096029088B22E22129B0699C0
:10110000FFF758FC681CC5B2601CC4B200200AF18D
:101110003001CAB205FB0B71CDE90096029088B28E
:10112000129B0699FFF746FC681CC5B2A542CBDBB3
:1011300009B0BDE8F08F00000000C8422DE9FF4F64
:1011400085B0074691461D46DDE913A600200490B0
:10115000304606EBD071C1F3470B002434E0281B66
:10116000401EC1B20A2000F0B7FCB9FBF0F00A2122
:10117000B0FBF1F201FB12080498A0B9681EA0426E
:1011800011DDB8F1000F0CD1002004FB0B71CDE98B
:1011900000A6029088B22022129B0699FFF70AFC53
:1011A00010E001200490002008F13001CAB204FBD5
:1011B0000B71CDE900A6029088B2129B0699FFF749
:1011C000F9FB00BF601CC4B2AC42C8DB09B0BDE88B
:1011D000F08F00002DE9F05F0746884614461D4653
:1011E000DDF828904FF0010A04FB05F0460008EBFB
:1011F0000500401E83B23819401E82B2414638466F
:10120000FFF70EFA08211B48FFF704FA29E04FF612
:10121000FE70864202D9361A834602E04FF0000A79
:10122000B3461FFA8BF34A461349144800F09AF864
:101230000122022110480C3800F0A6F90F4800F0F6
:10124000EFF809E04FF40070FFF7DAF820B14FF43F
:101250000070FFF715F800E0F4E700BF4FF6FE70EE
:101260008144BAF1000FD2D108210248FFF7D4F926
:10127000BDE8F09F000801400C3001403000024002
:101280002DE9FE4F06460F4614469846DDE90D5AF5
:10129000DDF8309010E0CDE9015ACDF800902278C9
:1012A000434639463046FFF785FB284605EBD071AB
:1012B00006EB61018EB2641C20780028EBD1BDE8FA
:1012C000FE8F10B50446201200F01AF8E0B200F0CC
:1012D00017F810BD10B50446204600F011F810BDF7
:1012E00010B5044604210548FFF794F9204600F0A4
:1012F00007F804210148FFF78FF910BD00080140ED
:1013000010B5044608210548FFF784F9204600F08F
:1013100005F908210148FFF77FF910BD00080140D9
:1013200008B50121052000F0A3F801210B48FFF7C3
:1013300029F94FF40040ADF8000010208DF80300AB
:1013400003208DF8020069460548FFF790F84FF436
:1013500000410348FFF760F908BD000000023000BB
:10136000000801402DE9F04107460D4616461C468F
:101370000121084600F06CF83846FEF79BFF0E4846
:1013800004800E480560466010200C4988600846BD
:10139000C460002008618020486100208861C86125
:1013A00008624FF480504862002088623846FFF798
:1013B0003DF8BDE8F081000014000020240000206A
:1013C0002DE9F04107460D4616461C460121084608
:1013D00000F03EF83846FEF76DFF0F4804800F48D6
:1013E0000560466010200D4988600846C4600020F2
:1013F000086148614FF4807088618000C8610020F6
:1014000008624FF480504862002088623846FFF737
:101410000DF8BDE8F0810000140000202400002039
:1014200010B5044600212046FEF738FF0448018825
:101430000448FFF719F801212046FEF72FFF10BDE1
:10144000140000203000024000BFFEE770477047E4
:1014500029B1064A52690243044B5A6104E0034A27
:1014600052698243014B5A617047000000100240EC
:1014700029B1064A92690243044B9A6104E0034A87
:1014800092698243014B9A6170470000001002404C
:1014900000B587B001210803FFF7EAFF012104200E
:1014A000FFF7E6FFE020ADF8180003208DF81A00E2
:1014B00018208DF81B0006A91648FEF7D8FFE0217A
:1014C0001448FFF7A9F80020ADF804004FF482702B
:1014D000ADF806000020ADF808000220ADF80A00C3
:1014E0000120ADF80C004002ADF80E000820ADF868
:1014F00010000020ADF812000720ADF8140001A97B
:10150000054800F058F80121034800F031F807B011
:1015100000BD0000000801400030014070B50546E4
:10152000002405E0601CC4B2C82C01DD002070BDA1
:1015300002210E4800F031F80028F3D029460B486C
:1015400000F037F8002405E0601CC4B2C82C01DDAF
:101550000020ECE70121054800F01FF80028F3D037
:10156000024800F023F8C0B2E1E70000003001407B
:1015700021B1028842F04002028004E002884FF666
:10158000BF731A40028070471AB183880B4383806F
:1015900002E083888B4383807047024600201389D2
:1015A0000B400BB1012000E0002070470146888904
:1015B00070478181704710B50022028802F44152C1
:1015C0000B884C8823438C882343CC8823430C8985
:1015D00023434C8923438C892343CC8923431A43D7
:1015E0000280838B4FF2FF74234083830B8A038234
:1015F00010BD704710B500F001F810BD0CB500200B
:10160000019000903348006840F480303149086010
:1016100000BF3048006800F4003000900198401C82
:101620000190009818B90198B0F5A06FF1D1294840
:10163000006800F4003010B10120009001E00020AB
:1016400000900098012843D12348006840F0100022
:10165000214908600846006820F003000860084639
:10166000006840F0020008601A4840681949486064
:101670000846406848600846406840F4806048601A
:101680000846406820F47C1048600846406840F4F2
:10169000E81048600846006840F08070086000BFAD
:1016A0000C48006800F000700028F9D00948406834
:1016B00020F00300074948600846406840F00200F7
:1016C000486000BF0348406800F00C000828F9D1CA
:1016D0000CBD00000010024000200240042808D188
:1016E0004FF0E021096941F004014FF0E02211615F
:1016F00007E04FF0E021096921F004014FF0E022FA
:10170000116170477047000010B51348006840F041
:1017100001001149086008464068104908400E4918
:101720004860084600680E4908400B4908600846B2
:10173000006820F4802008600846406820F4FE001D
:1017400048604FF41F008860FFF754FF4FF00060BF
:101750000449086010BD0000001002400000FFF8BE
:10176000FFFFF6FE08ED00E010B540F225511D48E0
:1017700000F03EF810B31B4800F064F8C4B21A48F9
:10178000008800F40040C8B91748008800F4804081
:1017900060B10A2C03D000201349088020E01248D1
:1017A000008840F400401049088019E00D2C06D153
:1017B0000D48008840F480400B49088010E00A483A
:1017C0000088C0F30D0009490C5407480088401CEC
:1017D0000549088008460088C72801DD00200880E8
:1017E00010BD000000380140200000205000002003
:1017F00070B50246002400230025002040F66A163A
:10180000B14200D100BFC1F3421501F01F03012610
:1018100006FA03F3012D02D19689334006E0022D2A
:1018200002D1168A334001E0968A33400C12012619
:1018300006FA04F41688344013B10CB1012000E01C
:10184000002070BD01468888C0F30800704700BFC3
:10185000FEE700BF7047000010B56FF00400FFF70F
:101860003DFF0A4800680A49B0FBF1F009490870D9
:101870000846007800EB4001C1EBC0104FF6FF7145
:1018800001EAC0000449088010BD000000000020EB
:1018900000127A0016000020180000200146114AAC
:1018A00012884A434FF0E0235A6100229A611A4697
:1018B000126942F001021A6100BF4FF0E022106984
:1018C00000F001021AB100F48032002AF5D04FF086
:1018D000E022126922F001024FF0E0231A61002297
:1018E0009A617047180000200EB54FF0000AFFF70C
:1018F000B3FFFFF715FDFEF749FF4FF6FF704FF4FA
:10190000A073F022002100900846FEF7B5FE0020EB
:1019100060490860BCE060484FF4A073F0220021E9
:1019200000900846FFF756FC4FF47A70FFF7B6FFB9
:101930004FF6FF704FF4A073F0220021009008468C
:10194000FEF79AFE002020214FF6FF724FF47843F5
:10195000CDE90021029051A20146FFF7D7F80020FF
:1019600010214FF6FF724FF47843CDE90021029029
:101970004DA22821FFF784FC10204FF6FF714FF491
:1019800078420323CDE900210290F0222821302063
:10199000FFF7D4FB002010214FF6FF724FF478437D
:1019A000CDE90021029042A228215020FFF768FCD7
:1019B00010204FF6FF714FF478420323CDE9002148
:1019C00002904FF4A07228218020FFF7B7FB00207F
:1019D00010214FF6FF724FF47843CDE900210290B9
:1019E00033A228215020FFF74BFC002010214FF696
:1019F000FF724FF47843CDE9002102902EA24621D8
:101A0000FFF73EFC10204FF6FF714FF4784204239D
:101A1000CDE900210290524646218020FFF73CFB91
:101A2000504600F07DFA0746284A294B00F092F80C
:101A3000054600F05DF882464FF0000917E00024EB
:101A40000FE0244809EB8902782303EBC20104EB81
:101A500084020090D00028231A46FFF7BBFB601CCD
:101A6000C4B2062CEDDB09F1010000F0FF09B9F169
:101A7000050FE4DB4FF47A70FFF710FF4FF6FF70AD
:101A80004FF4A073F022002100900846FEF7F4FD09
:101A900041E70000BC012142D02D0008D6D0BEB0E5
:101AA000D4B0B5E7D7D300004C43445F573A0000A9
:101AB0004C43445F483A0000496E63726561736548
:101AC000696E67204E756E3A00000000295C8FC277
:101AD000F528BC3F5021000810B50246012000E067
:101AE00050430B1EA1F10104E1B2F9D110BD000079
:101AF00021F00042A2F16052B2F5801F01F00043D4
:101B000028BFD2F17F6C0BD95FEA001C43EAC20206
:101B100042EB507018BF704728BF20F0010070479B
:101B2000B2F5801FBCBF184670474FEA410C1CF548
:101B3000001F02D2084600F006BB70B500F0B2F8F4
:101B400000000089FFF7F6BF4FF00040A0F58000CD
:101B50007047000010B591EA030F48BF83F00043BF
:101B600000F1FC80841A71EB030C05D2121943EBCF
:101B70000C03001B61EB0C01DFF824E14FEA115468
:101B8000A4EB135C1EEA430F18BF9EEA445F73D0B8
:101B900023EA0E03DCF1200E21EA045143F4801302
:101BA00032D322FA0CFE10EB0E0023FA0CFE41EBAE
:101BB0000E01CCF1200E03FA0EFE10EB0E0051F1D7
:101BC0000001B1F5801FCCF1200E32D201EB04519F
:101BD00012FA0EF2BDE8104058BF7047401C38BFE3
:101BE0005FEA420218BF7047002814BF20F00100CE
:101BF00041F100014FEA410313F5001F38BF704760
:101C0000A1F1C04100F09CB8012A43EB0302ACF102
:101C1000200CDCF11F0E32BF4FF0000E23FA0CF344
:101C200010EB030041EB0451B4EB115FD0D0A1EBFA
:101C3000045101F5801149085FEA300001EB0451BD
:101C40000ED350F1000038BF12FA0EFE08D1BDE8E5
:101C50001040C9E7401C38BF5FEA4202CAD1C3E75F
:101C6000BDE810404FEA410313F5001F38BF70472D
:101C7000A1F1C04100F064B89EEA445F08D011EAC7
:101C80005E0FBDE8104004BF01F000410020704726
:101C9000BDE8104070B500F005F800BF64FBBE3E23
:101CA0000000E0FF0EF1020E2EF0030E5EF8046B52
:101CB000364205D4012A43EB030515F5001F12D85F
:101CC000012841EB010C1CF5001F0CD80ED14FEA86
:101CD000D17C15F5001F0CEB4C0C0CF1020C08BF6D
:101CE0004CEBD37C04E04FF0080C01E04FEAD37CCE
:101CF0000CEB4C0526FA05F606F00706B6F1040CC7
:101D000006D20EEB860CBDE870404CF0010C60472B
:101D1000DFE80CF0090B02024FF000414FF0000029
:101D2000A1F5002170BD19461046012851EB0104B0
:101D300018BFD4F5001484BF002001F0004170BD2D
:101D40000808A0F500114FEA3101704710B591EA7B
:101D5000030F48BF83F000433FF504AF841A71EBD3
:101D6000030C07D212198CF0004C43EB0C03001B40
:101D700061EB0C01DFF8A4E14FEA1154A4EB135C12
:101D80001EEA430F18BF9EEA445F00F0B08023EACA
:101D90006E03524221EA0451C3EB6E0338BF5B1E4F
:101DA000DCF1200E25D322FA0CFE10EB0E0043FAD4
:101DB0000CFE41EB0E01CCF1200E03FA0EFE10EBEF
:101DC0000E0051F10001CCF1200E29D412FA0EF2CE
:101DD00001EB0451BDE8104058BF7047401C1CBFC8
:101DE000B2F1004F704700280CBF491C20F00100E1
:101DF000704712EB020E43EB030218BF4FF0010EC7
:101E00004EEA4202ACF1200CDCF11E0E54D943FA2A
:101E10000CFE10EB0E0051F1FF31CCF11E0ED5D5AA
:101E20000EF1010E12FA0EFE404141EB010101EBF1
:101E3000445C5FEA5C5C10D910EBDE7001EB04518E
:101E400038BFBEF1004FBDE8104018BF70470028F2
:101E50000CBF491C20F00100704730D24FEAD42C4F
:101E600011F5001124F400641BD0B1FA81F20B3A91
:101E7000A41AA41ED2F12003914030FA03F31943AF
:101E8000904001EBCC71002C01EB0451BDE81040F7
:101E9000A8BF704701F1C0414FF0000001F00041C0
:101EA0007047B0FA80F310FA03F100D110BDE41AC4
:101EB000173C4805C90AE4E701EB045110BD49107D
:101EC00001EB0451BDE810404FEA300002E04FF052
:101ED000000170474A0008BF0042F8D0B2F5001F69
:101EE00028BF704701F000414FF0000070479EEAA4
:101EF000445F07D011EA5E0FBDE8104004BF002127
:101F000000207047BDE8104070B5FFF7CBFE00BF62
:101F100040DFF63E83F00041104670470000E0FFCE
:101F200043004FEAD30C4FEA3C0C43401FBF40072D
:101F30000CF1605113F0FE4F70471CF0006F03D19D
:101F400000200CF0004170470CF0004343EA507051
:101F500010B540EACC0000F0B0F800BF00000092DD
:101F60004FEA0001FFF7ECBE4FF000414FF00000D8
:101F7000A1F5002170470000C10DD1F19E0206DBE2
:101F80004FEA002343F0004323FA02F07047004277
:101F900007D54FEA4001B1F1FE4F02D24FF00000E9
:101FA000704710B500F089F84992248000207047EE
:101FB0006FEA2000704700004FF47F0C1CEAD0123B
:101FC0001EBF1CEAD11392EA0C0F93EA0C0F00F02B
:101FD000478090EA010F48BF42F480724FF0004CF6
:101FE0004CEA00204CEA012102EB0302A0FB0113A2
:101FF000A2F50002002918BF43F001035B0028BFCF
:102000004FEA330342EB22425FEA132C4CEBC250FF
:102010002EBFBCEB436FB2F57C0F70474FEA036CE9
:10202000BCF1004F08BF20F00100B2F57C0F38BFB3
:1020300070470BD582F0FF0212F5803FC8BF704792
:1020400000F1C040D8BF00F00040704700F5000C20
:102050005FEA4C0C48BF7047B0F1C04000F073B865
:1020600090EA010F0CEAD11348BF42F48072624536
:1020700038BF634504D280EA010000F00040704799
:1020800010B500F01AF800BF8900013E00F007B853
:1020900000F009B85FEA410C5FEA1C6C08D080EAE6
:1020A000010000F050B85FEA400C5FEA1C6CF6D10A
:1020B0004FF00040A0F5800070470EF1020E2EF0A8
:1020C000030E5EF8044B244204D44FEA4102B2F1FD
:1020D0007F4F11D84FEA4003B3F17F4F0CD80ED198
:1020E0004FEAD07CB2F17F4F0CEB4C0C0CF1020CA0
:1020F00008BF4CEBD17C04E04FF0080C01E04FEA44
:10210000D17C0CEB4C0324FA03F404F00704B4F183
:10211000040C06D20EEB840CBDE810404CF0010C10
:102120006047DFE80CF0070802024FF00040A0F51E
:10213000800010BD0846420018BFD2F1807288BFEF
:1021400000F0004010BDFF2141EAD050C0057047AB
:10215000FFFFFFFFFFFFFFFFFFFFFFFFFFFFFFFF8F
:10216000FFFFFFFFFFFFFFFFFFFFFFFFFFFFF7BEC8
:10217000FFFFFFDEC6388C926B8E6B6E7C10AD96C7
:10218000E73CFFFFFFFFFFFFFFFFFFFFFFFFFFFF3A
:10219000FFFFFFFFFFFFFFFFFFFFFFFFFFFFFFFF4F
:1021A000FFFFFFFFFFFFFFFFFFFFFFFFFFFFFFFF3F
:1021B000FFFFFFFFFFFFFFFFFFFFFFFFFFFFEF5DE1
:1021C0009D15634F426C320A29881946192521450D
:1021D00031E86B8EC638FFFFFFFFFFFFFFFFFFFFF9
:1021E000FFFFFFFFFFFFFFFFFFFFFFFFFFFFFFFFFF
:1021F000FFFFFFFFFFFFFFFFFFFFFFFFFFFFFFFFEF
:10220000FFFFFFFFFFFFFFFFFFFFFFFFA53653109C
:102210004B1053514B0F3A6C31E92167192510E4EB
:1022200008A30062088352CBD69AFFFFFFFFFFFF8F
:10223000FFFFFFFFFFFFFFFFFFFFFFFFFFFFFFFFAE
:10224000FFFFFFFFFFFFFFFFFFFFFFFFFFFFFFFF9E
:10225000FFFFFFFFFFFFFFFFE73C637063B37CB846
:1022600063F54311324D29EA21881926190519050C
:102270001104110410E4008308A38C72FFFFFFFF18
:10228000FFFFFFFFFFFFFFFFFFFFFFFFFFFFFFFF5E
:10229000FFFFFFFFFFFFFFFFFFFFFFFFFFFFFFFF4E
:1022A000FFFFFFFFFFFFDEDB3A4B42F06C354B5484
:1022B00032B12A2E21EB21A9196719051104110445
:1022C000110411041104190510E4004273AFFFFF5B
:1022D000FFFFFFFFFFFFFFFFFFFFFFFFFFFFFFFF0E
:1022E000FFFFFFFFFFFFFFFFFFFFFFFFFFFFFFFFFE
:1022F000FFFFFFFFEF5D3209324C4B10328F2A4F48
:102300002A2E19CC1989218919471905110411049C
:1023100010C410C411041104110410E400428431EB
:10232000FFFFFFFFFFFFFFFFFFFFFFFFFFFFFFFFBD
:10233000FFFFFFFFFFFFFFFFFFFFFFFFFFFFFFFFAD
:10234000FFFFFFFF52EC1947324C2A0B21EC21EC26
:10235000220C5B914AEE11061926190410E410E4D0
:1023600029A7216608A319051104110410E40082AD
:10237000BDF7FFFFFFFFFFFFFFFFFFFFFFFFFFFFB7
:10238000FFFFFFFFFFFFFFFFFFFFFFFFFFFFFFFF5D
:10239000FFFFA535088321882188218921AA218A68
:1023A000426B8C71FFFF8C720883110408C44229B0
:1023B000DEFBEF5D5AEC088311041104110408835D
:1023C00031E8FFDFFFFFFFFFFFFFFFFFFFFFFFFF22
:1023D000FFFFFFFFFFFFFFFFFFFFFFFFFFFFFFFF0D
:1023E000F7BE31C710C4192519261947194729A85E
:1023F000528A4A28AD55FFFF31E808A319056B4DF5
:102400006B4DFFFFEF7D214510C411041104110431
:102410000062AD76FFFFFFFFFFFFFFFFFFFFFFFF43
:10242000FFFFFFFFFFFFFFFFFFFFFFFFFFFFFFFFBC
:10243000B5960062110419041105190508C44A8BE8
:10244000B5B6EF5DBDF7FFFF6B8E006242295AAA59
:102450004208FFFFFFFF52CC08831104110411044E
:1024600008A352ADFFFFFFFFFFFFFFFFFFFFFFFFCE
:10247000FFFFFFFFFFFFE71CFFFFFFFFFFFFFFFF67
:10248000634E006211041104110410E40062638EB3
:10249000FFFFFFFFFFFFFFFF73CF00019CF3632CE3
:1024A000B596FFFFFFFF5B2D00831104110411049B
:1024B00010E42167EF3DFFFFFFFFFFFFFFFFFFFF7E
:1024C000BDF8B5B7EF9E52CB94B3FFFFFFFFFFDF20
:1024D00031E808A3110411041104110408A34249AE
:1024E000F7FFF7FFFFFFFFFF4A6A00018472FFFF5B
:1024F000FFFFF7FFEFDF3A0908A3110411041104ED
:1025000011041105BE18FFFFFFFFFFFFFFFFFFFFD4
:102510007BF0006231E831C70041A535FFFFEF5D78
:10252000214610C4110411041104110410E408A37D
:102530009D76F7FFFFFFADB708A308A331C7E79E5D
:10254000F7FFF7FFA57608A310E4110411041104A6
:1025500011051105A535FFFFFFFFFFFFFFFFFFFF7F
:10256000DEDB29A7008310C410C410C4E71CEF9E53
:10257000110510E41104110411041104190408C414
:1025800010E56BD16BD108C5006408A50043322B60
:102590009D7784B3192510C411041104110411048A
:1025A000192509269D35FFFFFFFFFFFFFFFFFFFFF6
:1025B000FFFF73AF00621904190500825B0D9B8E4B
:1025C0001062110511041104190410E400851105AD
:1025D00039C45A817B409C22AC43A4039B83728202
:1025E000498218C200A400C510E419041104190599
:1025F000194711675AECFFBEFFFFFFFFFFFFFFFF08
:10260000FFDFDEDB10C410E41104110518A4C001C3
:10261000888300E41905190408C521448343D523A0
:10262000FE42FEE4FF27FF07FEA4FE64FE03FDA3B7
:10263000FCE2EC42B383622410E508C419041926B5
:1026400019A821879000BCD3FFFFFFFFFFFFFFFF0A
:10265000FFDFFFFF7C100042190511052883D00120
:10266000F84448A300E408C55A44ED02FDE2FE0226
:10267000FE66FF74FFB8FF73F6E7F6A6F645F5A40D
:10268000FCC3FC62FCC2FCC2CBE349C4110619883E
:10269000018790A4F8019AECFFFFFFFFFFFFFFFF07
:1026A000FFFFFFFFF7BE31E8008309054082C0014C
:1026B000F823F08548A300A45A44FD02CC23DCC2D1
:1026C000FE04FE28F648F646F624F5E4FD64FCE335
:1026D000FC62FCC2E402DC02FCE27AA4014801676D
:1026E00078C4F824F802B084E77DFFFFFFFFFFFF06
:1026F000FFFFFFFFFFFFDEDB192500A338C4E00268
:10270000D822F844F8A678A4006321437283398361
:102710009B82F521FD61FD22FCE2FCA2FC42FC4211
:10272000FC42AB22418392C352040126192598A48E
:10273000F844F823F802D0A4EF9EFFFFFFFFFFFF4D
:10274000FFFFFFFFFFFFFFFFD69A298700A5B843D1
:10275000F822E023F865F8E8C9074883004200A39F
:10276000008429637AA2B362CBA2D362BB028A82BD
:10277000398300A400E500E508E560C4D864F844A6
:10278000F824F823F8028883C6DBFFFFFFFFFFFF72
:10279000FFFFFFFFFFFFFFFFFFFFE73D5B5031083B
:1027A000E823F843F044F865F909F9ABD1898906C3
:1027B00048A31842000200420061008200620062E9
:1027C000008320A350C488A5D885F865F844F84450
:1027D000F823F823D003108229C7EF5DFFFFFFFF26
:1027E000FFFFFFFFFFFFFFFFFFFFFFFFFFFF326C59
:1027F00038A5D802F823F865F866F8A7F94AFA0C64
:10280000FA4DEA4CD20BB9A9B168A947B127B9076B
:10281000D107E8E7F8C7F8A7F865F865F844F823A2
:10282000F803D00228A3090508C45AECFFFFFFFFF4
:10283000FFFFFFFFFFFFFFFFFFFFFFFFDEFB1905AD
:1028400000C441A7C0E6F803F886F8A7F887F88621
:10285000F8C7F929F98AF9ABF9ABF98BF96AF929C3
:10286000F908F8C7F8A6F886F865F864F823F002C6
:10287000B106292500E410E4192519259D14FFFF50
:10288000FFFFFFFFFFFFFFFFFFFFFFFFAD960062AF
:1028900008829535CEBAA28BD044F825F887F8A7E0
:1028A000F8C7F8A7F887F886F886F886F887F8A7B3
:1028B000F8A7F8A6F885F865F864F024B864930DD5
:1028C000B6BB63CF0883110410E421663A49EF5D7B
:1028D000FFFFFFFFFFFFFFFFFFFFFFFF94D300425B
:1028E00010E4CEBBFFFFE7BEB576AACCC107E0453A
:1028F000F845F846F866F886F886F886F886F865AA
:10290000F845F865E865D044A84388019082D73C33
:10291000EFFF95550883110411041905194694B366
:10292000FFFFFFFFFFFFFFFFFFFFFFFF94B300412B
:102930002186DF5DFFFFFFFFFFFFE7DFC67AB4D32D
:10294000B34EC22AD168E0E6E8A6E8A5E8A5D8E635
:10295000C988A906A822A802A000C800D800E5F7E7
:10296000E7FFADF810C410E4110410E411054A8B20
:10297000FFFFFFFFFFFFFFFFFFFFFFFFA555004128
:1029800029A7DF5DF7FFFFFFFFFFFFFFFFFFFFFF4F
:10299000EFFFDF7DCEDBCE59CDF8CDD7C5F7CE79B1
:1029A000BEFBA2ABF003F845D042E843F000D4727E
:1029B000DFFFAE3910E410E4110410E4110529879B
:1029C000FFFFFFFFFFFFFFFFFFFFFFFFCE59088361
:1029D0002146D71CF7FFFFFFFFFFFFFFFFFFFFFFB1
:1029E000FFFFFFFFFFFFFFFFFFFFFFFFFFFFFFFFF7
:1029F000EFFFBA8BF804F845E062F044F800DB8E94
:102A0000DFFFA5F810C410E410E4110410E4192548
:102A1000FFFFFFFFFFFFFFFFFFFFFFFFF7BE29875D
:102A20000883B639F7FFF7DFFFFFFFFFFFFFFFFF68
:102A3000FFFFFFFFFFFFFFFFFFFFFFFFFFFFFFFFA6
:102A4000E7BEBA4AF803F845F864F844F800E36EC4
:102A5000D7FF8CF40883110410E410E410E4190586
:102A6000FFFFFFFFFFFFFFFFFFFFFFFFFFFF73EF12
:102A700000008472EFFFEFBEFFDFFFFFFFFFFFFFED
:102A8000FFFFFFFFFFFFFFFFFFFFFFFFFFFFFFFF56
:102A9000E7DFBA8BF803F845F845F823F800D4D3FC
:102AA000D7FF5B4E00213A29A555088310C419258C
:102AB000FFFFFFFFFFFFFFFFFFFFFFFFFFFFDEFB4B
:102AC00008A331E8DF9EE79EEFBFFFFFFFFFFFFF98
:102AD000FFFFFFFFFFFFFFFFFFFFFFFFFFFFFFFF06
:102AE000F7FFBC51E002F803F003E043C2ECCF7EF5
:102AF000BEFC2146002194D3FFFF845100002987AA
:102B0000FFFFFFFFFFFFFFFFFFFFFFFFFFFFFFFFD5
:102B1000845100008CF4EFFFE79EEFBFFFDFFFFF63
:102B2000FFFFFFFFFFFFFFFFFFFFFFFFFFFFFFFFB5
:102B3000FFFFDF3DBD55BC52BC72B5B7C75DDFFFBF
:102B40006BF000003A09F7BFFFFFFFFF9D14A5558A
:102B5000FFFFFFFFFFFFFFFFFFFFFFFFFFFFFFFF85
:102B6000FFFF4AAC08A4BEBBE7DFE77EEFBEF7DF9E
:102B7000FFDFFFFFFFFFFFFFFFFFFFFFFFFFFFFF85
:102B8000FFDFF7DFEFFFDFDFD7BFD79EDFDFA5D89F
:102B900008831126D6DBFFFFFFFFFFFFFFFFFFFFCC
:102BA000FFFFFFFFFFFFFFFFFFFFFFFFFFFFFFFF35
:102BB000EE79DC8B312121A9CF3DDFBFDF7EE79E9F
:102BC000EFBEEFBFF7DFF7DFF7DFF7DFF7DFEFBFCE
:102BD000EFBEE79EDF7ED75ED75EDFDFB69A1926AF
:102BE0000842A3EDFFBFFFFFFFFFFFFFFFFFFFFF57
:102BF000FFFFFFFFFFFFFFFFFFFFFFFFFFFFDD7492
:102C0000DBC0FE00EE4242022189B67BDFDFD77EC9
:102C1000DF7EDF7EE79EE79EE79EE79EE79EDF7E04
:102C2000DF7ED75DD75DDF9EE7FFA5F8110718E3CC
:102C3000C502FD60D3E6EEDBFFFFFFFFFFFFFFFFF6
:102C4000FFFFFFFFFFFFFFFFFFFFFFFFF79EBA84BD
:102C5000FCC1FE42FE82FEA2838121457474C75EE0
:102C6000DFDFD77ED75ED75DD75ED75ED75DD75D16
:102C7000D75EDF9EE7FFC73D63F108845242E62638
:102C8000FF29FE86F3E0C36AFFFFFFFFFFFFFFFFA0
:102C9000FFFFFFFFFFFFFFFFFFFFFFFFDE18D2C1B7
:102CA000FDA2FE22FE42FE42FE62D4E26A41424999
:102CB0007453A63BC73ED7BFD7BFD7BFDFBFD7BF71
:102CC000C73EA61A63F229A74182B422FE62FE83A0
:102CD000FEAAFF0FFD67BA63EF3CFFFFFFFFFFFF98
:102CE000FFFFFFFFFFFFFFFFFFFFFFFFE69AD2801E
:102CF000FD21FDC2F5E2F5C2F582FD82FD62DC61D7
:102D00009B216A846AE9632C63AF7411636E632C40
:102D10005A8952047A81CBC2FCE2FD62FD82FDC277
:102D2000FDC2FDE4FD24CA62E71CFFFFFFFFFFFFB9
:102D3000FFFFFFFFFFFFFFFFFFFFFFFFFFFFCCB124
:102D4000D281F3C0FCC1FD02FD02FCE2FCC2FCC268
:102D5000FC81FB80C9C081A4AD35CE599C71812115
:102D6000DA00FBA1FC82FCA2FC82FCA2FD02FD2297
:102D7000FCE2FC00DA60CC90FFFFFFFFFFFFFFFFEB
:102D8000FFFFFFFFFFFFFFFFFFFFFFFFFFFFFFFF53
:102D9000DE59C40DCB06D2E4DB03DB03DAE3D2C396
:102DA000C2A4B309BCD2F79EFFFFFFFFFFFFE6FB03
:102DB000B40EBAA6D283E2E3EB02EB22E322DB03FA
:102DC000D2E4C36AD5B6FFFFFFFFFFFFFFFFFFFF9F
:102DD00010630822108318C418A418A418A4084269
:102DE000084220C4106308422926082210620862A3
:102DF0000862086208620842108318C410631062F7
:102E000010621042104210630842106210630822E0
:102E100018C429260842108318A410631063106296
:102E200010A318A310830842108308421083106275
:102E3000104210631042108318A3082210A31083BD
:102E40000842108310830821106210630801188360
:102E50000842108308421083082210631042106257
:102E60000822188308421063084220C4188318837C
:102E700010421063108310421083106208421062E7
:102E80000842082118C3188320C410420821106288
:102E900020C420C4082129251083106218831062E1
:102EA00008211062188318A310621042188318A317
:102EB00010621883186218831021290510211862E6
:102EC000188210621041186220A31883106210410A
:102ED000102120A31862104220C318A3082120E467
:102EE00018831021186218A3186218A3186220838F
:102EF000186220A31842184220A31883188220A326
:102F0000188218621062188220A3106210411862A1
:102F10001042186210421042106220C418831883B5
:102F20001062102110621862104220C410421082F8
:102F3000082118A3106210420821292508006B0DF2
:102F4000080131262905188310621042106218A367
:102F50001062108318A3106220E408210842106256
:102F600010621062084110821062106210830841E2
:102F7000084129251042106220E4084218A310825B
:102F80001062106210621062188310831063106365
:102F90001883106218A4290518C4106218A4188395
:102FA000084210421063084208621083108318A47C
:102FB00018C41083082218C41063084210631063F9
:102FC00010630842084210421062108318C408427D
:102FD0001062086208421083086210A318C41062CD
:102FE0001042106318A318A41883082110631062FC
:102FF000188318A310421062108318831083106383
:103000001062108310831083106220E518A3002142
:1030100018A4104218A31062106218A4084210836A
:103020001083108310420821188320C418A408229A
:1030300018A418C418A3084218A3084218C41062A0
:103040001063106218C410421062108310421042C4
:1030500018831042108308411082106210830821E7
:1030600018A318C4000010830841106220C4106225
:103070002946188318830821084208011062084273
:1030800018A31062108210831042188318A31883AB
:1030900018A31062104210421862186210421042C7
:1030A00018831862186220C31042102129041042AC
:1030B00028E420A310423986080018A31062188261
:1030C00020E418821882186218A31042104210419E
:1030D00020A31862104249C8188220E410411882C7
:1030E000188218A310421062188218A320A310415E
:1030F00010421883082118A31883188318621042FD
:1031000028E4102118A3186220C4186218831062E2
:10311000106231661062104210620821186310427A
:1031200018A3186210421062080110621062108326
:1031300018C40841106208421082082118A31062C6
:103140000821294618A3084208421062106218A3F9
:10315000108318A310831042108210621083104253
:1031600018A3106210821083084220E51083108398
:1031700018A310630801104220E50842106218A34A
:103180001063188308422105106208621083084208
:1031900010830801082220E51043106318A418A426
:1031A00008021063106329051042082118C4084260
:1031B000108318E410A3084218A4086218830801B9
:1031C0006B0D20C418830000106218A3104208423F
:1031D00020E51062106310620842188310421063E9
:1031E00020E4106218A308210862210518A3082111
:1031F000290520E40821084210631042084218C43F
:1032000018A300011083210529261063082210420B
:10321000082218A318A410621042292610631883EC
:10322000106318A41062210518A410621042104205
:10323000106310620822106318C41083082118C498
:10324000082110620821108318C408411883292519
:1032500008011062106220E4108331660841106298
:103260000821188318C318A320C418A310620801EA
:103270002925188318A31062188310421042106287
:1032800028E41883104118821021188318A31041D4
:1032900020C310211042208310411862104220C424
:1032A000106231251041314618831042188320A343
:1032B0001842186210011882188310011862104118
:1032C00018830800188318621021188310413145B3
:1032D00018621042188320C4106218831883106289
:1032E0001021104218831021108218831883104275
:1032F0001062106218A320C42105106210421883C6
:10330000104210621062104210621042104210828D
:1033100010831042106220E40821106210820842DB
:10332000108218831883000108420842106210833B
:103330001083106218A318A308211062104218838A
:1033400018A3292518A3188318A418C410831042A1
:103350001042106320C41042106220C4084218A317
:1033600010621883082210831063086218A310A348
:10337000084218A4292618A4082220C508011042D2
:1033800010434A091884080110422905104218A464
:1033900010A318E408422105084218A442090801B4
:1033A0004A4A18A3104239C820C4108318C418838D
:1033B000108308420842294620C40842106220E4D3
:1033C000082118A4106310831083082110A318A3E8
:1033D00010631063080120E518831883108310839D
:1033E000106218A310830842106310420822106371
:1033F00010630842106310832905000110831083B5
:103400001062104220C40842082120E4084220E44F
:103410000842084218A310620841108220E4108379
:1034200018A3106218A310621062108308211042C2
:10343000104220C4106218831883080118A320C406
:1034400018A31883188318A3084218A31042314602
:103450003166082118A31062102118A320C4188314
:10346000186210421062104218622904104120A311
:10347000102118821883186220C31041106220C4E2
:103480001041102120A310421041186220C418429C
:103490001862188231251021186220A320C4290443
:1034A0000800312518620800106220A310420801AC
:1034B00020C4188328E4104220C4188318621062C4
:1034C00018A320A3188318A3104210621082104280
:1034D00018A3082120E4188308211062188318A378
:1034E00010621062106218C3108218831042082103
:1034F00018A31062106210831062108210820842BA
:1035000018C43166082118C4106218C418A31082A8
:103510001062106208410842188308421083082193
:10352000108310621062084218830842082218A40F
:1035300018A329050801104210421063084208012F
:1035400018C4106310831062084218C4002110834D
:1035500010631063104320C5188310421884186349
:10356000104320A4104318631063080118A40842F4
:1035700018A30842188310631042082129261063FB
:10358000106310421083106218A418A318A42946CF
:10359000106210621063108308011083104218C477
:1035A00020E5082231871063108318C418A4106224
:1035B000106320E520C408011063082218A4082223
:1035C000084218A318C418C40822084218C418C412
:1035D00018A4106218A418C4082120C4084210833B
:1035E0001063108339A7084220E5082210420842E0
:1035F00020E420E40801106218A418A310621883C4
:103600001082084220E4108318A30821106220E4ED
:103610001042188320E408421083108329250842B1
:1036200018A3108218C321050801106218C4106283
:10363000082118831082106220C41883188218820F
:1036400010622925106210411862082120C4082147
:1036500028E4104220C420A31021208320A3188234
:103660001042188310421862188320C408001862A0
:10367000184228C4208320A320A320832083102164
:103680003125188220A341C820A318823946186228
:1036900018621042102120C4186218621862186261
:1036A00020C41062186220A310821883188310426D
:1036B000106218831883106218A310621042102140
:1036C0001862106218A308210842106208211883AA
:1036D0001083106210620842108210621083108200
:1036E00010621062082120E4108308211883084228
:1036F00010831083104218A3106218C4082118C444
:103700001062290520C408211063188310621883F1
:1037100018830822106320C41042106210631883BB
:1037200020E410621042188318C4104218A41042FA
:103730001063104220C41042186328E51863314713
:1037400020A4102231263967080118631063106223
:1037500010631042084210421042292529051063C7
:103760001883106318A41062188310621042292570
:1037700010422926108339A7316620C4294620E447
:1037800010631083082110621062084210421883EF
:1037900010421042188320E5106310830842108302
:1037A0000862106310630842106320E4082210626C
:1037B00008211083106220E4210518831063104251
:1037C00018830822108318A4084210621062106245
:1037D00018A3082220C42905000131671083292578
:1037E0001062106218A3106218831042106220C485
:1037F00010621062108310422946294618A31083D4
:1038000020E4084210621083104218830821082126
:10381000104220C41042188318830801292518A3D8
:10382000290420A31041188210421882106218A3A4
:103830001862188318621862208320A31062106235
:103840001862080020C418623125080020A31883DC
:1038500020831021186220831041104228C418834D
:103860001042104220E420A308001042186218837E
:103870001883104220A310421042186218A30801B6
:1038800029052905186218831883104210821883AD
:1038900020E408210821106210421883106231666A
:1038A00018620821106218833146082118A31042BB
:1038B0001062104218831883106210421062106266
:1038C0001062106218831042080120E420E420E412
:1038D0000842106218A3082120C41082314620C477
:1038E00010621062188318831883082220C41042C3
:1038F00018A4104218A4080110631062082218834B
:1039000010621042106218A310621083108318A472
:10391000524A188320A4104220A41863A4D46B0D2B
:1039200010431883080120A428E5104228E5080167
:10393000292608013167104220E508221042104272
:1039400018A318831883104218A30822104218C421
:103950001083106318C4106308011083104218C448
:1039600018A3210518A310621883290518A4106252
:1039700010423146106310631042108318A318835D
:103980001063084218831063108320C4082110625A
:10399000108318830822106210631883082120E422
:1039A000108318C410420001108318C4082218A400
:1039B0000842106208220822084218A308220801BF
:1039C0002925084218A318A318C4106218A318A325
:1039D00018A320C4106218A310621062108208217C
:1039E0001042108218A318A30801080120C4290559
:1039F000188318A30841106218A31883292518A357
:103A000018A310623145082120C320C31883106217
:103A10001862186220C420A308011862104220A373
:103A200020A33986104131251862188220A3104244
:103A30003125208320A32083184220A3186228E484
:103A4000104120A31021188320A320A32904208340
:103A500028E4186218621842290520E4102120A3E6
:103A600018A3104220C420C4188320A3000018A368
:103A70000821188218A3188310621883080118837C
:103A8000104220E420E4104218A328E5186318A38C
:103A900018A308411883106218831062108208422C
:103AA00010620842106218A3106218A318A30842FB
:103AB00010831083106220E408011042000110837B
:103AC00018A3104218A3102218A3104218631863F9
:103AD00020E41042188318A418A418A410631883B3
:103AE0001042188320C41062188310421042104202
:103AF00018A320C41042186320A41863DE7BA4D44A
:103B00003146186320A4080229051042188318635F
:103B10001883082218A410421063290518A4106302
:103B2000106310630822314618A31883082210621C
:103B3000188308421062106318A320C418A41083CD
:103B4000106218C4188318C4106318A4106320C42A
:103B50001042314620A41042188318A41883106321
:103B600010621083106218831062106320E51063E6
:103B700010421083106320C4104210421883108337
:103B80001883084218A31883106210631042106251
:103B900020E4106210631063104210421062106241
:103BA00008421883082118831062210518C40821CF
:103BB000188318A318C4082120E418A3084218A3E6
:103BC0001062106220C400005AAB18A31062188360
:103BD0001042106220E41062104220C41062188269
:103BE0001883082120C3104118821041104210216F
:103BF00018421862290420831862188320A32083A6
:103C00001862188320A328E431252904188320A3EF
:103C1000100118421882418720A3208310211862C6
:103C2000208320A31883186218821862186220A3C8
:103C30001842186220A428E41883186210621862DF
:103C400010421042080118830801104239A7188356
:103C5000104210621883188320C4104218A3102148
:103C6000188318A3082110421042188318830821D2
:103C700008420842106218C3108318A31042108330
:103C80001062188318A3082120E40821084218A311
:103C90000842188318C41083084239A7106208210B
:103CA000104210621042188320E41062188320C46E
:103CB00029051063080120C4082220C4104218A35B
:103CC00020C408221063082218A3108318A41083AC
:103CD0001063104220E420E5188320C4102208015C
:103CE00010221884188308013146104218832905D0
:103CF000080118A320A420E5104218A4102220A433
:103D0000104239870001188310621062188331460F
:103D1000000120E41063108320E418A418A418A460
:103D200008221883106318A4104210630822082286
:103D30001883082220A4188318A41042108310634B
:103D40001042082218A4082218C4084218A310839D
:103D5000188318A31062210510421062084208421D
:103D6000188310631062108320C40801106310834D
:103D700020E5080118831083082218A4106318A4F2
:103D800020C41062104229051062106210622905D9
:103D90001042290520C410420842210508011042A2
:103DA0001883106218A32905000020E41042102295
:103DB000292510421883188318A310421883104233
:103DC000188208211062188218621062398628E46D
:103DD00028E431451041186218420801290518628B
:103DE0001021186210011042188328E4186220A3E1
:103DF0003125102110411842184220A3208328E4C5
:103E00001001312520A3102128E418621862104106
:103E100018632083102110211862208328E418835E
:103E2000104210214A0929253166104220A3186248
:103E300020E4188210411882102120A31042188318
:103E400018A308014A2918A3104220A3186210627F
:103E5000106208421062082110421042188320E4C8
:103E6000188318A318833146082118832925104286
:103E700018A308211883104218831062082129050D
:103E8000188320E4290520E4104220E5104220C4D4
:103E900018A4314610631063188308211883106238
:103EA0001883082218A418A418A3104210621063E3
:103EB00020E408221883188329051863104310632F
:103EC00018A4104210423146104218A418A3104200
:103ED000188320C418A41042188310631883082183
:103EE000104220A420E520C418831062106218C478
:103EF000104218A318A410421883082210631063FC
:103F0000104220C41062082218A4188320C4106331
:103F100028E5104220C4104220C4188318A410625F
:103F2000106318A320C4188318831063106220E460
:103F30000822082218A41042210510621063108381
:103F40001042106218C4000120E518A3084218832B
:103F500008212925106208423166108310420801A9
:103F6000188320C4104218A3104220E410620821D4
:103F70001042188320C41062108310621042106235
:103F80000842104218A31083106208211042104208
:103F90001883108318A320C41062106210622904D1
:103FA000104118A320C418A318821862080018A38F
:103FB0001862080028E41862186228E4080028C47F
:103FC000184220A328E420A3080010421021186200
:103FD00010014187188228E4208318422083184268
:103FE0003105080018621882102120A33966186272
:103FF00028E408005A8B18621042102218631883B4
:1040000020C410422905082110621042188308219B
:10401000104118832904106218A3080020C410421C
:104020001883398718621042106218831883188326
:1040300020E410621062314618A308011042106299
:104040001083188310620821108318A3106208429D
:1040500018A320C420E418831062106218A308215A
:10406000104210421883104210421883082129057B
:1040700010421062104218A4104218831883104294
:1040800018A41883104218A3104210631042106342
:1040900018831083104218A308221883104241C8C5
:1040A000080120C41063082220E518A41063290524
:1040B00020C40822104239A810421063188320C47B
:1040C000522A18A4104218831062106220E418C407
:1040D00018831042188318A4188318A31063106360
:1040E000104220C4102220A4188320A431261022BC
:1040F00029051042188320C41063104220C41042C6
:1041000018A420E418A3104220E4188308221063A6
:10411000108320C41063106218831062106208427A
:10412000084220E4210518A320E4188318A40842BB
:1041300010620842106310630822188339A708220E
:1041400018A4106320A408211863104220A4106250
:10415000188320C40801104218A3188320E41062B9
:1041600018A318831062106220A3106229050801A9
:1041700020C4080118A318A31883102118A31062E3
:1041800018621882104118A3188241A7080018620B
:1041900020A3188220A318621883184249E8184205
:1041A000186231250800186228E4290510621021E0
:1041B00028E4208320A318421041310518421842F8
:1041C000100120A3188220C31862208331451042B9
:1041D00028C428C439461863186320A3186220A491
:1041E000186362AB20A3104220A318830801314654
:1041F0003145186218821862188220C3186218624A
:1042000020E420C410421042292508001042080072
:10421000188318A310621082082120C4104218834A
:10422000188318832946084218A31083106218C403
:1042300018A310421042082120C420C4104229258E
:1042400010621042106218831883290510621883C7
:1042500018A410830842188320C4108318A30822CE
:1042600018831883082218A420C4106210631063F6
:10427000080118A310421883188318831883106349
:1042800018A31042290518A41883104208222926D1
:10429000082220E51042104218831883186318A3DF
:1042A000104220C4106320C418A4188318C41063DB
:1042B00018A3106220E42105188320E518831063F9
:1042C00020C4188320C418631883188310621063F5
:1042D000102218831063292618A4082210421063A4
:1042E00008221063082218A31083082118A4108341
:1042F000104218A308211042106218A318831062FC
:104300001062294600011883106218A410831063FC
:10431000084218C410631083106210421062082211
:10432000106318A410421883186310620801186201
:104330001021080029251863082108213166106220
:104340001062082120E418A318A31042104220A3F1
:1043500018A31883314608211042106228E420E493
:10436000104220C33125102118831862312520C343
:10437000080020A32083208318621862290528C41E
:104380001042080128E428E41882104218821042E2
:104390000801184228C42083208341A718821021D5
:1043A00020C3100129051862186218621883186268
:1043B000312620A318620801943262AC20A320A405
:1043C000104210221883186220A31862188320C498
:1043D0001041290420E4104210411041104218837A
:1043E000104218831883316618A331461883186267
:1043F000108310621042188318A31062104210221A
:10440000104218621062104210621083106218A3EA
:104410001042106210621062188318A318A30801DA
:104420001083106210831083292620E40822104292
:10443000084220C410621063106218A320C41083C5
:104440000821108318831062104221051042108346
:104450002925102118A30801104218A3104218831F
:10446000186320A4104220C41883292520C418638F
:104470001042106320C429261063104229251063BE
:1044800018831063080120C4106310631042108366
:10449000210510631883104218831063106220C432
:1044A0001883104220A41042188320C418A4188333
:1044B000188318A3188308421062106218A3188387
:1044C00018A3106218830000188310620842084283
:1044D00020E518C418A4084210621083082118832C
:1044E000106308421883104210621083080118A359
:1044F000082118A31083082118A4188310621883B8
:10450000102220C4106220E5082118A3292510627A
:1045100031464A290801188318A31083316618A36D
:1045200018A3082120C418A320C418A310221062C5
:1045300029051883104220C420A3106210412904C9
:1045400010411883186220C4186220A30801104289
:1045500028E420A3102120C4104220A31883208324
:10456000188328E40800104220A31862188228E467
:104570001862184220831862184228C428E4418730
:1045800010013125080020A3186220C40800104241
:1045900018621022102228C420A4188320A31863B4
:1045A00018622083104220C420A328E4102220C4D3
:1045B000104220C420C420A3188329052904080020
:1045C00020C310621041312508000800188320C460
:1045D000188318C318A310621042188320A4102255
:1045E00020E4104218A3106210621062106218A337
:1045F000106210422925106228E41042080118C4F4
:10460000188318830821188308421063104210830E
:104610001062104210631883106218A3108318A34D
:10462000188318A40842104208421063106318C48B
:104630001042188310424A2918A4188320C410621B
:1046400020C410221042316620A4106218A41863FE
:104650001063082218A41042104218A320E510424B
:10466000188318A418A4104220C4104210621062CB
:1046700018A410631042106220C418A41883106399
:1046800029051863186320A41042292510621062BE
:1046900018C4104218C4210510421883108318C48E
:1046A00008211062084218831062108320C4292553
:1046B0003187104208421083104218831883104239
:1046C00020E51042082218A41062106310621083C3
:1046D0001062106308421062104218A3106308228F
:1046E0001883104229251042104220A4290518835E
:1046F00018831862104228E510421062108310627D
:10470000104231461062082118831021186318A343
:1047100018631022186228E418831883188320A3D2
:104720001062106220C4188220A31842184220A3ED
:10473000104220A3104118A3186218822083186227
:10474000186210412083104218621883186220A357
:10475000208318623125100128C4184220A310417B
:1047600020A3186220A3188320A31042398720C3F6
:1047700020C4184220A328C418423125290510421C
:104780001021186320A3186220A31021186320C4ED
:1047900041C8186210421862082120C4102120E488
:1047A0001062188320C3104129051862104220C3EB
:1047B00020C40821084218831883188310421883E4
:1047C00010422905106220C439870821106208218F
:1047D000104220C408211042102118A3292510429C
:1047E000104218C4188310421883104210621042FD
:1047F000188318A418A31063188310621063106341
:1048000018A3188310830821106210621883108384
:10481000104220A3104208013125080120A418638A
:1048200008012905104220C41883188320C41042AF
:1048300018A41042188318831042106220C45A8BA7
:104840000801188318A420C4082218A418A418A3C7
:104850001062294618830822314618A4106318A351
:1048600018833146106210221042292620C41042BB
:104870001083108320E4106220E420C418831062A7
:1048800018A320E41062082118A3292518A30821E1
:10489000104218A3106218A418A4082210621083F2
:1048A000104210421883108318A318A3080118A4FB
:1048B00020E510A318A3106220E5080120C41863A6
:1048C00020A4106220A420E5188310631062080160
:1048D000188310421042104210621883104218A32D
:1048E0001883104218A318A3292541C81042186242
:1048F0001883186310421883398720A3080041E801
:10490000102120A31882102118831042312508009D
:104910001862186228E4102128E40801186218427D
:1049200028E41862290518831042290410411062F6
:10493000080120A3208318821862312510212083CA
:10494000186220A3104218621862102141E8104238
:1049500018623125104220C42905104228E420A302
:104960001042104220A31863186220C4102118833B
:1049700041C808011862104220E4188310621042F6
:10498000106208211883104120A320C31041106237
:1049900018A31082108310421062084220C408013C
:1049A000104228E41042290518830841108318C4D6
:1049B00020E4106228E5290518A3104218A310422C
:1049C00020E410831062108210421062106318837A
:1049D000086218C4084218C4108308211063210516
:1049E00010621062082118A4108310421062104255
:1049F00018831883104241A739671883186320A4CD
:104A0000106320E5102220C4102220A420C4290510
:104A1000106229261042188318A420C41863188332
:104A20001883104220C4082218A310421063188370
:104A300029050001106331674A29082120C4188321
:104A4000188318A3104220C420C418A320A41883DC
:104A500010621883082120C4106208010821314621
:104A60001062084220C4292510621062104218A367
:104A7000106320E418A42926106218A3188310627A
:104A8000084218A310631063106310631083106250
:104A90000821084229251042082218A418A418A4A5
:104AA00020A410423146082128E520A420A341E893
:104AB0001042106220E418A3188339871042104274
:104AC000104218A3106220C420E420E420C4104245
:104AD00029053967102131460821104220E40821B8
:104AE000188218A3186220C31882184220A31882C3
:104AF0001042106220A31883186220A318421021CC
:104B00001862208318A3106220C420A320E4188315
:104B10002905188320A3188318831842310541877B
:104B200020A3104120A320C4104120C3082118A3B2
:104B300020A3186220A318621021184228E420C480
:104B400010214A0920A3102120A4102139871862BE
:104B5000102120A31042186210211862106220C494
:104B600018A31041106239A720A3102118A31062C6
:104B7000080118A3106220C418A320A31022312614
:104B80003146104210831062082118A3108310428E
:104B9000102220E4186318A3188320A4106218C4FC
:104BA0001083082118A310621883108310831083C8
:104BB00020E41083106318831062106318A4188314
:104BC0001063084218A418A4108318A31883108334
:104BD00018831022290529051042188318831042D2
:104BE0001883524A1042188320A4102229051883E2
:104BF0001021316620C420C4080118A310422905E1
:104C000010421883104218A418631883316720A437
:104C100029052905186320A4102220A418831863ED
:104C200018A31883290520C418A318A3106218A379
:104C30001883104218A3106210622105106220C46C
:104C400018830821186210621042106220A31062BB
:104C500020C4106218A3292508221883104210636B
:104C6000106318831042188318C418C40862108394
:104C70001883106210830822108318A318C41083AD
:104C8000106218A30842108308423146104218836C
:104C90001083104210621042104220C41062108330
:104CA000082118A30821084220C41042104228E518
:104CB0001883104218A3106220A3104218621883B0
:104CC00020A31883104220A318821862184228E4F7
:104CD00020C4186220A31862104128E41021188211
:104CE000104120A318621883188310213125080170
:104CF00018831883188318831862186228E52083A4
:104D000028E4188328C4186220C318830821186275
:104D1000102128E41042186220831883188320C4CD
:104D20001842312518421882186210412083100160
:104D3000104220A3186220C41862186218831862F7
:104D400020C420C320A3106220A3104220C4290540
:104D500062CC20A3188310621042188320A4102272
:104D600010621062188310621062290510421883C5
:104D7000080128E41863188318A3082118831082F7
:104D8000316618A31042106210831883106329053E
:104D9000104218A31042082218A4104220C408226E
:104DA00020C4188320C4188318832926106318830D
:104DB000186320A310421022188310631042188336
:104DC000106308221063188328E50821188308223D
:104DD00041E8292520C418A3104220E5080118A3A2
:104DE00010621063104229261063102218A310428B
:104DF00018631022186318633126186320A41883DF
:104E00001883104220C4188310631063108329256F
:104E10001883188320C410421062106218A3104235
:104E200010621062106218A3104218A308211863C0
:104E30003146106210420842080120E4080118833C
:104E400008421083106318A30842106320E4106224
:104E50001083106318A3082218C4084218A3106214
:104E600018C3106208011062082110830842104222
:104E7000188318C41083106220C418830821318756
:104E800031461062106210421022104210226AED68
:104E900041A820A4188308211883186218A3186257
:104EA0001042188320A320C4290531453105102163
:104EB000106220A310211062104220C341C828E4D0
:104EC0003125104120A31021184218621042188287
:104ED000080120E431462905188320E410421862B5
:104EE0000800524A186228E41862106220E4102177
:104EF00020E4102110413125080128C4188320A383
:104F00003125186220C3102110411862314541A794
:104F100010211862186220A3184210421042188310
:104F2000186220C40800312510411883186220E45B
:104F30001042186220A418831883186220C41042FB
:104F400018831062188329251062104210621062C3
:104F5000104218631042188318A3104210621062A6
:104F600018A3106220E4290518831083104218A3A7
:104F7000082210421062106318831883106318A36C
:104F8000186318631042188320C408011062188344
:104F900041A820C4186318831042314610421042C1
:104FA000104210631063188310223967186341A8F8
:104FB00010421863104218A31883104220C408211D
:104FC00020C4104220C4082118A41883186310427A
:104FD000104220C41863104220C4186310422905EF
:104FE000104218A4188318831083106310420821FC
:104FF000104208211883108318A318A318830821CE
:10500000106218A3104210423987104220C418635E
:10501000082110622105106210631063104218838A
:1050200018A420E4082118A4104208221083084282
:1050300018830822106220E50001106318830822FB
:105040001062080162EC20C420C410621883082199
:1050500018831883188318831883104220E4106281
:1050600031660000524A29251883104210421883E5
:1050700010421863290520C41021188320E4186207
:1050800018831042188320C41041104228E420A342
:105090001883188220C420A3188218A318A32904F7
:1050A00028E418821883102120C4188328E420A340
:1050B0002905186239A7188320A318A3186218625B
:1050C000186208011021188320C31041106228E4DF
:1050D000082118623125104120C420A3188220A382
:1050E00028E420A329051883396618821041188204
:1050F00028E4208228C4186228E428E4188239862B
:1051000010410801290420E4104120A3186218A3CB
:1051100018621042188328E41883188328E40801D1
:1051200018A318A31042102120A420C418621863E9
:1051300020E4080128E418831042398718A32905C0
:10514000082121041042106210831083188310423A
:1051500020E418A420C4082220C420A4186318A3A3
:10516000104218A318831883080120C4104210634A
:1051700028E51042186320E520A418A410621883C3
:10518000106320E520E518A4106320A418832905E6
:10519000106210621883106220C41883082218A4B9
:1051A000104220C4106328E518A31022188328E5B4
:1051B00029051883102220C4186320A410633146E7
:1051C00029051883104220C41883106220E510625C
:1051D00020E418A31062106218A3108318831883A8
:1051E00018A31083188310421862106218A310428B
:1051F00018C40842188318A3188308221883104281
:10520000106321051063106310621062086210833E
:10521000106318A3106318A3188320C4104218A4A5
:10522000108310420821084210621083106210623D
:105230001083104220E408211883106220C420C487
:105240004A4A294610625A8B000020C418831883EA
:105250001862102210621883188320C4188320C497
:1052600020A320C420A3080118A3186228C4104258
:1052700020A3186210411883106220C320E410425A
:105280001041186218831021188320A320A31862EC
:1052900020A31042186218831883186220A420C427
:1052A000290528C4188318621882292510421882FB
:1052B00018622904104128E4186220A320A3186270
:1052C00020A318621883186220C3104120A31882FB
:1052D00018423945524A20C318821021106228E42E
:1052E000186220A310211021188228E428E410421B
:1052F00020E41862186328E418A3106218832905B3
:10530000186320C4082120C4080128E441A8102201
:1053100020A420C4104218A320A318A3106218626E
:1053200018A3106218831062104218C40822188350
:105330000822188308211883104220C4104218A4A0
:10534000186320C418831042106318A3082120C4D6
:1053500010421883106220E4188318A3106320C43D
:10536000106320E539A71042188318631883186367
:105370001863186318A3186210621042290520C42C
:10538000104220C41863104220A462CC080120A45B
:1053900020C410221883186320C420C418A31062EC
:1053A0001883106218831062188318A310421883A0
:1053B000106218A310831062106220E410620821AA
:1053C00010421083314608210842106210421062D8
:1053D00018A31883104218A318A41883080120C426
:1053E0001063082210421042104218C408221042D2
:1053F0001883106310831063106210421042082259
:10540000108320E4108318A31083082118831062EE
:1054100020C4084220C4104218A310621062106217
:1054200008011883186208011883186329051042BF
:1054300020A3106218A310621042188310420821A2
:105440003125186229051883102120C4106220A379
:105450001042186220A320A31862106220C41862B0
:10546000188329250801292520E4102118621042FB
:105470004A09290520C410621062106220A40801A4
:10548000312520A3186228C43966188318A3104157
:105490001882188220A320C320A320A3188220C32F
:1054A0001883186220C31862186220C331252904AA
:1054B0003966080028E410411862188318821862BF
:1054C000186220C320C420A3082118621862186241
:1054D00028E408211883186220E41042188320C4AD
:1054E0000821106220E4104218A31883188318833F
:1054F000188320A4104220A318831021188310427F
:1055000010621883188320E418A310831042082225
:1055100018A310631042188310630822104210620F
:105520001883106218A410421063104218A310428E
:1055300010421883104220A41883186320C41062FC
:1055400020E50822082220C4104228E520C420C4F7
:1055500020C4104229052905188328E520C4188392
:1055600020A4080128E528E5188320A43146186303
:1055700020A428C42905396718A420C400012925BE
:10558000188310631883104220C4104220C428E5F9
:1055900018C420E41042188318A3080110422905FA
:1055A0001062188320E420E420E4106220C418A3D1
:1055B000106218A31062084220C41063188320E50B
:1055C00010631042188318A420E4000118C410626C
:1055D00010621063106218A41042106318A31062C6
:1055E00008421083106210421062106218C41883BF
:1055F00010621042188310620842104218A31083F0
:10560000188318831042080120E4106220E4186215
:105610001042188318A310627B8F10421883106207
:1056200020E4102118A320C41062104220C41021CD
:105630000801290510621883080120C420C418A39A
:1056400020A3186220C410421042316618833146EC
:10565000080118A310421883188318A3188320A3E5
:10566000186210211041100118621062188220E4A3
:1056700020A3188220A3104118831883314528C421
:105680001883188320A31862290420A3104120C383
:105690001041104118821041186218831883188332
:1056A000188310411883188318A3186220A31021AF
:1056B000104220C418A310621883186218621042A6
:1056C00020C4188308013966102118A320E418A308
:1056D00029051862396710421862186218A31883E6
:1056E000188320E4104210621062188320C41883CB
:1056F00020E510631883106318A4106318A418839E
:1057000010631883316718A4082218A4188318A3FB
:105710004A0920C42905104239A820C4290518A423
:1057200020A4186320C420C4188320C4186328E56B
:1057300020A310224A0918A3104220C420A410223A
:10574000080162AC1863310610223967100120A4E9
:1057500020A428E5186320C4188318832905106342
:1057600018A3290520C418A410222905104220A43A
:1057700018831883188320E43166290541C808215D
:1057800018A318831062188320E41062188318A3EA
:1057900018A320E4106241C8104220C420C4292666
:1057A00008211042104218A3104220C408221042BF
:1057B000188318831883188310631042082210423C
:1057C0001062290520E418A3188320C40801106280
:1057D000104231461863186229251883104210625E
:1057E000102220C4102220A3082118A3104220E474
:1057F000102120A320E41862082110621883186287
:1058000018A318A3104218831883104218A31883F2
:1058100018831062188318A31883104218A310422B
:10582000104220A31021188320A31021188318836D
:10583000188320A320C4290520A32905102220A312
:105840003966186220C31882314618833125104109
:10585000188220A328E428E41862186220A3188282
:105860001842186220A3104118831882188310422E
:1058700020A31882398620C31001186218821041B3
:1058800028E43125290528C420C41883186220A4DF
:105890001862104218A3082120C41062312510425A
:1058A00029050821186220A31042188320C420C4AF
:1058B00010421883186218A318A31883186220A333
:1058C00018831042188320E410831062290518837E
:1058D0001042106218A31063106310421863106224
:1058E00018A3080110421883188318A3104210420D
:1058F000104218A31863316620C439672905106364
:1059000020A41884186318831042186320A4184335
:1059100010213966102218A3106210631863104218
:10592000290520A4188320A4310528C41001186378
:10593000184318633146186310631883188318A33B
:10594000108318C41063314620A4102228C51042C9
:10595000106220C418A30821104241E8104218C464
:105960000821106218A318A310421883188310622C
:105970001062106218A3084218A41063104229058F
:10598000082210421063188320C418831883104221
:1059900018A4104218A3104218A420C4082218A466
:1059A00018A30821108318830801106220E420C482
:1059B0001883188331661042104220A410621883A5
:1059C0001062398720E408016B2D10421863188398
:1059D000186208011042106218831862188310219F
:1059E00020C41062186210421062186220C4106253
:1059F000104218621062188318831883106220A363
:105A0000104220A318831883102120C4186228E4B0
:105A10001883188318A31883104218A3104220A3D8
:105A200020A31883104220E4104228E4102120C44F
:105A3000188218A328E420A320A320A3186208003A
:105A40005A8A1883186218821883186218A320E4EF
:105A500020C310211862102128E420A3106220A383
:105A600028E408003105208328C410211883102160
:105A700020C418621021106229051883188310624F
:105A8000104220C4080120A3186220A4104220C4A0
:105A900020A40801290518621883188329051042DB
:105AA00018A31062108310620821084220C410421B
:105AB000108310831063188318A4104218A320A425
:105AC000082128E510631042188320E4104218A42E
:105AD0001863290520A41022398708012905188395
