:03000000020016E5
:0C001600787FE4F6D8FD75814B02005D98
:10035200014B00014A000B2E287EA4647261217CAD
:030362002060FF19
:0702DC001203027F147E00F3
:1002E300D3EF9400EE94004015E4FDFC0DBD000136
:0E02F3000CED640A4C70F5EF1F70E51E80E202
:0103010022D9
:10030200742E2FF8E6FFE4FEEF30E704D2A380025A
:10031200C2A300C2A200D2A2EF25E0FF0EBE08E8EF
:0103220022B8
:10018C00E54B75F00A8485F046E54B75F06484E523
:10019C00F075F00A84F547E54A75F00A8485F04855
:1001AC00AF4A7E007C037DE81202467E007F0ACFB8
:1001BC00CDCFCECCCE1202468F49D2A6C2A512020A
:1001CC00DCD2A5C2A4AF481202DCD2A4C2A7AF47AE
:1001DC001202DCD2A7C2A6AF461203027F147E0025
:0301EC000202E329
:09033B00D3EF9400EE9400400D94
:060344007508F4D508FD68
:08034A00EF1F70ED1E80EA2296
:0300130002029B4B
:10029B00C0E0C0F0C083C082C0D075D000C000C029
:1002AB0001C002C003C004C005C006C007C2AF0531
:1002BB004B1200A2D2AFD007D006D005D004D0038A
:1002CB00D002D001D000D0D0D082D083D0F0D0E0FB
:0102DB0032F0
:0300030002011ED9
:0D011E00C0E0C083C082C0D075D000C00713
:10012B00C2AF90FD03E030E04290FD10E0F521A35B
:10013B00E0F522A3E0F523A3E0F524A3E0F525A346
:10014B00E0F526A3E0F527A3E0F528A3E0F529A326
:10015B00E0F52AA3E0F52BA3E0F52CA3E0F52D9019
:10016B00FD017404F090FD0BE0A3E090FD0474011D
:06017B00F085264AD2AF18
:0B018100D007D0D0D082D083D0E03275
:10032300C2A07F0A7E0012033BD2A0C2A1D2AAD2EE
:080333008AC288D2A8D2AF22D1
:0B0006001203231201EF12018C80FB9B
:1001EF0090FD007409F0E0F52030E0F490FD1F74ED
:1001FF0088F090FD067403F0A3741CF090FD047456
:10020F0001F090FD0874AAF090FD017404F090FDC8
:10021F00107411F0A37422F0A37433F0A37444F09C
:10022F00A374FFF0A3F0A3F0A3F090FD007404F00B
:06023F00E0F52030E2F4BE
:010245002296
:1000A200753988753A01753B02753C03753D0485C7
:1000B2004B3E753F22754033754144754255754339
:1000C2006675447775458890FD02E0FF20E4F8905C
:1000D200FD02E0FF30E3F890FD02E0FF30E2F8902D
:1000E200FD10E539F0A3E53AF0A3E53BF0A3E53CCA
:1000F200F0A3E53DF0A3E53EF0A3E53FF0A3E54024
:10010200F0A3E541F0A3E542F0A3E543F0A3E54403
:0B011200F0A3E545F090FD017410F033
:01011D0022BF
:10002200020006E493A3F8E493A34003F68001F2EE
:1000320008DFF48029E493A3F85407240CC8C333DF
:10004200C4540F4420C8834004F456800146F6DFAE
:10005200E4800B0102040810204080900352E47EE9
:10006200019360BCA3FF543F30E509541FFEE493A3
:10007200A360010ECF54C025E060A840B8E493A36A
:10008200FAE493A3F8E493A3C8C582C8CAC583CA95
:10009200F0A3C8C582C8CAC583CADFE9DEE780BE4D
:010365000097
:10024600BC000BBE0029EF8DF084FFADF022E4CC9C
:10025600F875F008EF2FFFEE33FEEC33FCEE9DEC65
:10026600984005FCEE9DFE0FD5F0E9E4CEFD22EDAB
:10027600F8F5F0EE8420D21CFEADF075F008EF2FF5
:10028600FFED33FD4007985006D5F0F222C398FDE6
:050296000FD5F0EA2283
:00000001FF
